{
	"contracts/FirstContract.sol": {
		"SmartContract": {
			"abi": [
				{
					"inputs": [
						{
							"internalType": "string",
							"name": "name_",
							"type": "string"
						},
						{
							"internalType": "string",
							"name": "symbol_",
							"type": "string"
						}
					],
					"stateMutability": "nonpayable",
					"type": "constructor"
				},
				{
					"inputs": [
						{
							"internalType": "address",
							"name": "",
							"type": "address"
						},
						{
							"internalType": "address",
							"name": "",
							"type": "address"
						}
					],
					"name": "allowances",
					"outputs": [
						{
							"internalType": "uint256",
							"name": "",
							"type": "uint256"
						}
					],
					"stateMutability": "view",
					"type": "function"
				},
				{
					"inputs": [
						{
							"internalType": "address",
							"name": "to",
							"type": "address"
						},
						{
							"internalType": "uint256",
							"name": "amount",
							"type": "uint256"
						}
					],
					"name": "approve",
					"outputs": [],
					"stateMutability": "nonpayable",
					"type": "function"
				},
				{
					"inputs": [
						{
							"internalType": "address",
							"name": "",
							"type": "address"
						}
					],
					"name": "balances",
					"outputs": [
						{
							"internalType": "uint256",
							"name": "",
							"type": "uint256"
						}
					],
					"stateMutability": "view",
					"type": "function"
				},
				{
					"inputs": [
						{
							"internalType": "address",
							"name": "owner",
							"type": "address"
						},
						{
							"internalType": "address",
							"name": "spender",
							"type": "address"
						}
					],
					"name": "checkAllowance",
					"outputs": [
						{
							"internalType": "uint256",
							"name": "",
							"type": "uint256"
						}
					],
					"stateMutability": "view",
					"type": "function"
				},
				{
					"inputs": [
						{
							"internalType": "address",
							"name": "a",
							"type": "address"
						}
					],
					"name": "checkBalance",
					"outputs": [
						{
							"internalType": "uint256",
							"name": "",
							"type": "uint256"
						}
					],
					"stateMutability": "view",
					"type": "function"
				},
				{
					"inputs": [],
					"name": "decimals",
					"outputs": [
						{
							"internalType": "uint8",
							"name": "",
							"type": "uint8"
						}
					],
					"stateMutability": "pure",
					"type": "function"
				},
				{
					"inputs": [
						{
							"internalType": "address",
							"name": "to",
							"type": "address"
						},
						{
							"internalType": "uint256",
							"name": "amount",
							"type": "uint256"
						}
					],
					"name": "mint",
					"outputs": [],
					"stateMutability": "nonpayable",
					"type": "function"
				},
				{
					"inputs": [],
					"name": "name",
					"outputs": [
						{
							"internalType": "string",
							"name": "",
							"type": "string"
						}
					],
					"stateMutability": "view",
					"type": "function"
				},
				{
					"inputs": [],
					"name": "symbol",
					"outputs": [
						{
							"internalType": "string",
							"name": "",
							"type": "string"
						}
					],
					"stateMutability": "view",
					"type": "function"
				},
				{
					"inputs": [
						{
							"internalType": "address",
							"name": "to",
							"type": "address"
						},
						{
							"internalType": "uint256",
							"name": "amount",
							"type": "uint256"
						}
					],
					"name": "transfer",
					"outputs": [],
					"stateMutability": "nonpayable",
					"type": "function"
				},
				{
					"inputs": [
						{
							"internalType": "address",
							"name": "from",
							"type": "address"
						},
						{
							"internalType": "address",
							"name": "to",
							"type": "address"
						},
						{
							"internalType": "uint256",
							"name": "amount",
							"type": "uint256"
						}
					],
					"name": "transferFrom",
					"outputs": [],
					"stateMutability": "nonpayable",
					"type": "function"
				}
			],
			"devdoc": {
				"kind": "dev",
				"methods": {},
				"version": 1
			},
			"evm": {
				"assembly": "    /* \"contracts/FirstContract.sol\":74:1713  contract SmartContract... */\n  mstore(0x40, 0x80)\n    /* \"contracts/FirstContract.sol\":197:313  constructor(string memory name_, string memory symbol_) {... */\n  callvalue\n  dup1\n  iszero\n  tag_1\n  jumpi\n  0x00\n  dup1\n  revert\ntag_1:\n  pop\n  mload(0x40)\n  sub(codesize, bytecodeSize)\n  dup1\n  bytecodeSize\n  dup4\n  codecopy\n  dup2\n  dup2\n  add\n  0x40\n  mstore\n  dup2\n  add\n  swap1\n  tag_2\n  swap2\n  swap1\n  tag_3\n  jump\t// in\ntag_2:\n    /* \"contracts/FirstContract.sol\":272:277  name_ */\n  dup2\n    /* \"contracts/FirstContract.sol\":264:269  _name */\n  0x00\n    /* \"contracts/FirstContract.sol\":264:277  _name = name_ */\n  swap1\n  dup1\n  mload\n  swap1\n  0x20\n  add\n  swap1\n  tag_6\n  swap3\n  swap2\n  swap1\n  tag_7\n  jump\t// in\ntag_6:\n  pop\n    /* \"contracts/FirstContract.sol\":298:305  symbol_ */\n  dup1\n    /* \"contracts/FirstContract.sol\":288:295  _symbol */\n  0x01\n    /* \"contracts/FirstContract.sol\":288:305  _symbol = symbol_ */\n  swap1\n  dup1\n  mload\n  swap1\n  0x20\n  add\n  swap1\n  tag_8\n  swap3\n  swap2\n  swap1\n  tag_7\n  jump\t// in\ntag_8:\n  pop\n    /* \"contracts/FirstContract.sol\":197:313  constructor(string memory name_, string memory symbol_) {... */\n  pop\n  pop\n    /* \"contracts/FirstContract.sol\":74:1713  contract SmartContract... */\n  jump(tag_9)\ntag_7:\n  dup3\n  dup1\n  sload\n  tag_10\n  swap1\n  tag_11\n  jump\t// in\ntag_10:\n  swap1\n  0x00\n  mstore\n  keccak256(0x00, 0x20)\n  swap1\n  0x1f\n  add\n  0x20\n  swap1\n  div\n  dup2\n  add\n  swap3\n  dup3\n  tag_13\n  jumpi\n  0x00\n  dup6\n  sstore\n  jump(tag_12)\ntag_13:\n  dup3\n  0x1f\n  lt\n  tag_14\n  jumpi\n  dup1\n  mload\n  not(0xff)\n  and\n  dup4\n  dup1\n  add\n  or\n  dup6\n  sstore\n  jump(tag_12)\ntag_14:\n  dup3\n  dup1\n  add\n  0x01\n  add\n  dup6\n  sstore\n  dup3\n  iszero\n  tag_12\n  jumpi\n  swap2\n  dup3\n  add\ntag_15:\n  dup3\n  dup2\n  gt\n  iszero\n  tag_16\n  jumpi\n  dup3\n  mload\n  dup3\n  sstore\n  swap2\n  0x20\n  add\n  swap2\n  swap1\n  0x01\n  add\n  swap1\n  jump(tag_15)\ntag_16:\ntag_12:\n  pop\n  swap1\n  pop\n  tag_17\n  swap2\n  swap1\n  tag_18\n  jump\t// in\ntag_17:\n  pop\n  swap1\n  jump\t// out\ntag_18:\ntag_19:\n  dup1\n  dup3\n  gt\n  iszero\n  tag_20\n  jumpi\n  0x00\n  dup2\n  0x00\n  swap1\n  sstore\n  pop\n  0x01\n  add\n  jump(tag_19)\ntag_20:\n  pop\n  swap1\n  jump\t// out\n    /* \"#utility.yul\":7:82   */\ntag_21:\n    /* \"#utility.yul\":40:46   */\n  0x00\n    /* \"#utility.yul\":73:75   */\n  0x40\n    /* \"#utility.yul\":67:76   */\n  mload\n    /* \"#utility.yul\":57:76   */\n  swap1\n  pop\n    /* \"#utility.yul\":7:82   */\n  swap1\n  jump\t// out\n    /* \"#utility.yul\":88:205   */\ntag_22:\n    /* \"#utility.yul\":197:198   */\n  0x00\n    /* \"#utility.yul\":194:195   */\n  dup1\n    /* \"#utility.yul\":187:199   */\n  revert\n    /* \"#utility.yul\":211:328   */\ntag_23:\n    /* \"#utility.yul\":320:321   */\n  0x00\n    /* \"#utility.yul\":317:318   */\n  dup1\n    /* \"#utility.yul\":310:322   */\n  revert\n    /* \"#utility.yul\":334:451   */\ntag_24:\n    /* \"#utility.yul\":443:444   */\n  0x00\n    /* \"#utility.yul\":440:441   */\n  dup1\n    /* \"#utility.yul\":433:445   */\n  revert\n    /* \"#utility.yul\":457:574   */\ntag_25:\n    /* \"#utility.yul\":566:567   */\n  0x00\n    /* \"#utility.yul\":563:564   */\n  dup1\n    /* \"#utility.yul\":556:568   */\n  revert\n    /* \"#utility.yul\":580:682   */\ntag_26:\n    /* \"#utility.yul\":621:627   */\n  0x00\n    /* \"#utility.yul\":672:674   */\n  0x1f\n    /* \"#utility.yul\":668:675   */\n  not\n    /* \"#utility.yul\":663:665   */\n  0x1f\n    /* \"#utility.yul\":656:661   */\n  dup4\n    /* \"#utility.yul\":652:666   */\n  add\n    /* \"#utility.yul\":648:676   */\n  and\n    /* \"#utility.yul\":638:676   */\n  swap1\n  pop\n    /* \"#utility.yul\":580:682   */\n  swap2\n  swap1\n  pop\n  jump\t// out\n    /* \"#utility.yul\":688:868   */\ntag_27:\n    /* \"#utility.yul\":736:813   */\n  0x4e487b7100000000000000000000000000000000000000000000000000000000\n    /* \"#utility.yul\":733:734   */\n  0x00\n    /* \"#utility.yul\":726:814   */\n  mstore\n    /* \"#utility.yul\":833:837   */\n  0x41\n    /* \"#utility.yul\":830:831   */\n  0x04\n    /* \"#utility.yul\":823:838   */\n  mstore\n    /* \"#utility.yul\":857:861   */\n  0x24\n    /* \"#utility.yul\":854:855   */\n  0x00\n    /* \"#utility.yul\":847:862   */\n  revert\n    /* \"#utility.yul\":874:1155   */\ntag_28:\n    /* \"#utility.yul\":957:984   */\n  tag_44\n    /* \"#utility.yul\":979:983   */\n  dup3\n    /* \"#utility.yul\":957:984   */\n  tag_26\n  jump\t// in\ntag_44:\n    /* \"#utility.yul\":949:955   */\n  dup2\n    /* \"#utility.yul\":945:985   */\n  add\n    /* \"#utility.yul\":1087:1093   */\n  dup2\n    /* \"#utility.yul\":1075:1085   */\n  dup2\n    /* \"#utility.yul\":1072:1094   */\n  lt\n    /* \"#utility.yul\":1051:1069   */\n  0xffffffffffffffff\n    /* \"#utility.yul\":1039:1049   */\n  dup3\n    /* \"#utility.yul\":1036:1070   */\n  gt\n    /* \"#utility.yul\":1033:1095   */\n  or\n    /* \"#utility.yul\":1030:1118   */\n  iszero\n  tag_45\n  jumpi\n    /* \"#utility.yul\":1098:1116   */\n  tag_46\n  tag_27\n  jump\t// in\ntag_46:\n    /* \"#utility.yul\":1030:1118   */\ntag_45:\n    /* \"#utility.yul\":1138:1148   */\n  dup1\n    /* \"#utility.yul\":1134:1136   */\n  0x40\n    /* \"#utility.yul\":1127:1149   */\n  mstore\n    /* \"#utility.yul\":917:1155   */\n  pop\n    /* \"#utility.yul\":874:1155   */\n  pop\n  pop\n  jump\t// out\n    /* \"#utility.yul\":1161:1290   */\ntag_29:\n    /* \"#utility.yul\":1195:1201   */\n  0x00\n    /* \"#utility.yul\":1222:1242   */\n  tag_48\n  tag_21\n  jump\t// in\ntag_48:\n    /* \"#utility.yul\":1212:1242   */\n  swap1\n  pop\n    /* \"#utility.yul\":1251:1284   */\n  tag_49\n    /* \"#utility.yul\":1279:1283   */\n  dup3\n    /* \"#utility.yul\":1271:1277   */\n  dup3\n    /* \"#utility.yul\":1251:1284   */\n  tag_28\n  jump\t// in\ntag_49:\n    /* \"#utility.yul\":1161:1290   */\n  swap2\n  swap1\n  pop\n  jump\t// out\n    /* \"#utility.yul\":1296:1604   */\ntag_30:\n    /* \"#utility.yul\":1358:1362   */\n  0x00\n    /* \"#utility.yul\":1448:1466   */\n  0xffffffffffffffff\n    /* \"#utility.yul\":1440:1446   */\n  dup3\n    /* \"#utility.yul\":1437:1467   */\n  gt\n    /* \"#utility.yul\":1434:1490   */\n  iszero\n  tag_51\n  jumpi\n    /* \"#utility.yul\":1470:1488   */\n  tag_52\n  tag_27\n  jump\t// in\ntag_52:\n    /* \"#utility.yul\":1434:1490   */\ntag_51:\n    /* \"#utility.yul\":1508:1537   */\n  tag_53\n    /* \"#utility.yul\":1530:1536   */\n  dup3\n    /* \"#utility.yul\":1508:1537   */\n  tag_26\n  jump\t// in\ntag_53:\n    /* \"#utility.yul\":1500:1537   */\n  swap1\n  pop\n    /* \"#utility.yul\":1592:1596   */\n  0x20\n    /* \"#utility.yul\":1586:1590   */\n  dup2\n    /* \"#utility.yul\":1582:1597   */\n  add\n    /* \"#utility.yul\":1574:1597   */\n  swap1\n  pop\n    /* \"#utility.yul\":1296:1604   */\n  swap2\n  swap1\n  pop\n  jump\t// out\n    /* \"#utility.yul\":1610:1917   */\ntag_31:\n    /* \"#utility.yul\":1678:1679   */\n  0x00\n    /* \"#utility.yul\":1688:1801   */\ntag_55:\n    /* \"#utility.yul\":1702:1708   */\n  dup4\n    /* \"#utility.yul\":1699:1700   */\n  dup2\n    /* \"#utility.yul\":1696:1709   */\n  lt\n    /* \"#utility.yul\":1688:1801   */\n  iszero\n  tag_57\n  jumpi\n    /* \"#utility.yul\":1787:1788   */\n  dup1\n    /* \"#utility.yul\":1782:1785   */\n  dup3\n    /* \"#utility.yul\":1778:1789   */\n  add\n    /* \"#utility.yul\":1772:1790   */\n  mload\n    /* \"#utility.yul\":1768:1769   */\n  dup2\n    /* \"#utility.yul\":1763:1766   */\n  dup5\n    /* \"#utility.yul\":1759:1770   */\n  add\n    /* \"#utility.yul\":1752:1791   */\n  mstore\n    /* \"#utility.yul\":1724:1726   */\n  0x20\n    /* \"#utility.yul\":1721:1722   */\n  dup2\n    /* \"#utility.yul\":1717:1727   */\n  add\n    /* \"#utility.yul\":1712:1727   */\n  swap1\n  pop\n    /* \"#utility.yul\":1688:1801   */\n  jump(tag_55)\ntag_57:\n    /* \"#utility.yul\":1819:1825   */\n  dup4\n    /* \"#utility.yul\":1816:1817   */\n  dup2\n    /* \"#utility.yul\":1813:1826   */\n  gt\n    /* \"#utility.yul\":1810:1911   */\n  iszero\n  tag_58\n  jumpi\n    /* \"#utility.yul\":1899:1900   */\n  0x00\n    /* \"#utility.yul\":1890:1896   */\n  dup5\n    /* \"#utility.yul\":1885:1888   */\n  dup5\n    /* \"#utility.yul\":1881:1897   */\n  add\n    /* \"#utility.yul\":1874:1901   */\n  mstore\n    /* \"#utility.yul\":1810:1911   */\ntag_58:\n    /* \"#utility.yul\":1659:1917   */\n  pop\n    /* \"#utility.yul\":1610:1917   */\n  pop\n  pop\n  pop\n  jump\t// out\n    /* \"#utility.yul\":1923:2344   */\ntag_32:\n    /* \"#utility.yul\":2012:2017   */\n  0x00\n    /* \"#utility.yul\":2037:2103   */\n  tag_60\n    /* \"#utility.yul\":2053:2102   */\n  tag_61\n    /* \"#utility.yul\":2095:2101   */\n  dup5\n    /* \"#utility.yul\":2053:2102   */\n  tag_30\n  jump\t// in\ntag_61:\n    /* \"#utility.yul\":2037:2103   */\n  tag_29\n  jump\t// in\ntag_60:\n    /* \"#utility.yul\":2028:2103   */\n  swap1\n  pop\n    /* \"#utility.yul\":2126:2132   */\n  dup3\n    /* \"#utility.yul\":2119:2124   */\n  dup2\n    /* \"#utility.yul\":2112:2133   */\n  mstore\n    /* \"#utility.yul\":2164:2168   */\n  0x20\n    /* \"#utility.yul\":2157:2162   */\n  dup2\n    /* \"#utility.yul\":2153:2169   */\n  add\n    /* \"#utility.yul\":2202:2205   */\n  dup5\n    /* \"#utility.yul\":2193:2199   */\n  dup5\n    /* \"#utility.yul\":2188:2191   */\n  dup5\n    /* \"#utility.yul\":2184:2200   */\n  add\n    /* \"#utility.yul\":2181:2206   */\n  gt\n    /* \"#utility.yul\":2178:2290   */\n  iszero\n  tag_62\n  jumpi\n    /* \"#utility.yul\":2209:2288   */\n  tag_63\n  tag_25\n  jump\t// in\ntag_63:\n    /* \"#utility.yul\":2178:2290   */\ntag_62:\n    /* \"#utility.yul\":2299:2338   */\n  tag_64\n    /* \"#utility.yul\":2331:2337   */\n  dup5\n    /* \"#utility.yul\":2326:2329   */\n  dup3\n    /* \"#utility.yul\":2321:2324   */\n  dup6\n    /* \"#utility.yul\":2299:2338   */\n  tag_31\n  jump\t// in\ntag_64:\n    /* \"#utility.yul\":2018:2344   */\n  pop\n    /* \"#utility.yul\":1923:2344   */\n  swap4\n  swap3\n  pop\n  pop\n  pop\n  jump\t// out\n    /* \"#utility.yul\":2364:2719   */\ntag_33:\n    /* \"#utility.yul\":2431:2436   */\n  0x00\n    /* \"#utility.yul\":2480:2483   */\n  dup3\n    /* \"#utility.yul\":2473:2477   */\n  0x1f\n    /* \"#utility.yul\":2465:2471   */\n  dup4\n    /* \"#utility.yul\":2461:2478   */\n  add\n    /* \"#utility.yul\":2457:2484   */\n  slt\n    /* \"#utility.yul\":2447:2569   */\n  tag_66\n  jumpi\n    /* \"#utility.yul\":2488:2567   */\n  tag_67\n  tag_24\n  jump\t// in\ntag_67:\n    /* \"#utility.yul\":2447:2569   */\ntag_66:\n    /* \"#utility.yul\":2598:2604   */\n  dup2\n    /* \"#utility.yul\":2592:2605   */\n  mload\n    /* \"#utility.yul\":2623:2713   */\n  tag_68\n    /* \"#utility.yul\":2709:2712   */\n  dup5\n    /* \"#utility.yul\":2701:2707   */\n  dup3\n    /* \"#utility.yul\":2694:2698   */\n  0x20\n    /* \"#utility.yul\":2686:2692   */\n  dup7\n    /* \"#utility.yul\":2682:2699   */\n  add\n    /* \"#utility.yul\":2623:2713   */\n  tag_32\n  jump\t// in\ntag_68:\n    /* \"#utility.yul\":2614:2713   */\n  swap2\n  pop\n    /* \"#utility.yul\":2437:2719   */\n  pop\n    /* \"#utility.yul\":2364:2719   */\n  swap3\n  swap2\n  pop\n  pop\n  jump\t// out\n    /* \"#utility.yul\":2725:3578   */\ntag_3:\n    /* \"#utility.yul\":2824:2830   */\n  0x00\n    /* \"#utility.yul\":2832:2838   */\n  dup1\n    /* \"#utility.yul\":2881:2883   */\n  0x40\n    /* \"#utility.yul\":2869:2878   */\n  dup4\n    /* \"#utility.yul\":2860:2867   */\n  dup6\n    /* \"#utility.yul\":2856:2879   */\n  sub\n    /* \"#utility.yul\":2852:2884   */\n  slt\n    /* \"#utility.yul\":2849:2968   */\n  iszero\n  tag_70\n  jumpi\n    /* \"#utility.yul\":2887:2966   */\n  tag_71\n  tag_22\n  jump\t// in\ntag_71:\n    /* \"#utility.yul\":2849:2968   */\ntag_70:\n    /* \"#utility.yul\":3028:3029   */\n  0x00\n    /* \"#utility.yul\":3017:3026   */\n  dup4\n    /* \"#utility.yul\":3013:3030   */\n  add\n    /* \"#utility.yul\":3007:3031   */\n  mload\n    /* \"#utility.yul\":3058:3076   */\n  0xffffffffffffffff\n    /* \"#utility.yul\":3050:3056   */\n  dup2\n    /* \"#utility.yul\":3047:3077   */\n  gt\n    /* \"#utility.yul\":3044:3161   */\n  iszero\n  tag_72\n  jumpi\n    /* \"#utility.yul\":3080:3159   */\n  tag_73\n  tag_23\n  jump\t// in\ntag_73:\n    /* \"#utility.yul\":3044:3161   */\ntag_72:\n    /* \"#utility.yul\":3185:3259   */\n  tag_74\n    /* \"#utility.yul\":3251:3258   */\n  dup6\n    /* \"#utility.yul\":3242:3248   */\n  dup3\n    /* \"#utility.yul\":3231:3240   */\n  dup7\n    /* \"#utility.yul\":3227:3249   */\n  add\n    /* \"#utility.yul\":3185:3259   */\n  tag_33\n  jump\t// in\ntag_74:\n    /* \"#utility.yul\":3175:3259   */\n  swap3\n  pop\n    /* \"#utility.yul\":2978:3269   */\n  pop\n    /* \"#utility.yul\":3329:3331   */\n  0x20\n    /* \"#utility.yul\":3318:3327   */\n  dup4\n    /* \"#utility.yul\":3314:3332   */\n  add\n    /* \"#utility.yul\":3308:3333   */\n  mload\n    /* \"#utility.yul\":3360:3378   */\n  0xffffffffffffffff\n    /* \"#utility.yul\":3352:3358   */\n  dup2\n    /* \"#utility.yul\":3349:3379   */\n  gt\n    /* \"#utility.yul\":3346:3463   */\n  iszero\n  tag_75\n  jumpi\n    /* \"#utility.yul\":3382:3461   */\n  tag_76\n  tag_23\n  jump\t// in\ntag_76:\n    /* \"#utility.yul\":3346:3463   */\ntag_75:\n    /* \"#utility.yul\":3487:3561   */\n  tag_77\n    /* \"#utility.yul\":3553:3560   */\n  dup6\n    /* \"#utility.yul\":3544:3550   */\n  dup3\n    /* \"#utility.yul\":3533:3542   */\n  dup7\n    /* \"#utility.yul\":3529:3551   */\n  add\n    /* \"#utility.yul\":3487:3561   */\n  tag_33\n  jump\t// in\ntag_77:\n    /* \"#utility.yul\":3477:3561   */\n  swap2\n  pop\n    /* \"#utility.yul\":3279:3571   */\n  pop\n    /* \"#utility.yul\":2725:3578   */\n  swap3\n  pop\n  swap3\n  swap1\n  pop\n  jump\t// out\n    /* \"#utility.yul\":3584:3764   */\ntag_34:\n    /* \"#utility.yul\":3632:3709   */\n  0x4e487b7100000000000000000000000000000000000000000000000000000000\n    /* \"#utility.yul\":3629:3630   */\n  0x00\n    /* \"#utility.yul\":3622:3710   */\n  mstore\n    /* \"#utility.yul\":3729:3733   */\n  0x22\n    /* \"#utility.yul\":3726:3727   */\n  0x04\n    /* \"#utility.yul\":3719:3734   */\n  mstore\n    /* \"#utility.yul\":3753:3757   */\n  0x24\n    /* \"#utility.yul\":3750:3751   */\n  0x00\n    /* \"#utility.yul\":3743:3758   */\n  revert\n    /* \"#utility.yul\":3770:4090   */\ntag_11:\n    /* \"#utility.yul\":3814:3820   */\n  0x00\n    /* \"#utility.yul\":3851:3852   */\n  0x02\n    /* \"#utility.yul\":3845:3849   */\n  dup3\n    /* \"#utility.yul\":3841:3853   */\n  div\n    /* \"#utility.yul\":3831:3853   */\n  swap1\n  pop\n    /* \"#utility.yul\":3898:3899   */\n  0x01\n    /* \"#utility.yul\":3892:3896   */\n  dup3\n    /* \"#utility.yul\":3888:3900   */\n  and\n    /* \"#utility.yul\":3919:3937   */\n  dup1\n    /* \"#utility.yul\":3909:3990   */\n  tag_80\n  jumpi\n    /* \"#utility.yul\":3975:3979   */\n  0x7f\n    /* \"#utility.yul\":3967:3973   */\n  dup3\n    /* \"#utility.yul\":3963:3980   */\n  and\n    /* \"#utility.yul\":3953:3980   */\n  swap2\n  pop\n    /* \"#utility.yul\":3909:3990   */\ntag_80:\n    /* \"#utility.yul\":4037:4039   */\n  0x20\n    /* \"#utility.yul\":4029:4035   */\n  dup3\n    /* \"#utility.yul\":4026:4040   */\n  lt\n    /* \"#utility.yul\":4006:4024   */\n  dup2\n    /* \"#utility.yul\":4003:4041   */\n  eq\n    /* \"#utility.yul\":4000:4084   */\n  iszero\n  tag_81\n  jumpi\n    /* \"#utility.yul\":4056:4074   */\n  tag_82\n  tag_34\n  jump\t// in\ntag_82:\n    /* \"#utility.yul\":4000:4084   */\ntag_81:\n    /* \"#utility.yul\":3821:4090   */\n  pop\n    /* \"#utility.yul\":3770:4090   */\n  swap2\n  swap1\n  pop\n  jump\t// out\n    /* \"contracts/FirstContract.sol\":74:1713  contract SmartContract... */\ntag_9:\n  dataSize(sub_0)\n  dup1\n  dataOffset(sub_0)\n  0x00\n  codecopy\n  0x00\n  return\nstop\n\nsub_0: assembly {\n        /* \"contracts/FirstContract.sol\":74:1713  contract SmartContract... */\n      mstore(0x40, 0x80)\n      callvalue\n      dup1\n      iszero\n      tag_1\n      jumpi\n      0x00\n      dup1\n      revert\n    tag_1:\n      pop\n      jumpi(tag_2, lt(calldatasize, 0x04))\n      shr(0xe0, calldataload(0x00))\n      dup1\n      0x40c10f19\n      gt\n      tag_14\n      jumpi\n      dup1\n      0x40c10f19\n      eq\n      tag_8\n      jumpi\n      dup1\n      0x55b6ed5c\n      eq\n      tag_9\n      jumpi\n      dup1\n      0x5f515226\n      eq\n      tag_10\n      jumpi\n      dup1\n      0x8b099b23\n      eq\n      tag_11\n      jumpi\n      dup1\n      0x95d89b41\n      eq\n      tag_12\n      jumpi\n      dup1\n      0xa9059cbb\n      eq\n      tag_13\n      jumpi\n      jump(tag_2)\n    tag_14:\n      dup1\n      0x06fdde03\n      eq\n      tag_3\n      jumpi\n      dup1\n      0x095ea7b3\n      eq\n      tag_4\n      jumpi\n      dup1\n      0x23b872dd\n      eq\n      tag_5\n      jumpi\n      dup1\n      0x27e235e3\n      eq\n      tag_6\n      jumpi\n      dup1\n      0x313ce567\n      eq\n      tag_7\n      jumpi\n    tag_2:\n      0x00\n      dup1\n      revert\n        /* \"contracts/FirstContract.sol\":321:404  function name() public view returns (string memory) {... */\n    tag_3:\n      tag_15\n      tag_16\n      jump\t// in\n    tag_15:\n      mload(0x40)\n      tag_17\n      swap2\n      swap1\n      tag_18\n      jump\t// in\n    tag_17:\n      mload(0x40)\n      dup1\n      swap2\n      sub\n      swap1\n      return\n        /* \"contracts/FirstContract.sol\":987:1096  function approve(address to, uint amount) public... */\n    tag_4:\n      tag_19\n      0x04\n      dup1\n      calldatasize\n      sub\n      dup2\n      add\n      swap1\n      tag_20\n      swap2\n      swap1\n      tag_21\n      jump\t// in\n    tag_20:\n      tag_22\n      jump\t// in\n    tag_19:\n      stop\n        /* \"contracts/FirstContract.sol\":1362:1710  function transferFrom(address from, address to, uint amount) public... */\n    tag_5:\n      tag_23\n      0x04\n      dup1\n      calldatasize\n      sub\n      dup2\n      add\n      swap1\n      tag_24\n      swap2\n      swap1\n      tag_25\n      jump\t// in\n    tag_24:\n      tag_26\n      jump\t// in\n    tag_23:\n      stop\n        /* \"contracts/FirstContract.sol\":147:188  mapping (address => uint) public balances */\n    tag_6:\n      tag_27\n      0x04\n      dup1\n      calldatasize\n      sub\n      dup2\n      add\n      swap1\n      tag_28\n      swap2\n      swap1\n      tag_29\n      jump\t// in\n    tag_28:\n      tag_30\n      jump\t// in\n    tag_27:\n      mload(0x40)\n      tag_31\n      swap2\n      swap1\n      tag_32\n      jump\t// in\n    tag_31:\n      mload(0x40)\n      dup1\n      swap2\n      sub\n      swap1\n      return\n        /* \"contracts/FirstContract.sol\":412:488  function decimals() public pure returns (uint8) {... */\n    tag_7:\n      tag_33\n      tag_34\n      jump\t// in\n    tag_33:\n      mload(0x40)\n      tag_35\n      swap2\n      swap1\n      tag_36\n      jump\t// in\n    tag_35:\n      mload(0x40)\n      dup1\n      swap2\n      sub\n      swap1\n      return\n        /* \"contracts/FirstContract.sol\":595:687  function mint(address to, uint amount) public... */\n    tag_8:\n      tag_37\n      0x04\n      dup1\n      calldatasize\n      sub\n      dup2\n      add\n      swap1\n      tag_38\n      swap2\n      swap1\n      tag_21\n      jump\t// in\n    tag_38:\n      tag_39\n      jump\t// in\n    tag_37:\n      stop\n        /* \"contracts/FirstContract.sol\":914:978  mapping (address => mapping (address => uint)) public allowances */\n    tag_9:\n      tag_40\n      0x04\n      dup1\n      calldatasize\n      sub\n      dup2\n      add\n      swap1\n      tag_41\n      swap2\n      swap1\n      tag_42\n      jump\t// in\n    tag_41:\n      tag_43\n      jump\t// in\n    tag_40:\n      mload(0x40)\n      tag_44\n      swap2\n      swap1\n      tag_32\n      jump\t// in\n    tag_44:\n      mload(0x40)\n      dup1\n      swap2\n      sub\n      swap1\n      return\n        /* \"contracts/FirstContract.sol\":1104:1206  function checkBalance(address a) public view returns (uint)... */\n    tag_10:\n      tag_45\n      0x04\n      dup1\n      calldatasize\n      sub\n      dup2\n      add\n      swap1\n      tag_46\n      swap2\n      swap1\n      tag_29\n      jump\t// in\n    tag_46:\n      tag_47\n      jump\t// in\n    tag_45:\n      mload(0x40)\n      tag_48\n      swap2\n      swap1\n      tag_32\n      jump\t// in\n    tag_48:\n      mload(0x40)\n      dup1\n      swap2\n      sub\n      swap1\n      return\n        /* \"contracts/FirstContract.sol\":1214:1354  function checkAllowance(address owner, address spender) public view returns (uint)... */\n    tag_11:\n      tag_49\n      0x04\n      dup1\n      calldatasize\n      sub\n      dup2\n      add\n      swap1\n      tag_50\n      swap2\n      swap1\n      tag_42\n      jump\t// in\n    tag_50:\n      tag_51\n      jump\t// in\n    tag_49:\n      mload(0x40)\n      tag_52\n      swap2\n      swap1\n      tag_32\n      jump\t// in\n    tag_52:\n      mload(0x40)\n      dup1\n      swap2\n      sub\n      swap1\n      return\n        /* \"contracts/FirstContract.sol\":496:583  function symbol() public view returns (string memory) {... */\n    tag_12:\n      tag_53\n      tag_54\n      jump\t// in\n    tag_53:\n      mload(0x40)\n      tag_55\n      swap2\n      swap1\n      tag_18\n      jump\t// in\n    tag_55:\n      mload(0x40)\n      dup1\n      swap2\n      sub\n      swap1\n      return\n        /* \"contracts/FirstContract.sol\":696:906  function transfer(address to, uint amount) public... */\n    tag_13:\n      tag_56\n      0x04\n      dup1\n      calldatasize\n      sub\n      dup2\n      add\n      swap1\n      tag_57\n      swap2\n      swap1\n      tag_21\n      jump\t// in\n    tag_57:\n      tag_58\n      jump\t// in\n    tag_56:\n      stop\n        /* \"contracts/FirstContract.sol\":321:404  function name() public view returns (string memory) {... */\n    tag_16:\n        /* \"contracts/FirstContract.sol\":358:371  string memory */\n      0x60\n        /* \"contracts/FirstContract.sol\":391:396  _name */\n      0x00\n        /* \"contracts/FirstContract.sol\":384:396  return _name */\n      dup1\n      sload\n      tag_60\n      swap1\n      tag_61\n      jump\t// in\n    tag_60:\n      dup1\n      0x1f\n      add\n      0x20\n      dup1\n      swap2\n      div\n      mul\n      0x20\n      add\n      mload(0x40)\n      swap1\n      dup2\n      add\n      0x40\n      mstore\n      dup1\n      swap3\n      swap2\n      swap1\n      dup2\n      dup2\n      mstore\n      0x20\n      add\n      dup3\n      dup1\n      sload\n      tag_62\n      swap1\n      tag_61\n      jump\t// in\n    tag_62:\n      dup1\n      iszero\n      tag_63\n      jumpi\n      dup1\n      0x1f\n      lt\n      tag_64\n      jumpi\n      0x0100\n      dup1\n      dup4\n      sload\n      div\n      mul\n      dup4\n      mstore\n      swap2\n      0x20\n      add\n      swap2\n      jump(tag_63)\n    tag_64:\n      dup3\n      add\n      swap2\n      swap1\n      0x00\n      mstore\n      keccak256(0x00, 0x20)\n      swap1\n    tag_65:\n      dup2\n      sload\n      dup2\n      mstore\n      swap1\n      0x01\n      add\n      swap1\n      0x20\n      add\n      dup1\n      dup4\n      gt\n      tag_65\n      jumpi\n      dup3\n      swap1\n      sub\n      0x1f\n      and\n      dup3\n      add\n      swap2\n    tag_63:\n      pop\n      pop\n      pop\n      pop\n      pop\n      swap1\n      pop\n        /* \"contracts/FirstContract.sol\":321:404  function name() public view returns (string memory) {... */\n      swap1\n      jump\t// out\n        /* \"contracts/FirstContract.sol\":987:1096  function approve(address to, uint amount) public... */\n    tag_22:\n        /* \"contracts/FirstContract.sol\":1082:1088  amount */\n      dup1\n        /* \"contracts/FirstContract.sol\":1052:1062  allowances */\n      0x03\n        /* \"contracts/FirstContract.sol\":1052:1074  allowances[msg.sender] */\n      0x00\n        /* \"contracts/FirstContract.sol\":1063:1073  msg.sender */\n      caller\n        /* \"contracts/FirstContract.sol\":1052:1074  allowances[msg.sender] */\n      0xffffffffffffffffffffffffffffffffffffffff\n      and\n      0xffffffffffffffffffffffffffffffffffffffff\n      and\n      dup2\n      mstore\n      0x20\n      add\n      swap1\n      dup2\n      mstore\n      0x20\n      add\n      0x00\n      keccak256\n        /* \"contracts/FirstContract.sol\":1052:1078  allowances[msg.sender][to] */\n      0x00\n        /* \"contracts/FirstContract.sol\":1075:1077  to */\n      dup5\n        /* \"contracts/FirstContract.sol\":1052:1078  allowances[msg.sender][to] */\n      0xffffffffffffffffffffffffffffffffffffffff\n      and\n      0xffffffffffffffffffffffffffffffffffffffff\n      and\n      dup2\n      mstore\n      0x20\n      add\n      swap1\n      dup2\n      mstore\n      0x20\n      add\n      0x00\n      keccak256\n      0x00\n        /* \"contracts/FirstContract.sol\":1052:1088  allowances[msg.sender][to] += amount */\n      dup3\n      dup3\n      sload\n      tag_67\n      swap2\n      swap1\n      tag_68\n      jump\t// in\n    tag_67:\n      swap3\n      pop\n      pop\n      dup2\n      swap1\n      sstore\n      pop\n        /* \"contracts/FirstContract.sol\":987:1096  function approve(address to, uint amount) public... */\n      pop\n      pop\n      jump\t// out\n        /* \"contracts/FirstContract.sol\":1362:1710  function transferFrom(address from, address to, uint amount) public... */\n    tag_26:\n        /* \"contracts/FirstContract.sol\":1487:1493  amount */\n      dup1\n        /* \"contracts/FirstContract.sol\":1455:1465  allowances */\n      0x03\n        /* \"contracts/FirstContract.sol\":1455:1471  allowances[from] */\n      0x00\n        /* \"contracts/FirstContract.sol\":1466:1470  from */\n      dup6\n        /* \"contracts/FirstContract.sol\":1455:1471  allowances[from] */\n      0xffffffffffffffffffffffffffffffffffffffff\n      and\n      0xffffffffffffffffffffffffffffffffffffffff\n      and\n      dup2\n      mstore\n      0x20\n      add\n      swap1\n      dup2\n      mstore\n      0x20\n      add\n      0x00\n      keccak256\n        /* \"contracts/FirstContract.sol\":1455:1483  allowances[from][msg.sender] */\n      0x00\n        /* \"contracts/FirstContract.sol\":1472:1482  msg.sender */\n      caller\n        /* \"contracts/FirstContract.sol\":1455:1483  allowances[from][msg.sender] */\n      0xffffffffffffffffffffffffffffffffffffffff\n      and\n      0xffffffffffffffffffffffffffffffffffffffff\n      and\n      dup2\n      mstore\n      0x20\n      add\n      swap1\n      dup2\n      mstore\n      0x20\n      add\n      0x00\n      keccak256\n      sload\n        /* \"contracts/FirstContract.sol\":1455:1493  allowances[from][msg.sender] >= amount */\n      lt\n      iszero\n        /* \"contracts/FirstContract.sol\":1446:1518  require (allowances[from][msg.sender] >= amount, \"not enough allowance\") */\n      tag_70\n      jumpi\n      mload(0x40)\n      0x08c379a000000000000000000000000000000000000000000000000000000000\n      dup2\n      mstore\n      0x04\n      add\n      tag_71\n      swap1\n      tag_72\n      jump\t// in\n    tag_71:\n      mload(0x40)\n      dup1\n      swap2\n      sub\n      swap1\n      revert\n    tag_70:\n        /* \"contracts/FirstContract.sol\":1556:1562  amount */\n      dup1\n        /* \"contracts/FirstContract.sol\":1538:1546  balances */\n      0x02\n        /* \"contracts/FirstContract.sol\":1538:1552  balances[from] */\n      0x00\n        /* \"contracts/FirstContract.sol\":1547:1551  from */\n      dup6\n        /* \"contracts/FirstContract.sol\":1538:1552  balances[from] */\n      0xffffffffffffffffffffffffffffffffffffffff\n      and\n      0xffffffffffffffffffffffffffffffffffffffff\n      and\n      dup2\n      mstore\n      0x20\n      add\n      swap1\n      dup2\n      mstore\n      0x20\n      add\n      0x00\n      keccak256\n      sload\n        /* \"contracts/FirstContract.sol\":1538:1562  balances[from] >= amount */\n      lt\n      iszero\n        /* \"contracts/FirstContract.sol\":1529:1585  require (balances[from] >= amount, \"not enough balance\") */\n      tag_73\n      jumpi\n      mload(0x40)\n      0x08c379a000000000000000000000000000000000000000000000000000000000\n      dup2\n      mstore\n      0x04\n      add\n      tag_74\n      swap1\n      tag_75\n      jump\t// in\n    tag_74:\n      mload(0x40)\n      dup1\n      swap2\n      sub\n      swap1\n      revert\n    tag_73:\n        /* \"contracts/FirstContract.sol\":1614:1620  amount */\n      dup1\n        /* \"contracts/FirstContract.sol\":1596:1604  balances */\n      0x02\n        /* \"contracts/FirstContract.sol\":1596:1610  balances[from] */\n      0x00\n        /* \"contracts/FirstContract.sol\":1605:1609  from */\n      dup6\n        /* \"contracts/FirstContract.sol\":1596:1610  balances[from] */\n      0xffffffffffffffffffffffffffffffffffffffff\n      and\n      0xffffffffffffffffffffffffffffffffffffffff\n      and\n      dup2\n      mstore\n      0x20\n      add\n      swap1\n      dup2\n      mstore\n      0x20\n      add\n      0x00\n      keccak256\n      0x00\n        /* \"contracts/FirstContract.sol\":1596:1620  balances[from] -= amount */\n      dup3\n      dup3\n      sload\n      tag_76\n      swap2\n      swap1\n      tag_77\n      jump\t// in\n    tag_76:\n      swap3\n      pop\n      pop\n      dup2\n      swap1\n      sstore\n      pop\n        /* \"contracts/FirstContract.sol\":1647:1653  amount */\n      dup1\n        /* \"contracts/FirstContract.sol\":1631:1639  balances */\n      0x02\n        /* \"contracts/FirstContract.sol\":1631:1643  balances[to] */\n      0x00\n        /* \"contracts/FirstContract.sol\":1640:1642  to */\n      dup5\n        /* \"contracts/FirstContract.sol\":1631:1643  balances[to] */\n      0xffffffffffffffffffffffffffffffffffffffff\n      and\n      0xffffffffffffffffffffffffffffffffffffffff\n      and\n      dup2\n      mstore\n      0x20\n      add\n      swap1\n      dup2\n      mstore\n      0x20\n      add\n      0x00\n      keccak256\n      0x00\n        /* \"contracts/FirstContract.sol\":1631:1653  balances[to] += amount */\n      dup3\n      dup3\n      sload\n      tag_78\n      swap2\n      swap1\n      tag_68\n      jump\t// in\n    tag_78:\n      swap3\n      pop\n      pop\n      dup2\n      swap1\n      sstore\n      pop\n        /* \"contracts/FirstContract.sol\":1696:1702  amount */\n      dup1\n        /* \"contracts/FirstContract.sol\":1664:1674  allowances */\n      0x03\n        /* \"contracts/FirstContract.sol\":1664:1680  allowances[from] */\n      0x00\n        /* \"contracts/FirstContract.sol\":1675:1679  from */\n      dup6\n        /* \"contracts/FirstContract.sol\":1664:1680  allowances[from] */\n      0xffffffffffffffffffffffffffffffffffffffff\n      and\n      0xffffffffffffffffffffffffffffffffffffffff\n      and\n      dup2\n      mstore\n      0x20\n      add\n      swap1\n      dup2\n      mstore\n      0x20\n      add\n      0x00\n      keccak256\n        /* \"contracts/FirstContract.sol\":1664:1692  allowances[from][msg.sender] */\n      0x00\n        /* \"contracts/FirstContract.sol\":1681:1691  msg.sender */\n      caller\n        /* \"contracts/FirstContract.sol\":1664:1692  allowances[from][msg.sender] */\n      0xffffffffffffffffffffffffffffffffffffffff\n      and\n      0xffffffffffffffffffffffffffffffffffffffff\n      and\n      dup2\n      mstore\n      0x20\n      add\n      swap1\n      dup2\n      mstore\n      0x20\n      add\n      0x00\n      keccak256\n      0x00\n        /* \"contracts/FirstContract.sol\":1664:1702  allowances[from][msg.sender] -= amount */\n      dup3\n      dup3\n      sload\n      tag_79\n      swap2\n      swap1\n      tag_77\n      jump\t// in\n    tag_79:\n      swap3\n      pop\n      pop\n      dup2\n      swap1\n      sstore\n      pop\n        /* \"contracts/FirstContract.sol\":1362:1710  function transferFrom(address from, address to, uint amount) public... */\n      pop\n      pop\n      pop\n      jump\t// out\n        /* \"contracts/FirstContract.sol\":147:188  mapping (address => uint) public balances */\n    tag_30:\n      mstore(0x20, 0x02)\n      dup1\n      0x00\n      mstore\n      keccak256(0x00, 0x40)\n      0x00\n      swap2\n      pop\n      swap1\n      pop\n      sload\n      dup2\n      jump\t// out\n        /* \"contracts/FirstContract.sol\":412:488  function decimals() public pure returns (uint8) {... */\n    tag_34:\n        /* \"contracts/FirstContract.sol\":453:458  uint8 */\n      0x00\n        /* \"contracts/FirstContract.sol\":478:480  18 */\n      0x12\n        /* \"contracts/FirstContract.sol\":471:480  return 18 */\n      swap1\n      pop\n        /* \"contracts/FirstContract.sol\":412:488  function decimals() public pure returns (uint8) {... */\n      swap1\n      jump\t// out\n        /* \"contracts/FirstContract.sol\":595:687  function mint(address to, uint amount) public... */\n    tag_39:\n        /* \"contracts/FirstContract.sol\":673:679  amount */\n      dup1\n        /* \"contracts/FirstContract.sol\":657:665  balances */\n      0x02\n        /* \"contracts/FirstContract.sol\":657:669  balances[to] */\n      0x00\n        /* \"contracts/FirstContract.sol\":666:668  to */\n      dup5\n        /* \"contracts/FirstContract.sol\":657:669  balances[to] */\n      0xffffffffffffffffffffffffffffffffffffffff\n      and\n      0xffffffffffffffffffffffffffffffffffffffff\n      and\n      dup2\n      mstore\n      0x20\n      add\n      swap1\n      dup2\n      mstore\n      0x20\n      add\n      0x00\n      keccak256\n      0x00\n        /* \"contracts/FirstContract.sol\":657:679  balances[to] += amount */\n      dup3\n      dup3\n      sload\n      tag_82\n      swap2\n      swap1\n      tag_68\n      jump\t// in\n    tag_82:\n      swap3\n      pop\n      pop\n      dup2\n      swap1\n      sstore\n      pop\n        /* \"contracts/FirstContract.sol\":595:687  function mint(address to, uint amount) public... */\n      pop\n      pop\n      jump\t// out\n        /* \"contracts/FirstContract.sol\":914:978  mapping (address => mapping (address => uint)) public allowances */\n    tag_43:\n      mstore(0x20, 0x03)\n      dup2\n      0x00\n      mstore\n      mstore(0x20, keccak256(0x00, 0x40))\n      dup1\n      0x00\n      mstore\n      keccak256(0x00, 0x40)\n      0x00\n      swap2\n      pop\n      swap2\n      pop\n      pop\n      sload\n      dup2\n      jump\t// out\n        /* \"contracts/FirstContract.sol\":1104:1206  function checkBalance(address a) public view returns (uint)... */\n    tag_47:\n        /* \"contracts/FirstContract.sol\":1158:1162  uint */\n      0x00\n        /* \"contracts/FirstContract.sol\":1187:1195  balances */\n      0x02\n        /* \"contracts/FirstContract.sol\":1187:1198  balances[a] */\n      0x00\n        /* \"contracts/FirstContract.sol\":1196:1197  a */\n      dup4\n        /* \"contracts/FirstContract.sol\":1187:1198  balances[a] */\n      0xffffffffffffffffffffffffffffffffffffffff\n      and\n      0xffffffffffffffffffffffffffffffffffffffff\n      and\n      dup2\n      mstore\n      0x20\n      add\n      swap1\n      dup2\n      mstore\n      0x20\n      add\n      0x00\n      keccak256\n      sload\n        /* \"contracts/FirstContract.sol\":1180:1198  return balances[a] */\n      swap1\n      pop\n        /* \"contracts/FirstContract.sol\":1104:1206  function checkBalance(address a) public view returns (uint)... */\n      swap2\n      swap1\n      pop\n      jump\t// out\n        /* \"contracts/FirstContract.sol\":1214:1354  function checkAllowance(address owner, address spender) public view returns (uint)... */\n    tag_51:\n        /* \"contracts/FirstContract.sol\":1291:1295  uint */\n      0x00\n        /* \"contracts/FirstContract.sol\":1320:1330  allowances */\n      0x03\n        /* \"contracts/FirstContract.sol\":1320:1337  allowances[owner] */\n      0x00\n        /* \"contracts/FirstContract.sol\":1331:1336  owner */\n      dup5\n        /* \"contracts/FirstContract.sol\":1320:1337  allowances[owner] */\n      0xffffffffffffffffffffffffffffffffffffffff\n      and\n      0xffffffffffffffffffffffffffffffffffffffff\n      and\n      dup2\n      mstore\n      0x20\n      add\n      swap1\n      dup2\n      mstore\n      0x20\n      add\n      0x00\n      keccak256\n        /* \"contracts/FirstContract.sol\":1320:1346  allowances[owner][spender] */\n      0x00\n        /* \"contracts/FirstContract.sol\":1338:1345  spender */\n      dup4\n        /* \"contracts/FirstContract.sol\":1320:1346  allowances[owner][spender] */\n      0xffffffffffffffffffffffffffffffffffffffff\n      and\n      0xffffffffffffffffffffffffffffffffffffffff\n      and\n      dup2\n      mstore\n      0x20\n      add\n      swap1\n      dup2\n      mstore\n      0x20\n      add\n      0x00\n      keccak256\n      sload\n        /* \"contracts/FirstContract.sol\":1313:1346  return allowances[owner][spender] */\n      swap1\n      pop\n        /* \"contracts/FirstContract.sol\":1214:1354  function checkAllowance(address owner, address spender) public view returns (uint)... */\n      swap3\n      swap2\n      pop\n      pop\n      jump\t// out\n        /* \"contracts/FirstContract.sol\":496:583  function symbol() public view returns (string memory) {... */\n    tag_54:\n        /* \"contracts/FirstContract.sol\":535:548  string memory */\n      0x60\n        /* \"contracts/FirstContract.sol\":568:575  _symbol */\n      0x01\n        /* \"contracts/FirstContract.sol\":561:575  return _symbol */\n      dup1\n      sload\n      tag_86\n      swap1\n      tag_61\n      jump\t// in\n    tag_86:\n      dup1\n      0x1f\n      add\n      0x20\n      dup1\n      swap2\n      div\n      mul\n      0x20\n      add\n      mload(0x40)\n      swap1\n      dup2\n      add\n      0x40\n      mstore\n      dup1\n      swap3\n      swap2\n      swap1\n      dup2\n      dup2\n      mstore\n      0x20\n      add\n      dup3\n      dup1\n      sload\n      tag_87\n      swap1\n      tag_61\n      jump\t// in\n    tag_87:\n      dup1\n      iszero\n      tag_88\n      jumpi\n      dup1\n      0x1f\n      lt\n      tag_89\n      jumpi\n      0x0100\n      dup1\n      dup4\n      sload\n      div\n      mul\n      dup4\n      mstore\n      swap2\n      0x20\n      add\n      swap2\n      jump(tag_88)\n    tag_89:\n      dup3\n      add\n      swap2\n      swap1\n      0x00\n      mstore\n      keccak256(0x00, 0x20)\n      swap1\n    tag_90:\n      dup2\n      sload\n      dup2\n      mstore\n      swap1\n      0x01\n      add\n      swap1\n      0x20\n      add\n      dup1\n      dup4\n      gt\n      tag_90\n      jumpi\n      dup3\n      swap1\n      sub\n      0x1f\n      and\n      dup3\n      add\n      swap2\n    tag_88:\n      pop\n      pop\n      pop\n      pop\n      pop\n      swap1\n      pop\n        /* \"contracts/FirstContract.sol\":496:583  function symbol() public view returns (string memory) {... */\n      swap1\n      jump\t// out\n        /* \"contracts/FirstContract.sol\":696:906  function transfer(address to, uint amount) public... */\n    tag_58:\n        /* \"contracts/FirstContract.sol\":795:801  amount */\n      dup1\n        /* \"contracts/FirstContract.sol\":771:779  balances */\n      0x02\n        /* \"contracts/FirstContract.sol\":771:791  balances[msg.sender] */\n      0x00\n        /* \"contracts/FirstContract.sol\":780:790  msg.sender */\n      caller\n        /* \"contracts/FirstContract.sol\":771:791  balances[msg.sender] */\n      0xffffffffffffffffffffffffffffffffffffffff\n      and\n      0xffffffffffffffffffffffffffffffffffffffff\n      and\n      dup2\n      mstore\n      0x20\n      add\n      swap1\n      dup2\n      mstore\n      0x20\n      add\n      0x00\n      keccak256\n      sload\n        /* \"contracts/FirstContract.sol\":771:801  balances[msg.sender] >= amount */\n      lt\n      iszero\n        /* \"contracts/FirstContract.sol\":762:824  require (balances[msg.sender] >= amount, \"not enough balance\") */\n      tag_92\n      jumpi\n      mload(0x40)\n      0x08c379a000000000000000000000000000000000000000000000000000000000\n      dup2\n      mstore\n      0x04\n      add\n      tag_93\n      swap1\n      tag_75\n      jump\t// in\n    tag_93:\n      mload(0x40)\n      dup1\n      swap2\n      sub\n      swap1\n      revert\n    tag_92:\n        /* \"contracts/FirstContract.sol\":859:865  amount */\n      dup1\n        /* \"contracts/FirstContract.sol\":835:843  balances */\n      0x02\n        /* \"contracts/FirstContract.sol\":835:855  balances[msg.sender] */\n      0x00\n        /* \"contracts/FirstContract.sol\":844:854  msg.sender */\n      caller\n        /* \"contracts/FirstContract.sol\":835:855  balances[msg.sender] */\n      0xffffffffffffffffffffffffffffffffffffffff\n      and\n      0xffffffffffffffffffffffffffffffffffffffff\n      and\n      dup2\n      mstore\n      0x20\n      add\n      swap1\n      dup2\n      mstore\n      0x20\n      add\n      0x00\n      keccak256\n      0x00\n        /* \"contracts/FirstContract.sol\":835:865  balances[msg.sender] -= amount */\n      dup3\n      dup3\n      sload\n      tag_94\n      swap2\n      swap1\n      tag_77\n      jump\t// in\n    tag_94:\n      swap3\n      pop\n      pop\n      dup2\n      swap1\n      sstore\n      pop\n        /* \"contracts/FirstContract.sol\":892:898  amount */\n      dup1\n        /* \"contracts/FirstContract.sol\":876:884  balances */\n      0x02\n        /* \"contracts/FirstContract.sol\":876:888  balances[to] */\n      0x00\n        /* \"contracts/FirstContract.sol\":885:887  to */\n      dup5\n        /* \"contracts/FirstContract.sol\":876:888  balances[to] */\n      0xffffffffffffffffffffffffffffffffffffffff\n      and\n      0xffffffffffffffffffffffffffffffffffffffff\n      and\n      dup2\n      mstore\n      0x20\n      add\n      swap1\n      dup2\n      mstore\n      0x20\n      add\n      0x00\n      keccak256\n      0x00\n        /* \"contracts/FirstContract.sol\":876:898  balances[to] += amount */\n      dup3\n      dup3\n      sload\n      tag_95\n      swap2\n      swap1\n      tag_68\n      jump\t// in\n    tag_95:\n      swap3\n      pop\n      pop\n      dup2\n      swap1\n      sstore\n      pop\n        /* \"contracts/FirstContract.sol\":696:906  function transfer(address to, uint amount) public... */\n      pop\n      pop\n      jump\t// out\n        /* \"#utility.yul\":7:106   */\n    tag_96:\n        /* \"#utility.yul\":59:65   */\n      0x00\n        /* \"#utility.yul\":93:98   */\n      dup2\n        /* \"#utility.yul\":87:99   */\n      mload\n        /* \"#utility.yul\":77:99   */\n      swap1\n      pop\n        /* \"#utility.yul\":7:106   */\n      swap2\n      swap1\n      pop\n      jump\t// out\n        /* \"#utility.yul\":112:281   */\n    tag_97:\n        /* \"#utility.yul\":196:207   */\n      0x00\n        /* \"#utility.yul\":230:236   */\n      dup3\n        /* \"#utility.yul\":225:228   */\n      dup3\n        /* \"#utility.yul\":218:237   */\n      mstore\n        /* \"#utility.yul\":270:274   */\n      0x20\n        /* \"#utility.yul\":265:268   */\n      dup3\n        /* \"#utility.yul\":261:275   */\n      add\n        /* \"#utility.yul\":246:275   */\n      swap1\n      pop\n        /* \"#utility.yul\":112:281   */\n      swap3\n      swap2\n      pop\n      pop\n      jump\t// out\n        /* \"#utility.yul\":287:594   */\n    tag_98:\n        /* \"#utility.yul\":355:356   */\n      0x00\n        /* \"#utility.yul\":365:478   */\n    tag_124:\n        /* \"#utility.yul\":379:385   */\n      dup4\n        /* \"#utility.yul\":376:377   */\n      dup2\n        /* \"#utility.yul\":373:386   */\n      lt\n        /* \"#utility.yul\":365:478   */\n      iszero\n      tag_126\n      jumpi\n        /* \"#utility.yul\":464:465   */\n      dup1\n        /* \"#utility.yul\":459:462   */\n      dup3\n        /* \"#utility.yul\":455:466   */\n      add\n        /* \"#utility.yul\":449:467   */\n      mload\n        /* \"#utility.yul\":445:446   */\n      dup2\n        /* \"#utility.yul\":440:443   */\n      dup5\n        /* \"#utility.yul\":436:447   */\n      add\n        /* \"#utility.yul\":429:468   */\n      mstore\n        /* \"#utility.yul\":401:403   */\n      0x20\n        /* \"#utility.yul\":398:399   */\n      dup2\n        /* \"#utility.yul\":394:404   */\n      add\n        /* \"#utility.yul\":389:404   */\n      swap1\n      pop\n        /* \"#utility.yul\":365:478   */\n      jump(tag_124)\n    tag_126:\n        /* \"#utility.yul\":496:502   */\n      dup4\n        /* \"#utility.yul\":493:494   */\n      dup2\n        /* \"#utility.yul\":490:503   */\n      gt\n        /* \"#utility.yul\":487:588   */\n      iszero\n      tag_127\n      jumpi\n        /* \"#utility.yul\":576:577   */\n      0x00\n        /* \"#utility.yul\":567:573   */\n      dup5\n        /* \"#utility.yul\":562:565   */\n      dup5\n        /* \"#utility.yul\":558:574   */\n      add\n        /* \"#utility.yul\":551:578   */\n      mstore\n        /* \"#utility.yul\":487:588   */\n    tag_127:\n        /* \"#utility.yul\":336:594   */\n      pop\n        /* \"#utility.yul\":287:594   */\n      pop\n      pop\n      pop\n      jump\t// out\n        /* \"#utility.yul\":600:702   */\n    tag_99:\n        /* \"#utility.yul\":641:647   */\n      0x00\n        /* \"#utility.yul\":692:694   */\n      0x1f\n        /* \"#utility.yul\":688:695   */\n      not\n        /* \"#utility.yul\":683:685   */\n      0x1f\n        /* \"#utility.yul\":676:681   */\n      dup4\n        /* \"#utility.yul\":672:686   */\n      add\n        /* \"#utility.yul\":668:696   */\n      and\n        /* \"#utility.yul\":658:696   */\n      swap1\n      pop\n        /* \"#utility.yul\":600:702   */\n      swap2\n      swap1\n      pop\n      jump\t// out\n        /* \"#utility.yul\":708:1072   */\n    tag_100:\n        /* \"#utility.yul\":796:799   */\n      0x00\n        /* \"#utility.yul\":824:863   */\n      tag_130\n        /* \"#utility.yul\":857:862   */\n      dup3\n        /* \"#utility.yul\":824:863   */\n      tag_96\n      jump\t// in\n    tag_130:\n        /* \"#utility.yul\":879:950   */\n      tag_131\n        /* \"#utility.yul\":943:949   */\n      dup2\n        /* \"#utility.yul\":938:941   */\n      dup6\n        /* \"#utility.yul\":879:950   */\n      tag_97\n      jump\t// in\n    tag_131:\n        /* \"#utility.yul\":872:950   */\n      swap4\n      pop\n        /* \"#utility.yul\":959:1011   */\n      tag_132\n        /* \"#utility.yul\":1004:1010   */\n      dup2\n        /* \"#utility.yul\":999:1002   */\n      dup6\n        /* \"#utility.yul\":992:996   */\n      0x20\n        /* \"#utility.yul\":985:990   */\n      dup7\n        /* \"#utility.yul\":981:997   */\n      add\n        /* \"#utility.yul\":959:1011   */\n      tag_98\n      jump\t// in\n    tag_132:\n        /* \"#utility.yul\":1036:1065   */\n      tag_133\n        /* \"#utility.yul\":1058:1064   */\n      dup2\n        /* \"#utility.yul\":1036:1065   */\n      tag_99\n      jump\t// in\n    tag_133:\n        /* \"#utility.yul\":1031:1034   */\n      dup5\n        /* \"#utility.yul\":1027:1066   */\n      add\n        /* \"#utility.yul\":1020:1066   */\n      swap2\n      pop\n        /* \"#utility.yul\":800:1072   */\n      pop\n        /* \"#utility.yul\":708:1072   */\n      swap3\n      swap2\n      pop\n      pop\n      jump\t// out\n        /* \"#utility.yul\":1078:1391   */\n    tag_18:\n        /* \"#utility.yul\":1191:1195   */\n      0x00\n        /* \"#utility.yul\":1229:1231   */\n      0x20\n        /* \"#utility.yul\":1218:1227   */\n      dup3\n        /* \"#utility.yul\":1214:1232   */\n      add\n        /* \"#utility.yul\":1206:1232   */\n      swap1\n      pop\n        /* \"#utility.yul\":1278:1287   */\n      dup2\n        /* \"#utility.yul\":1272:1276   */\n      dup2\n        /* \"#utility.yul\":1268:1288   */\n      sub\n        /* \"#utility.yul\":1264:1265   */\n      0x00\n        /* \"#utility.yul\":1253:1262   */\n      dup4\n        /* \"#utility.yul\":1249:1266   */\n      add\n        /* \"#utility.yul\":1242:1289   */\n      mstore\n        /* \"#utility.yul\":1306:1384   */\n      tag_135\n        /* \"#utility.yul\":1379:1383   */\n      dup2\n        /* \"#utility.yul\":1370:1376   */\n      dup5\n        /* \"#utility.yul\":1306:1384   */\n      tag_100\n      jump\t// in\n    tag_135:\n        /* \"#utility.yul\":1298:1384   */\n      swap1\n      pop\n        /* \"#utility.yul\":1078:1391   */\n      swap3\n      swap2\n      pop\n      pop\n      jump\t// out\n        /* \"#utility.yul\":1478:1595   */\n    tag_102:\n        /* \"#utility.yul\":1587:1588   */\n      0x00\n        /* \"#utility.yul\":1584:1585   */\n      dup1\n        /* \"#utility.yul\":1577:1589   */\n      revert\n        /* \"#utility.yul\":1724:1850   */\n    tag_104:\n        /* \"#utility.yul\":1761:1768   */\n      0x00\n        /* \"#utility.yul\":1801:1843   */\n      0xffffffffffffffffffffffffffffffffffffffff\n        /* \"#utility.yul\":1794:1799   */\n      dup3\n        /* \"#utility.yul\":1790:1844   */\n      and\n        /* \"#utility.yul\":1779:1844   */\n      swap1\n      pop\n        /* \"#utility.yul\":1724:1850   */\n      swap2\n      swap1\n      pop\n      jump\t// out\n        /* \"#utility.yul\":1856:1952   */\n    tag_105:\n        /* \"#utility.yul\":1893:1900   */\n      0x00\n        /* \"#utility.yul\":1922:1946   */\n      tag_141\n        /* \"#utility.yul\":1940:1945   */\n      dup3\n        /* \"#utility.yul\":1922:1946   */\n      tag_104\n      jump\t// in\n    tag_141:\n        /* \"#utility.yul\":1911:1946   */\n      swap1\n      pop\n        /* \"#utility.yul\":1856:1952   */\n      swap2\n      swap1\n      pop\n      jump\t// out\n        /* \"#utility.yul\":1958:2080   */\n    tag_106:\n        /* \"#utility.yul\":2031:2055   */\n      tag_143\n        /* \"#utility.yul\":2049:2054   */\n      dup2\n        /* \"#utility.yul\":2031:2055   */\n      tag_105\n      jump\t// in\n    tag_143:\n        /* \"#utility.yul\":2024:2029   */\n      dup2\n        /* \"#utility.yul\":2021:2056   */\n      eq\n        /* \"#utility.yul\":2011:2074   */\n      tag_144\n      jumpi\n        /* \"#utility.yul\":2070:2071   */\n      0x00\n        /* \"#utility.yul\":2067:2068   */\n      dup1\n        /* \"#utility.yul\":2060:2072   */\n      revert\n        /* \"#utility.yul\":2011:2074   */\n    tag_144:\n        /* \"#utility.yul\":1958:2080   */\n      pop\n      jump\t// out\n        /* \"#utility.yul\":2086:2225   */\n    tag_107:\n        /* \"#utility.yul\":2132:2137   */\n      0x00\n        /* \"#utility.yul\":2170:2176   */\n      dup2\n        /* \"#utility.yul\":2157:2177   */\n      calldataload\n        /* \"#utility.yul\":2148:2177   */\n      swap1\n      pop\n        /* \"#utility.yul\":2186:2219   */\n      tag_146\n        /* \"#utility.yul\":2213:2218   */\n      dup2\n        /* \"#utility.yul\":2186:2219   */\n      tag_106\n      jump\t// in\n    tag_146:\n        /* \"#utility.yul\":2086:2225   */\n      swap3\n      swap2\n      pop\n      pop\n      jump\t// out\n        /* \"#utility.yul\":2231:2308   */\n    tag_108:\n        /* \"#utility.yul\":2268:2275   */\n      0x00\n        /* \"#utility.yul\":2297:2302   */\n      dup2\n        /* \"#utility.yul\":2286:2302   */\n      swap1\n      pop\n        /* \"#utility.yul\":2231:2308   */\n      swap2\n      swap1\n      pop\n      jump\t// out\n        /* \"#utility.yul\":2314:2436   */\n    tag_109:\n        /* \"#utility.yul\":2387:2411   */\n      tag_149\n        /* \"#utility.yul\":2405:2410   */\n      dup2\n        /* \"#utility.yul\":2387:2411   */\n      tag_108\n      jump\t// in\n    tag_149:\n        /* \"#utility.yul\":2380:2385   */\n      dup2\n        /* \"#utility.yul\":2377:2412   */\n      eq\n        /* \"#utility.yul\":2367:2430   */\n      tag_150\n      jumpi\n        /* \"#utility.yul\":2426:2427   */\n      0x00\n        /* \"#utility.yul\":2423:2424   */\n      dup1\n        /* \"#utility.yul\":2416:2428   */\n      revert\n        /* \"#utility.yul\":2367:2430   */\n    tag_150:\n        /* \"#utility.yul\":2314:2436   */\n      pop\n      jump\t// out\n        /* \"#utility.yul\":2442:2581   */\n    tag_110:\n        /* \"#utility.yul\":2488:2493   */\n      0x00\n        /* \"#utility.yul\":2526:2532   */\n      dup2\n        /* \"#utility.yul\":2513:2533   */\n      calldataload\n        /* \"#utility.yul\":2504:2533   */\n      swap1\n      pop\n        /* \"#utility.yul\":2542:2575   */\n      tag_152\n        /* \"#utility.yul\":2569:2574   */\n      dup2\n        /* \"#utility.yul\":2542:2575   */\n      tag_109\n      jump\t// in\n    tag_152:\n        /* \"#utility.yul\":2442:2581   */\n      swap3\n      swap2\n      pop\n      pop\n      jump\t// out\n        /* \"#utility.yul\":2587:3061   */\n    tag_21:\n        /* \"#utility.yul\":2655:2661   */\n      0x00\n        /* \"#utility.yul\":2663:2669   */\n      dup1\n        /* \"#utility.yul\":2712:2714   */\n      0x40\n        /* \"#utility.yul\":2700:2709   */\n      dup4\n        /* \"#utility.yul\":2691:2698   */\n      dup6\n        /* \"#utility.yul\":2687:2710   */\n      sub\n        /* \"#utility.yul\":2683:2715   */\n      slt\n        /* \"#utility.yul\":2680:2799   */\n      iszero\n      tag_154\n      jumpi\n        /* \"#utility.yul\":2718:2797   */\n      tag_155\n      tag_102\n      jump\t// in\n    tag_155:\n        /* \"#utility.yul\":2680:2799   */\n    tag_154:\n        /* \"#utility.yul\":2838:2839   */\n      0x00\n        /* \"#utility.yul\":2863:2916   */\n      tag_156\n        /* \"#utility.yul\":2908:2915   */\n      dup6\n        /* \"#utility.yul\":2899:2905   */\n      dup3\n        /* \"#utility.yul\":2888:2897   */\n      dup7\n        /* \"#utility.yul\":2884:2906   */\n      add\n        /* \"#utility.yul\":2863:2916   */\n      tag_107\n      jump\t// in\n    tag_156:\n        /* \"#utility.yul\":2853:2916   */\n      swap3\n      pop\n        /* \"#utility.yul\":2809:2926   */\n      pop\n        /* \"#utility.yul\":2965:2967   */\n      0x20\n        /* \"#utility.yul\":2991:3044   */\n      tag_157\n        /* \"#utility.yul\":3036:3043   */\n      dup6\n        /* \"#utility.yul\":3027:3033   */\n      dup3\n        /* \"#utility.yul\":3016:3025   */\n      dup7\n        /* \"#utility.yul\":3012:3034   */\n      add\n        /* \"#utility.yul\":2991:3044   */\n      tag_110\n      jump\t// in\n    tag_157:\n        /* \"#utility.yul\":2981:3044   */\n      swap2\n      pop\n        /* \"#utility.yul\":2936:3054   */\n      pop\n        /* \"#utility.yul\":2587:3061   */\n      swap3\n      pop\n      swap3\n      swap1\n      pop\n      jump\t// out\n        /* \"#utility.yul\":3067:3686   */\n    tag_25:\n        /* \"#utility.yul\":3144:3150   */\n      0x00\n        /* \"#utility.yul\":3152:3158   */\n      dup1\n        /* \"#utility.yul\":3160:3166   */\n      0x00\n        /* \"#utility.yul\":3209:3211   */\n      0x60\n        /* \"#utility.yul\":3197:3206   */\n      dup5\n        /* \"#utility.yul\":3188:3195   */\n      dup7\n        /* \"#utility.yul\":3184:3207   */\n      sub\n        /* \"#utility.yul\":3180:3212   */\n      slt\n        /* \"#utility.yul\":3177:3296   */\n      iszero\n      tag_159\n      jumpi\n        /* \"#utility.yul\":3215:3294   */\n      tag_160\n      tag_102\n      jump\t// in\n    tag_160:\n        /* \"#utility.yul\":3177:3296   */\n    tag_159:\n        /* \"#utility.yul\":3335:3336   */\n      0x00\n        /* \"#utility.yul\":3360:3413   */\n      tag_161\n        /* \"#utility.yul\":3405:3412   */\n      dup7\n        /* \"#utility.yul\":3396:3402   */\n      dup3\n        /* \"#utility.yul\":3385:3394   */\n      dup8\n        /* \"#utility.yul\":3381:3403   */\n      add\n        /* \"#utility.yul\":3360:3413   */\n      tag_107\n      jump\t// in\n    tag_161:\n        /* \"#utility.yul\":3350:3413   */\n      swap4\n      pop\n        /* \"#utility.yul\":3306:3423   */\n      pop\n        /* \"#utility.yul\":3462:3464   */\n      0x20\n        /* \"#utility.yul\":3488:3541   */\n      tag_162\n        /* \"#utility.yul\":3533:3540   */\n      dup7\n        /* \"#utility.yul\":3524:3530   */\n      dup3\n        /* \"#utility.yul\":3513:3522   */\n      dup8\n        /* \"#utility.yul\":3509:3531   */\n      add\n        /* \"#utility.yul\":3488:3541   */\n      tag_107\n      jump\t// in\n    tag_162:\n        /* \"#utility.yul\":3478:3541   */\n      swap3\n      pop\n        /* \"#utility.yul\":3433:3551   */\n      pop\n        /* \"#utility.yul\":3590:3592   */\n      0x40\n        /* \"#utility.yul\":3616:3669   */\n      tag_163\n        /* \"#utility.yul\":3661:3668   */\n      dup7\n        /* \"#utility.yul\":3652:3658   */\n      dup3\n        /* \"#utility.yul\":3641:3650   */\n      dup8\n        /* \"#utility.yul\":3637:3659   */\n      add\n        /* \"#utility.yul\":3616:3669   */\n      tag_110\n      jump\t// in\n    tag_163:\n        /* \"#utility.yul\":3606:3669   */\n      swap2\n      pop\n        /* \"#utility.yul\":3561:3679   */\n      pop\n        /* \"#utility.yul\":3067:3686   */\n      swap3\n      pop\n      swap3\n      pop\n      swap3\n      jump\t// out\n        /* \"#utility.yul\":3692:4021   */\n    tag_29:\n        /* \"#utility.yul\":3751:3757   */\n      0x00\n        /* \"#utility.yul\":3800:3802   */\n      0x20\n        /* \"#utility.yul\":3788:3797   */\n      dup3\n        /* \"#utility.yul\":3779:3786   */\n      dup5\n        /* \"#utility.yul\":3775:3798   */\n      sub\n        /* \"#utility.yul\":3771:3803   */\n      slt\n        /* \"#utility.yul\":3768:3887   */\n      iszero\n      tag_165\n      jumpi\n        /* \"#utility.yul\":3806:3885   */\n      tag_166\n      tag_102\n      jump\t// in\n    tag_166:\n        /* \"#utility.yul\":3768:3887   */\n    tag_165:\n        /* \"#utility.yul\":3926:3927   */\n      0x00\n        /* \"#utility.yul\":3951:4004   */\n      tag_167\n        /* \"#utility.yul\":3996:4003   */\n      dup5\n        /* \"#utility.yul\":3987:3993   */\n      dup3\n        /* \"#utility.yul\":3976:3985   */\n      dup6\n        /* \"#utility.yul\":3972:3994   */\n      add\n        /* \"#utility.yul\":3951:4004   */\n      tag_107\n      jump\t// in\n    tag_167:\n        /* \"#utility.yul\":3941:4004   */\n      swap2\n      pop\n        /* \"#utility.yul\":3897:4014   */\n      pop\n        /* \"#utility.yul\":3692:4021   */\n      swap3\n      swap2\n      pop\n      pop\n      jump\t// out\n        /* \"#utility.yul\":4027:4145   */\n    tag_111:\n        /* \"#utility.yul\":4114:4138   */\n      tag_169\n        /* \"#utility.yul\":4132:4137   */\n      dup2\n        /* \"#utility.yul\":4114:4138   */\n      tag_108\n      jump\t// in\n    tag_169:\n        /* \"#utility.yul\":4109:4112   */\n      dup3\n        /* \"#utility.yul\":4102:4139   */\n      mstore\n        /* \"#utility.yul\":4027:4145   */\n      pop\n      pop\n      jump\t// out\n        /* \"#utility.yul\":4151:4373   */\n    tag_32:\n        /* \"#utility.yul\":4244:4248   */\n      0x00\n        /* \"#utility.yul\":4282:4284   */\n      0x20\n        /* \"#utility.yul\":4271:4280   */\n      dup3\n        /* \"#utility.yul\":4267:4285   */\n      add\n        /* \"#utility.yul\":4259:4285   */\n      swap1\n      pop\n        /* \"#utility.yul\":4295:4366   */\n      tag_171\n        /* \"#utility.yul\":4363:4364   */\n      0x00\n        /* \"#utility.yul\":4352:4361   */\n      dup4\n        /* \"#utility.yul\":4348:4365   */\n      add\n        /* \"#utility.yul\":4339:4345   */\n      dup5\n        /* \"#utility.yul\":4295:4366   */\n      tag_111\n      jump\t// in\n    tag_171:\n        /* \"#utility.yul\":4151:4373   */\n      swap3\n      swap2\n      pop\n      pop\n      jump\t// out\n        /* \"#utility.yul\":4379:4465   */\n    tag_112:\n        /* \"#utility.yul\":4414:4421   */\n      0x00\n        /* \"#utility.yul\":4454:4458   */\n      0xff\n        /* \"#utility.yul\":4447:4452   */\n      dup3\n        /* \"#utility.yul\":4443:4459   */\n      and\n        /* \"#utility.yul\":4432:4459   */\n      swap1\n      pop\n        /* \"#utility.yul\":4379:4465   */\n      swap2\n      swap1\n      pop\n      jump\t// out\n        /* \"#utility.yul\":4471:4583   */\n    tag_113:\n        /* \"#utility.yul\":4554:4576   */\n      tag_174\n        /* \"#utility.yul\":4570:4575   */\n      dup2\n        /* \"#utility.yul\":4554:4576   */\n      tag_112\n      jump\t// in\n    tag_174:\n        /* \"#utility.yul\":4549:4552   */\n      dup3\n        /* \"#utility.yul\":4542:4577   */\n      mstore\n        /* \"#utility.yul\":4471:4583   */\n      pop\n      pop\n      jump\t// out\n        /* \"#utility.yul\":4589:4803   */\n    tag_36:\n        /* \"#utility.yul\":4678:4682   */\n      0x00\n        /* \"#utility.yul\":4716:4718   */\n      0x20\n        /* \"#utility.yul\":4705:4714   */\n      dup3\n        /* \"#utility.yul\":4701:4719   */\n      add\n        /* \"#utility.yul\":4693:4719   */\n      swap1\n      pop\n        /* \"#utility.yul\":4729:4796   */\n      tag_176\n        /* \"#utility.yul\":4793:4794   */\n      0x00\n        /* \"#utility.yul\":4782:4791   */\n      dup4\n        /* \"#utility.yul\":4778:4795   */\n      add\n        /* \"#utility.yul\":4769:4775   */\n      dup5\n        /* \"#utility.yul\":4729:4796   */\n      tag_113\n      jump\t// in\n    tag_176:\n        /* \"#utility.yul\":4589:4803   */\n      swap3\n      swap2\n      pop\n      pop\n      jump\t// out\n        /* \"#utility.yul\":4809:5283   */\n    tag_42:\n        /* \"#utility.yul\":4877:4883   */\n      0x00\n        /* \"#utility.yul\":4885:4891   */\n      dup1\n        /* \"#utility.yul\":4934:4936   */\n      0x40\n        /* \"#utility.yul\":4922:4931   */\n      dup4\n        /* \"#utility.yul\":4913:4920   */\n      dup6\n        /* \"#utility.yul\":4909:4932   */\n      sub\n        /* \"#utility.yul\":4905:4937   */\n      slt\n        /* \"#utility.yul\":4902:5021   */\n      iszero\n      tag_178\n      jumpi\n        /* \"#utility.yul\":4940:5019   */\n      tag_179\n      tag_102\n      jump\t// in\n    tag_179:\n        /* \"#utility.yul\":4902:5021   */\n    tag_178:\n        /* \"#utility.yul\":5060:5061   */\n      0x00\n        /* \"#utility.yul\":5085:5138   */\n      tag_180\n        /* \"#utility.yul\":5130:5137   */\n      dup6\n        /* \"#utility.yul\":5121:5127   */\n      dup3\n        /* \"#utility.yul\":5110:5119   */\n      dup7\n        /* \"#utility.yul\":5106:5128   */\n      add\n        /* \"#utility.yul\":5085:5138   */\n      tag_107\n      jump\t// in\n    tag_180:\n        /* \"#utility.yul\":5075:5138   */\n      swap3\n      pop\n        /* \"#utility.yul\":5031:5148   */\n      pop\n        /* \"#utility.yul\":5187:5189   */\n      0x20\n        /* \"#utility.yul\":5213:5266   */\n      tag_181\n        /* \"#utility.yul\":5258:5265   */\n      dup6\n        /* \"#utility.yul\":5249:5255   */\n      dup3\n        /* \"#utility.yul\":5238:5247   */\n      dup7\n        /* \"#utility.yul\":5234:5256   */\n      add\n        /* \"#utility.yul\":5213:5266   */\n      tag_107\n      jump\t// in\n    tag_181:\n        /* \"#utility.yul\":5203:5266   */\n      swap2\n      pop\n        /* \"#utility.yul\":5158:5276   */\n      pop\n        /* \"#utility.yul\":4809:5283   */\n      swap3\n      pop\n      swap3\n      swap1\n      pop\n      jump\t// out\n        /* \"#utility.yul\":5289:5469   */\n    tag_114:\n        /* \"#utility.yul\":5337:5414   */\n      0x4e487b7100000000000000000000000000000000000000000000000000000000\n        /* \"#utility.yul\":5334:5335   */\n      0x00\n        /* \"#utility.yul\":5327:5415   */\n      mstore\n        /* \"#utility.yul\":5434:5438   */\n      0x22\n        /* \"#utility.yul\":5431:5432   */\n      0x04\n        /* \"#utility.yul\":5424:5439   */\n      mstore\n        /* \"#utility.yul\":5458:5462   */\n      0x24\n        /* \"#utility.yul\":5455:5456   */\n      0x00\n        /* \"#utility.yul\":5448:5463   */\n      revert\n        /* \"#utility.yul\":5475:5795   */\n    tag_61:\n        /* \"#utility.yul\":5519:5525   */\n      0x00\n        /* \"#utility.yul\":5556:5557   */\n      0x02\n        /* \"#utility.yul\":5550:5554   */\n      dup3\n        /* \"#utility.yul\":5546:5558   */\n      div\n        /* \"#utility.yul\":5536:5558   */\n      swap1\n      pop\n        /* \"#utility.yul\":5603:5604   */\n      0x01\n        /* \"#utility.yul\":5597:5601   */\n      dup3\n        /* \"#utility.yul\":5593:5605   */\n      and\n        /* \"#utility.yul\":5624:5642   */\n      dup1\n        /* \"#utility.yul\":5614:5695   */\n      tag_184\n      jumpi\n        /* \"#utility.yul\":5680:5684   */\n      0x7f\n        /* \"#utility.yul\":5672:5678   */\n      dup3\n        /* \"#utility.yul\":5668:5685   */\n      and\n        /* \"#utility.yul\":5658:5685   */\n      swap2\n      pop\n        /* \"#utility.yul\":5614:5695   */\n    tag_184:\n        /* \"#utility.yul\":5742:5744   */\n      0x20\n        /* \"#utility.yul\":5734:5740   */\n      dup3\n        /* \"#utility.yul\":5731:5745   */\n      lt\n        /* \"#utility.yul\":5711:5729   */\n      dup2\n        /* \"#utility.yul\":5708:5746   */\n      eq\n        /* \"#utility.yul\":5705:5789   */\n      iszero\n      tag_185\n      jumpi\n        /* \"#utility.yul\":5761:5779   */\n      tag_186\n      tag_114\n      jump\t// in\n    tag_186:\n        /* \"#utility.yul\":5705:5789   */\n    tag_185:\n        /* \"#utility.yul\":5526:5795   */\n      pop\n        /* \"#utility.yul\":5475:5795   */\n      swap2\n      swap1\n      pop\n      jump\t// out\n        /* \"#utility.yul\":5801:5981   */\n    tag_115:\n        /* \"#utility.yul\":5849:5926   */\n      0x4e487b7100000000000000000000000000000000000000000000000000000000\n        /* \"#utility.yul\":5846:5847   */\n      0x00\n        /* \"#utility.yul\":5839:5927   */\n      mstore\n        /* \"#utility.yul\":5946:5950   */\n      0x11\n        /* \"#utility.yul\":5943:5944   */\n      0x04\n        /* \"#utility.yul\":5936:5951   */\n      mstore\n        /* \"#utility.yul\":5970:5974   */\n      0x24\n        /* \"#utility.yul\":5967:5968   */\n      0x00\n        /* \"#utility.yul\":5960:5975   */\n      revert\n        /* \"#utility.yul\":5987:6292   */\n    tag_68:\n        /* \"#utility.yul\":6027:6030   */\n      0x00\n        /* \"#utility.yul\":6046:6066   */\n      tag_189\n        /* \"#utility.yul\":6064:6065   */\n      dup3\n        /* \"#utility.yul\":6046:6066   */\n      tag_108\n      jump\t// in\n    tag_189:\n        /* \"#utility.yul\":6041:6066   */\n      swap2\n      pop\n        /* \"#utility.yul\":6080:6100   */\n      tag_190\n        /* \"#utility.yul\":6098:6099   */\n      dup4\n        /* \"#utility.yul\":6080:6100   */\n      tag_108\n      jump\t// in\n    tag_190:\n        /* \"#utility.yul\":6075:6100   */\n      swap3\n      pop\n        /* \"#utility.yul\":6234:6235   */\n      dup3\n        /* \"#utility.yul\":6166:6232   */\n      0xffffffffffffffffffffffffffffffffffffffffffffffffffffffffffffffff\n        /* \"#utility.yul\":6162:6236   */\n      sub\n        /* \"#utility.yul\":6159:6160   */\n      dup3\n        /* \"#utility.yul\":6156:6237   */\n      gt\n        /* \"#utility.yul\":6153:6260   */\n      iszero\n      tag_191\n      jumpi\n        /* \"#utility.yul\":6240:6258   */\n      tag_192\n      tag_115\n      jump\t// in\n    tag_192:\n        /* \"#utility.yul\":6153:6260   */\n    tag_191:\n        /* \"#utility.yul\":6284:6285   */\n      dup3\n        /* \"#utility.yul\":6281:6282   */\n      dup3\n        /* \"#utility.yul\":6277:6286   */\n      add\n        /* \"#utility.yul\":6270:6286   */\n      swap1\n      pop\n        /* \"#utility.yul\":5987:6292   */\n      swap3\n      swap2\n      pop\n      pop\n      jump\t// out\n        /* \"#utility.yul\":6298:6468   */\n    tag_116:\n        /* \"#utility.yul\":6438:6460   */\n      0x6e6f7420656e6f75676820616c6c6f77616e6365000000000000000000000000\n        /* \"#utility.yul\":6434:6435   */\n      0x00\n        /* \"#utility.yul\":6426:6432   */\n      dup3\n        /* \"#utility.yul\":6422:6436   */\n      add\n        /* \"#utility.yul\":6415:6461   */\n      mstore\n        /* \"#utility.yul\":6298:6468   */\n      pop\n      jump\t// out\n        /* \"#utility.yul\":6474:6840   */\n    tag_117:\n        /* \"#utility.yul\":6616:6619   */\n      0x00\n        /* \"#utility.yul\":6637:6704   */\n      tag_195\n        /* \"#utility.yul\":6701:6703   */\n      0x14\n        /* \"#utility.yul\":6696:6699   */\n      dup4\n        /* \"#utility.yul\":6637:6704   */\n      tag_97\n      jump\t// in\n    tag_195:\n        /* \"#utility.yul\":6630:6704   */\n      swap2\n      pop\n        /* \"#utility.yul\":6713:6806   */\n      tag_196\n        /* \"#utility.yul\":6802:6805   */\n      dup3\n        /* \"#utility.yul\":6713:6806   */\n      tag_116\n      jump\t// in\n    tag_196:\n        /* \"#utility.yul\":6831:6833   */\n      0x20\n        /* \"#utility.yul\":6826:6829   */\n      dup3\n        /* \"#utility.yul\":6822:6834   */\n      add\n        /* \"#utility.yul\":6815:6834   */\n      swap1\n      pop\n        /* \"#utility.yul\":6474:6840   */\n      swap2\n      swap1\n      pop\n      jump\t// out\n        /* \"#utility.yul\":6846:7265   */\n    tag_72:\n        /* \"#utility.yul\":7012:7016   */\n      0x00\n        /* \"#utility.yul\":7050:7052   */\n      0x20\n        /* \"#utility.yul\":7039:7048   */\n      dup3\n        /* \"#utility.yul\":7035:7053   */\n      add\n        /* \"#utility.yul\":7027:7053   */\n      swap1\n      pop\n        /* \"#utility.yul\":7099:7108   */\n      dup2\n        /* \"#utility.yul\":7093:7097   */\n      dup2\n        /* \"#utility.yul\":7089:7109   */\n      sub\n        /* \"#utility.yul\":7085:7086   */\n      0x00\n        /* \"#utility.yul\":7074:7083   */\n      dup4\n        /* \"#utility.yul\":7070:7087   */\n      add\n        /* \"#utility.yul\":7063:7110   */\n      mstore\n        /* \"#utility.yul\":7127:7258   */\n      tag_198\n        /* \"#utility.yul\":7253:7257   */\n      dup2\n        /* \"#utility.yul\":7127:7258   */\n      tag_117\n      jump\t// in\n    tag_198:\n        /* \"#utility.yul\":7119:7258   */\n      swap1\n      pop\n        /* \"#utility.yul\":6846:7265   */\n      swap2\n      swap1\n      pop\n      jump\t// out\n        /* \"#utility.yul\":7271:7439   */\n    tag_118:\n        /* \"#utility.yul\":7411:7431   */\n      0x6e6f7420656e6f7567682062616c616e63650000000000000000000000000000\n        /* \"#utility.yul\":7407:7408   */\n      0x00\n        /* \"#utility.yul\":7399:7405   */\n      dup3\n        /* \"#utility.yul\":7395:7409   */\n      add\n        /* \"#utility.yul\":7388:7432   */\n      mstore\n        /* \"#utility.yul\":7271:7439   */\n      pop\n      jump\t// out\n        /* \"#utility.yul\":7445:7811   */\n    tag_119:\n        /* \"#utility.yul\":7587:7590   */\n      0x00\n        /* \"#utility.yul\":7608:7675   */\n      tag_201\n        /* \"#utility.yul\":7672:7674   */\n      0x12\n        /* \"#utility.yul\":7667:7670   */\n      dup4\n        /* \"#utility.yul\":7608:7675   */\n      tag_97\n      jump\t// in\n    tag_201:\n        /* \"#utility.yul\":7601:7675   */\n      swap2\n      pop\n        /* \"#utility.yul\":7684:7777   */\n      tag_202\n        /* \"#utility.yul\":7773:7776   */\n      dup3\n        /* \"#utility.yul\":7684:7777   */\n      tag_118\n      jump\t// in\n    tag_202:\n        /* \"#utility.yul\":7802:7804   */\n      0x20\n        /* \"#utility.yul\":7797:7800   */\n      dup3\n        /* \"#utility.yul\":7793:7805   */\n      add\n        /* \"#utility.yul\":7786:7805   */\n      swap1\n      pop\n        /* \"#utility.yul\":7445:7811   */\n      swap2\n      swap1\n      pop\n      jump\t// out\n        /* \"#utility.yul\":7817:8236   */\n    tag_75:\n        /* \"#utility.yul\":7983:7987   */\n      0x00\n        /* \"#utility.yul\":8021:8023   */\n      0x20\n        /* \"#utility.yul\":8010:8019   */\n      dup3\n        /* \"#utility.yul\":8006:8024   */\n      add\n        /* \"#utility.yul\":7998:8024   */\n      swap1\n      pop\n        /* \"#utility.yul\":8070:8079   */\n      dup2\n        /* \"#utility.yul\":8064:8068   */\n      dup2\n        /* \"#utility.yul\":8060:8080   */\n      sub\n        /* \"#utility.yul\":8056:8057   */\n      0x00\n        /* \"#utility.yul\":8045:8054   */\n      dup4\n        /* \"#utility.yul\":8041:8058   */\n      add\n        /* \"#utility.yul\":8034:8081   */\n      mstore\n        /* \"#utility.yul\":8098:8229   */\n      tag_204\n        /* \"#utility.yul\":8224:8228   */\n      dup2\n        /* \"#utility.yul\":8098:8229   */\n      tag_119\n      jump\t// in\n    tag_204:\n        /* \"#utility.yul\":8090:8229   */\n      swap1\n      pop\n        /* \"#utility.yul\":7817:8236   */\n      swap2\n      swap1\n      pop\n      jump\t// out\n        /* \"#utility.yul\":8242:8433   */\n    tag_77:\n        /* \"#utility.yul\":8282:8286   */\n      0x00\n        /* \"#utility.yul\":8302:8322   */\n      tag_206\n        /* \"#utility.yul\":8320:8321   */\n      dup3\n        /* \"#utility.yul\":8302:8322   */\n      tag_108\n      jump\t// in\n    tag_206:\n        /* \"#utility.yul\":8297:8322   */\n      swap2\n      pop\n        /* \"#utility.yul\":8336:8356   */\n      tag_207\n        /* \"#utility.yul\":8354:8355   */\n      dup4\n        /* \"#utility.yul\":8336:8356   */\n      tag_108\n      jump\t// in\n    tag_207:\n        /* \"#utility.yul\":8331:8356   */\n      swap3\n      pop\n        /* \"#utility.yul\":8375:8376   */\n      dup3\n        /* \"#utility.yul\":8372:8373   */\n      dup3\n        /* \"#utility.yul\":8369:8377   */\n      lt\n        /* \"#utility.yul\":8366:8400   */\n      iszero\n      tag_208\n      jumpi\n        /* \"#utility.yul\":8380:8398   */\n      tag_209\n      tag_115\n      jump\t// in\n    tag_209:\n        /* \"#utility.yul\":8366:8400   */\n    tag_208:\n        /* \"#utility.yul\":8425:8426   */\n      dup3\n        /* \"#utility.yul\":8422:8423   */\n      dup3\n        /* \"#utility.yul\":8418:8427   */\n      sub\n        /* \"#utility.yul\":8410:8427   */\n      swap1\n      pop\n        /* \"#utility.yul\":8242:8433   */\n      swap3\n      swap2\n      pop\n      pop\n      jump\t// out\n\n    auxdata: 0xa26469706673582212201f588d1ac495b228df41b149bb00e3e94dd3381e0f1da2eccbf7da72209b2b5b64736f6c634300080c0033\n}\n",
				"bytecode": {
					"linkReferences": {},
					"object": "60806040523480156200001157600080fd5b50604051620011af380380620011af8339818101604052810190620000379190620002be565b81600090805190602001906200004f92919062000071565b5080600190805190602001906200006892919062000071565b505050620003a8565b8280546200007f9062000372565b90600052602060002090601f016020900481019282620000a35760008555620000ef565b82601f10620000be57805160ff1916838001178555620000ef565b82800160010185558215620000ef579182015b82811115620000ee578251825591602001919060010190620000d1565b5b509050620000fe919062000102565b5090565b5b808211156200011d57600081600090555060010162000103565b5090565b6000604051905090565b600080fd5b600080fd5b600080fd5b600080fd5b6000601f19601f8301169050919050565b7f4e487b7100000000000000000000000000000000000000000000000000000000600052604160045260246000fd5b6200018a826200013f565b810181811067ffffffffffffffff82111715620001ac57620001ab62000150565b5b80604052505050565b6000620001c162000121565b9050620001cf82826200017f565b919050565b600067ffffffffffffffff821115620001f257620001f162000150565b5b620001fd826200013f565b9050602081019050919050565b60005b838110156200022a5780820151818401526020810190506200020d565b838111156200023a576000848401525b50505050565b6000620002576200025184620001d4565b620001b5565b9050828152602081018484840111156200027657620002756200013a565b5b620002838482856200020a565b509392505050565b600082601f830112620002a357620002a262000135565b5b8151620002b584826020860162000240565b91505092915050565b60008060408385031215620002d857620002d76200012b565b5b600083015167ffffffffffffffff811115620002f957620002f862000130565b5b62000307858286016200028b565b925050602083015167ffffffffffffffff8111156200032b576200032a62000130565b5b62000339858286016200028b565b9150509250929050565b7f4e487b7100000000000000000000000000000000000000000000000000000000600052602260045260246000fd5b600060028204905060018216806200038b57607f821691505b60208210811415620003a257620003a162000343565b5b50919050565b610df780620003b86000396000f3fe608060405234801561001057600080fd5b50600436106100a95760003560e01c806340c10f191161007157806340c10f191461015257806355b6ed5c1461016e5780635f5152261461019e5780638b099b23146101ce57806395d89b41146101fe578063a9059cbb1461021c576100a9565b806306fdde03146100ae578063095ea7b3146100cc57806323b872dd146100e857806327e235e314610104578063313ce56714610134575b600080fd5b6100b6610238565b6040516100c391906109b3565b60405180910390f35b6100e660048036038101906100e19190610a6e565b6102ca565b005b61010260048036038101906100fd9190610aae565b610361565b005b61011e60048036038101906101199190610b01565b6105e6565b60405161012b9190610b3d565b60405180910390f35b61013c6105fe565b6040516101499190610b74565b60405180910390f35b61016c60048036038101906101679190610a6e565b610607565b005b61018860048036038101906101839190610b8f565b610661565b6040516101959190610b3d565b60405180910390f35b6101b860048036038101906101b39190610b01565b610686565b6040516101c59190610b3d565b60405180910390f35b6101e860048036038101906101e39190610b8f565b6106cf565b6040516101f59190610b3d565b60405180910390f35b610206610756565b60405161021391906109b3565b60405180910390f35b61023660048036038101906102319190610a6e565b6107e8565b005b60606000805461024790610bfe565b80601f016020809104026020016040519081016040528092919081815260200182805461027390610bfe565b80156102c05780601f10610295576101008083540402835291602001916102c0565b820191906000526020600020905b8154815290600101906020018083116102a357829003601f168201915b5050505050905090565b80600360003373ffffffffffffffffffffffffffffffffffffffff1673ffffffffffffffffffffffffffffffffffffffff16815260200190815260200160002060008473ffffffffffffffffffffffffffffffffffffffff1673ffffffffffffffffffffffffffffffffffffffff16815260200190815260200160002060008282546103569190610c5f565b925050819055505050565b80600360008573ffffffffffffffffffffffffffffffffffffffff1673ffffffffffffffffffffffffffffffffffffffff16815260200190815260200160002060003373ffffffffffffffffffffffffffffffffffffffff1673ffffffffffffffffffffffffffffffffffffffff168152602001908152602001600020541015610420576040517f08c379a000000000000000000000000000000000000000000000000000000000815260040161041790610d01565b60405180910390fd5b80600260008573ffffffffffffffffffffffffffffffffffffffff1673ffffffffffffffffffffffffffffffffffffffff1681526020019081526020016000205410156104a2576040517f08c379a000000000000000000000000000000000000000000000000000000000815260040161049990610d6d565b60405180910390fd5b80600260008573ffffffffffffffffffffffffffffffffffffffff1673ffffffffffffffffffffffffffffffffffffffff16815260200190815260200160002060008282546104f19190610d8d565b9250508190555080600260008473ffffffffffffffffffffffffffffffffffffffff1673ffffffffffffffffffffffffffffffffffffffff16815260200190815260200160002060008282546105479190610c5f565b9250508190555080600360008573ffffffffffffffffffffffffffffffffffffffff1673ffffffffffffffffffffffffffffffffffffffff16815260200190815260200160002060003373ffffffffffffffffffffffffffffffffffffffff1673ffffffffffffffffffffffffffffffffffffffff16815260200190815260200160002060008282546105da9190610d8d565b92505081905550505050565b60026020528060005260406000206000915090505481565b60006012905090565b80600260008473ffffffffffffffffffffffffffffffffffffffff1673ffffffffffffffffffffffffffffffffffffffff16815260200190815260200160002060008282546106569190610c5f565b925050819055505050565b6003602052816000526040600020602052806000526040600020600091509150505481565b6000600260008373ffffffffffffffffffffffffffffffffffffffff1673ffffffffffffffffffffffffffffffffffffffff168152602001908152602001600020549050919050565b6000600360008473ffffffffffffffffffffffffffffffffffffffff1673ffffffffffffffffffffffffffffffffffffffff16815260200190815260200160002060008373ffffffffffffffffffffffffffffffffffffffff1673ffffffffffffffffffffffffffffffffffffffff16815260200190815260200160002054905092915050565b60606001805461076590610bfe565b80601f016020809104026020016040519081016040528092919081815260200182805461079190610bfe565b80156107de5780601f106107b3576101008083540402835291602001916107de565b820191906000526020600020905b8154815290600101906020018083116107c157829003601f168201915b5050505050905090565b80600260003373ffffffffffffffffffffffffffffffffffffffff1673ffffffffffffffffffffffffffffffffffffffff16815260200190815260200160002054101561086a576040517f08c379a000000000000000000000000000000000000000000000000000000000815260040161086190610d6d565b60405180910390fd5b80600260003373ffffffffffffffffffffffffffffffffffffffff1673ffffffffffffffffffffffffffffffffffffffff16815260200190815260200160002060008282546108b99190610d8d565b9250508190555080600260008473ffffffffffffffffffffffffffffffffffffffff1673ffffffffffffffffffffffffffffffffffffffff168152602001908152602001600020600082825461090f9190610c5f565b925050819055505050565b600081519050919050565b600082825260208201905092915050565b60005b83811015610954578082015181840152602081019050610939565b83811115610963576000848401525b50505050565b6000601f19601f8301169050919050565b60006109858261091a565b61098f8185610925565b935061099f818560208601610936565b6109a881610969565b840191505092915050565b600060208201905081810360008301526109cd818461097a565b905092915050565b600080fd5b600073ffffffffffffffffffffffffffffffffffffffff82169050919050565b6000610a05826109da565b9050919050565b610a15816109fa565b8114610a2057600080fd5b50565b600081359050610a3281610a0c565b92915050565b6000819050919050565b610a4b81610a38565b8114610a5657600080fd5b50565b600081359050610a6881610a42565b92915050565b60008060408385031215610a8557610a846109d5565b5b6000610a9385828601610a23565b9250506020610aa485828601610a59565b9150509250929050565b600080600060608486031215610ac757610ac66109d5565b5b6000610ad586828701610a23565b9350506020610ae686828701610a23565b9250506040610af786828701610a59565b9150509250925092565b600060208284031215610b1757610b166109d5565b5b6000610b2584828501610a23565b91505092915050565b610b3781610a38565b82525050565b6000602082019050610b526000830184610b2e565b92915050565b600060ff82169050919050565b610b6e81610b58565b82525050565b6000602082019050610b896000830184610b65565b92915050565b60008060408385031215610ba657610ba56109d5565b5b6000610bb485828601610a23565b9250506020610bc585828601610a23565b9150509250929050565b7f4e487b7100000000000000000000000000000000000000000000000000000000600052602260045260246000fd5b60006002820490506001821680610c1657607f821691505b60208210811415610c2a57610c29610bcf565b5b50919050565b7f4e487b7100000000000000000000000000000000000000000000000000000000600052601160045260246000fd5b6000610c6a82610a38565b9150610c7583610a38565b9250827fffffffffffffffffffffffffffffffffffffffffffffffffffffffffffffffff03821115610caa57610ca9610c30565b5b828201905092915050565b7f6e6f7420656e6f75676820616c6c6f77616e6365000000000000000000000000600082015250565b6000610ceb601483610925565b9150610cf682610cb5565b602082019050919050565b60006020820190508181036000830152610d1a81610cde565b9050919050565b7f6e6f7420656e6f7567682062616c616e63650000000000000000000000000000600082015250565b6000610d57601283610925565b9150610d6282610d21565b602082019050919050565b60006020820190508181036000830152610d8681610d4a565b9050919050565b6000610d9882610a38565b9150610da383610a38565b925082821015610db657610db5610c30565b5b82820390509291505056fea26469706673582212201f588d1ac495b228df41b149bb00e3e94dd3381e0f1da2eccbf7da72209b2b5b64736f6c634300080c0033",
					"opcodes": "PUSH1 0x80 PUSH1 0x40 MSTORE CALLVALUE DUP1 ISZERO PUSH3 0x11 JUMPI PUSH1 0x0 DUP1 REVERT JUMPDEST POP PUSH1 0x40 MLOAD PUSH3 0x11AF CODESIZE SUB DUP1 PUSH3 0x11AF DUP4 CODECOPY DUP2 DUP2 ADD PUSH1 0x40 MSTORE DUP2 ADD SWAP1 PUSH3 0x37 SWAP2 SWAP1 PUSH3 0x2BE JUMP JUMPDEST DUP2 PUSH1 0x0 SWAP1 DUP1 MLOAD SWAP1 PUSH1 0x20 ADD SWAP1 PUSH3 0x4F SWAP3 SWAP2 SWAP1 PUSH3 0x71 JUMP JUMPDEST POP DUP1 PUSH1 0x1 SWAP1 DUP1 MLOAD SWAP1 PUSH1 0x20 ADD SWAP1 PUSH3 0x68 SWAP3 SWAP2 SWAP1 PUSH3 0x71 JUMP JUMPDEST POP POP POP PUSH3 0x3A8 JUMP JUMPDEST DUP3 DUP1 SLOAD PUSH3 0x7F SWAP1 PUSH3 0x372 JUMP JUMPDEST SWAP1 PUSH1 0x0 MSTORE PUSH1 0x20 PUSH1 0x0 KECCAK256 SWAP1 PUSH1 0x1F ADD PUSH1 0x20 SWAP1 DIV DUP2 ADD SWAP3 DUP3 PUSH3 0xA3 JUMPI PUSH1 0x0 DUP6 SSTORE PUSH3 0xEF JUMP JUMPDEST DUP3 PUSH1 0x1F LT PUSH3 0xBE JUMPI DUP1 MLOAD PUSH1 0xFF NOT AND DUP4 DUP1 ADD OR DUP6 SSTORE PUSH3 0xEF JUMP JUMPDEST DUP3 DUP1 ADD PUSH1 0x1 ADD DUP6 SSTORE DUP3 ISZERO PUSH3 0xEF JUMPI SWAP2 DUP3 ADD JUMPDEST DUP3 DUP2 GT ISZERO PUSH3 0xEE JUMPI DUP3 MLOAD DUP3 SSTORE SWAP2 PUSH1 0x20 ADD SWAP2 SWAP1 PUSH1 0x1 ADD SWAP1 PUSH3 0xD1 JUMP JUMPDEST JUMPDEST POP SWAP1 POP PUSH3 0xFE SWAP2 SWAP1 PUSH3 0x102 JUMP JUMPDEST POP SWAP1 JUMP JUMPDEST JUMPDEST DUP1 DUP3 GT ISZERO PUSH3 0x11D JUMPI PUSH1 0x0 DUP2 PUSH1 0x0 SWAP1 SSTORE POP PUSH1 0x1 ADD PUSH3 0x103 JUMP JUMPDEST POP SWAP1 JUMP JUMPDEST PUSH1 0x0 PUSH1 0x40 MLOAD SWAP1 POP SWAP1 JUMP JUMPDEST PUSH1 0x0 DUP1 REVERT JUMPDEST PUSH1 0x0 DUP1 REVERT JUMPDEST PUSH1 0x0 DUP1 REVERT JUMPDEST PUSH1 0x0 DUP1 REVERT JUMPDEST PUSH1 0x0 PUSH1 0x1F NOT PUSH1 0x1F DUP4 ADD AND SWAP1 POP SWAP2 SWAP1 POP JUMP JUMPDEST PUSH32 0x4E487B7100000000000000000000000000000000000000000000000000000000 PUSH1 0x0 MSTORE PUSH1 0x41 PUSH1 0x4 MSTORE PUSH1 0x24 PUSH1 0x0 REVERT JUMPDEST PUSH3 0x18A DUP3 PUSH3 0x13F JUMP JUMPDEST DUP2 ADD DUP2 DUP2 LT PUSH8 0xFFFFFFFFFFFFFFFF DUP3 GT OR ISZERO PUSH3 0x1AC JUMPI PUSH3 0x1AB PUSH3 0x150 JUMP JUMPDEST JUMPDEST DUP1 PUSH1 0x40 MSTORE POP POP POP JUMP JUMPDEST PUSH1 0x0 PUSH3 0x1C1 PUSH3 0x121 JUMP JUMPDEST SWAP1 POP PUSH3 0x1CF DUP3 DUP3 PUSH3 0x17F JUMP JUMPDEST SWAP2 SWAP1 POP JUMP JUMPDEST PUSH1 0x0 PUSH8 0xFFFFFFFFFFFFFFFF DUP3 GT ISZERO PUSH3 0x1F2 JUMPI PUSH3 0x1F1 PUSH3 0x150 JUMP JUMPDEST JUMPDEST PUSH3 0x1FD DUP3 PUSH3 0x13F JUMP JUMPDEST SWAP1 POP PUSH1 0x20 DUP2 ADD SWAP1 POP SWAP2 SWAP1 POP JUMP JUMPDEST PUSH1 0x0 JUMPDEST DUP4 DUP2 LT ISZERO PUSH3 0x22A JUMPI DUP1 DUP3 ADD MLOAD DUP2 DUP5 ADD MSTORE PUSH1 0x20 DUP2 ADD SWAP1 POP PUSH3 0x20D JUMP JUMPDEST DUP4 DUP2 GT ISZERO PUSH3 0x23A JUMPI PUSH1 0x0 DUP5 DUP5 ADD MSTORE JUMPDEST POP POP POP POP JUMP JUMPDEST PUSH1 0x0 PUSH3 0x257 PUSH3 0x251 DUP5 PUSH3 0x1D4 JUMP JUMPDEST PUSH3 0x1B5 JUMP JUMPDEST SWAP1 POP DUP3 DUP2 MSTORE PUSH1 0x20 DUP2 ADD DUP5 DUP5 DUP5 ADD GT ISZERO PUSH3 0x276 JUMPI PUSH3 0x275 PUSH3 0x13A JUMP JUMPDEST JUMPDEST PUSH3 0x283 DUP5 DUP3 DUP6 PUSH3 0x20A JUMP JUMPDEST POP SWAP4 SWAP3 POP POP POP JUMP JUMPDEST PUSH1 0x0 DUP3 PUSH1 0x1F DUP4 ADD SLT PUSH3 0x2A3 JUMPI PUSH3 0x2A2 PUSH3 0x135 JUMP JUMPDEST JUMPDEST DUP2 MLOAD PUSH3 0x2B5 DUP5 DUP3 PUSH1 0x20 DUP7 ADD PUSH3 0x240 JUMP JUMPDEST SWAP2 POP POP SWAP3 SWAP2 POP POP JUMP JUMPDEST PUSH1 0x0 DUP1 PUSH1 0x40 DUP4 DUP6 SUB SLT ISZERO PUSH3 0x2D8 JUMPI PUSH3 0x2D7 PUSH3 0x12B JUMP JUMPDEST JUMPDEST PUSH1 0x0 DUP4 ADD MLOAD PUSH8 0xFFFFFFFFFFFFFFFF DUP2 GT ISZERO PUSH3 0x2F9 JUMPI PUSH3 0x2F8 PUSH3 0x130 JUMP JUMPDEST JUMPDEST PUSH3 0x307 DUP6 DUP3 DUP7 ADD PUSH3 0x28B JUMP JUMPDEST SWAP3 POP POP PUSH1 0x20 DUP4 ADD MLOAD PUSH8 0xFFFFFFFFFFFFFFFF DUP2 GT ISZERO PUSH3 0x32B JUMPI PUSH3 0x32A PUSH3 0x130 JUMP JUMPDEST JUMPDEST PUSH3 0x339 DUP6 DUP3 DUP7 ADD PUSH3 0x28B JUMP JUMPDEST SWAP2 POP POP SWAP3 POP SWAP3 SWAP1 POP JUMP JUMPDEST PUSH32 0x4E487B7100000000000000000000000000000000000000000000000000000000 PUSH1 0x0 MSTORE PUSH1 0x22 PUSH1 0x4 MSTORE PUSH1 0x24 PUSH1 0x0 REVERT JUMPDEST PUSH1 0x0 PUSH1 0x2 DUP3 DIV SWAP1 POP PUSH1 0x1 DUP3 AND DUP1 PUSH3 0x38B JUMPI PUSH1 0x7F DUP3 AND SWAP2 POP JUMPDEST PUSH1 0x20 DUP3 LT DUP2 EQ ISZERO PUSH3 0x3A2 JUMPI PUSH3 0x3A1 PUSH3 0x343 JUMP JUMPDEST JUMPDEST POP SWAP2 SWAP1 POP JUMP JUMPDEST PUSH2 0xDF7 DUP1 PUSH3 0x3B8 PUSH1 0x0 CODECOPY PUSH1 0x0 RETURN INVALID PUSH1 0x80 PUSH1 0x40 MSTORE CALLVALUE DUP1 ISZERO PUSH2 0x10 JUMPI PUSH1 0x0 DUP1 REVERT JUMPDEST POP PUSH1 0x4 CALLDATASIZE LT PUSH2 0xA9 JUMPI PUSH1 0x0 CALLDATALOAD PUSH1 0xE0 SHR DUP1 PUSH4 0x40C10F19 GT PUSH2 0x71 JUMPI DUP1 PUSH4 0x40C10F19 EQ PUSH2 0x152 JUMPI DUP1 PUSH4 0x55B6ED5C EQ PUSH2 0x16E JUMPI DUP1 PUSH4 0x5F515226 EQ PUSH2 0x19E JUMPI DUP1 PUSH4 0x8B099B23 EQ PUSH2 0x1CE JUMPI DUP1 PUSH4 0x95D89B41 EQ PUSH2 0x1FE JUMPI DUP1 PUSH4 0xA9059CBB EQ PUSH2 0x21C JUMPI PUSH2 0xA9 JUMP JUMPDEST DUP1 PUSH4 0x6FDDE03 EQ PUSH2 0xAE JUMPI DUP1 PUSH4 0x95EA7B3 EQ PUSH2 0xCC JUMPI DUP1 PUSH4 0x23B872DD EQ PUSH2 0xE8 JUMPI DUP1 PUSH4 0x27E235E3 EQ PUSH2 0x104 JUMPI DUP1 PUSH4 0x313CE567 EQ PUSH2 0x134 JUMPI JUMPDEST PUSH1 0x0 DUP1 REVERT JUMPDEST PUSH2 0xB6 PUSH2 0x238 JUMP JUMPDEST PUSH1 0x40 MLOAD PUSH2 0xC3 SWAP2 SWAP1 PUSH2 0x9B3 JUMP JUMPDEST PUSH1 0x40 MLOAD DUP1 SWAP2 SUB SWAP1 RETURN JUMPDEST PUSH2 0xE6 PUSH1 0x4 DUP1 CALLDATASIZE SUB DUP2 ADD SWAP1 PUSH2 0xE1 SWAP2 SWAP1 PUSH2 0xA6E JUMP JUMPDEST PUSH2 0x2CA JUMP JUMPDEST STOP JUMPDEST PUSH2 0x102 PUSH1 0x4 DUP1 CALLDATASIZE SUB DUP2 ADD SWAP1 PUSH2 0xFD SWAP2 SWAP1 PUSH2 0xAAE JUMP JUMPDEST PUSH2 0x361 JUMP JUMPDEST STOP JUMPDEST PUSH2 0x11E PUSH1 0x4 DUP1 CALLDATASIZE SUB DUP2 ADD SWAP1 PUSH2 0x119 SWAP2 SWAP1 PUSH2 0xB01 JUMP JUMPDEST PUSH2 0x5E6 JUMP JUMPDEST PUSH1 0x40 MLOAD PUSH2 0x12B SWAP2 SWAP1 PUSH2 0xB3D JUMP JUMPDEST PUSH1 0x40 MLOAD DUP1 SWAP2 SUB SWAP1 RETURN JUMPDEST PUSH2 0x13C PUSH2 0x5FE JUMP JUMPDEST PUSH1 0x40 MLOAD PUSH2 0x149 SWAP2 SWAP1 PUSH2 0xB74 JUMP JUMPDEST PUSH1 0x40 MLOAD DUP1 SWAP2 SUB SWAP1 RETURN JUMPDEST PUSH2 0x16C PUSH1 0x4 DUP1 CALLDATASIZE SUB DUP2 ADD SWAP1 PUSH2 0x167 SWAP2 SWAP1 PUSH2 0xA6E JUMP JUMPDEST PUSH2 0x607 JUMP JUMPDEST STOP JUMPDEST PUSH2 0x188 PUSH1 0x4 DUP1 CALLDATASIZE SUB DUP2 ADD SWAP1 PUSH2 0x183 SWAP2 SWAP1 PUSH2 0xB8F JUMP JUMPDEST PUSH2 0x661 JUMP JUMPDEST PUSH1 0x40 MLOAD PUSH2 0x195 SWAP2 SWAP1 PUSH2 0xB3D JUMP JUMPDEST PUSH1 0x40 MLOAD DUP1 SWAP2 SUB SWAP1 RETURN JUMPDEST PUSH2 0x1B8 PUSH1 0x4 DUP1 CALLDATASIZE SUB DUP2 ADD SWAP1 PUSH2 0x1B3 SWAP2 SWAP1 PUSH2 0xB01 JUMP JUMPDEST PUSH2 0x686 JUMP JUMPDEST PUSH1 0x40 MLOAD PUSH2 0x1C5 SWAP2 SWAP1 PUSH2 0xB3D JUMP JUMPDEST PUSH1 0x40 MLOAD DUP1 SWAP2 SUB SWAP1 RETURN JUMPDEST PUSH2 0x1E8 PUSH1 0x4 DUP1 CALLDATASIZE SUB DUP2 ADD SWAP1 PUSH2 0x1E3 SWAP2 SWAP1 PUSH2 0xB8F JUMP JUMPDEST PUSH2 0x6CF JUMP JUMPDEST PUSH1 0x40 MLOAD PUSH2 0x1F5 SWAP2 SWAP1 PUSH2 0xB3D JUMP JUMPDEST PUSH1 0x40 MLOAD DUP1 SWAP2 SUB SWAP1 RETURN JUMPDEST PUSH2 0x206 PUSH2 0x756 JUMP JUMPDEST PUSH1 0x40 MLOAD PUSH2 0x213 SWAP2 SWAP1 PUSH2 0x9B3 JUMP JUMPDEST PUSH1 0x40 MLOAD DUP1 SWAP2 SUB SWAP1 RETURN JUMPDEST PUSH2 0x236 PUSH1 0x4 DUP1 CALLDATASIZE SUB DUP2 ADD SWAP1 PUSH2 0x231 SWAP2 SWAP1 PUSH2 0xA6E JUMP JUMPDEST PUSH2 0x7E8 JUMP JUMPDEST STOP JUMPDEST PUSH1 0x60 PUSH1 0x0 DUP1 SLOAD PUSH2 0x247 SWAP1 PUSH2 0xBFE JUMP JUMPDEST DUP1 PUSH1 0x1F ADD PUSH1 0x20 DUP1 SWAP2 DIV MUL PUSH1 0x20 ADD PUSH1 0x40 MLOAD SWAP1 DUP2 ADD PUSH1 0x40 MSTORE DUP1 SWAP3 SWAP2 SWAP1 DUP2 DUP2 MSTORE PUSH1 0x20 ADD DUP3 DUP1 SLOAD PUSH2 0x273 SWAP1 PUSH2 0xBFE JUMP JUMPDEST DUP1 ISZERO PUSH2 0x2C0 JUMPI DUP1 PUSH1 0x1F LT PUSH2 0x295 JUMPI PUSH2 0x100 DUP1 DUP4 SLOAD DIV MUL DUP4 MSTORE SWAP2 PUSH1 0x20 ADD SWAP2 PUSH2 0x2C0 JUMP JUMPDEST DUP3 ADD SWAP2 SWAP1 PUSH1 0x0 MSTORE PUSH1 0x20 PUSH1 0x0 KECCAK256 SWAP1 JUMPDEST DUP2 SLOAD DUP2 MSTORE SWAP1 PUSH1 0x1 ADD SWAP1 PUSH1 0x20 ADD DUP1 DUP4 GT PUSH2 0x2A3 JUMPI DUP3 SWAP1 SUB PUSH1 0x1F AND DUP3 ADD SWAP2 JUMPDEST POP POP POP POP POP SWAP1 POP SWAP1 JUMP JUMPDEST DUP1 PUSH1 0x3 PUSH1 0x0 CALLER PUSH20 0xFFFFFFFFFFFFFFFFFFFFFFFFFFFFFFFFFFFFFFFF AND PUSH20 0xFFFFFFFFFFFFFFFFFFFFFFFFFFFFFFFFFFFFFFFF AND DUP2 MSTORE PUSH1 0x20 ADD SWAP1 DUP2 MSTORE PUSH1 0x20 ADD PUSH1 0x0 KECCAK256 PUSH1 0x0 DUP5 PUSH20 0xFFFFFFFFFFFFFFFFFFFFFFFFFFFFFFFFFFFFFFFF AND PUSH20 0xFFFFFFFFFFFFFFFFFFFFFFFFFFFFFFFFFFFFFFFF AND DUP2 MSTORE PUSH1 0x20 ADD SWAP1 DUP2 MSTORE PUSH1 0x20 ADD PUSH1 0x0 KECCAK256 PUSH1 0x0 DUP3 DUP3 SLOAD PUSH2 0x356 SWAP2 SWAP1 PUSH2 0xC5F JUMP JUMPDEST SWAP3 POP POP DUP2 SWAP1 SSTORE POP POP POP JUMP JUMPDEST DUP1 PUSH1 0x3 PUSH1 0x0 DUP6 PUSH20 0xFFFFFFFFFFFFFFFFFFFFFFFFFFFFFFFFFFFFFFFF AND PUSH20 0xFFFFFFFFFFFFFFFFFFFFFFFFFFFFFFFFFFFFFFFF AND DUP2 MSTORE PUSH1 0x20 ADD SWAP1 DUP2 MSTORE PUSH1 0x20 ADD PUSH1 0x0 KECCAK256 PUSH1 0x0 CALLER PUSH20 0xFFFFFFFFFFFFFFFFFFFFFFFFFFFFFFFFFFFFFFFF AND PUSH20 0xFFFFFFFFFFFFFFFFFFFFFFFFFFFFFFFFFFFFFFFF AND DUP2 MSTORE PUSH1 0x20 ADD SWAP1 DUP2 MSTORE PUSH1 0x20 ADD PUSH1 0x0 KECCAK256 SLOAD LT ISZERO PUSH2 0x420 JUMPI PUSH1 0x40 MLOAD PUSH32 0x8C379A000000000000000000000000000000000000000000000000000000000 DUP2 MSTORE PUSH1 0x4 ADD PUSH2 0x417 SWAP1 PUSH2 0xD01 JUMP JUMPDEST PUSH1 0x40 MLOAD DUP1 SWAP2 SUB SWAP1 REVERT JUMPDEST DUP1 PUSH1 0x2 PUSH1 0x0 DUP6 PUSH20 0xFFFFFFFFFFFFFFFFFFFFFFFFFFFFFFFFFFFFFFFF AND PUSH20 0xFFFFFFFFFFFFFFFFFFFFFFFFFFFFFFFFFFFFFFFF AND DUP2 MSTORE PUSH1 0x20 ADD SWAP1 DUP2 MSTORE PUSH1 0x20 ADD PUSH1 0x0 KECCAK256 SLOAD LT ISZERO PUSH2 0x4A2 JUMPI PUSH1 0x40 MLOAD PUSH32 0x8C379A000000000000000000000000000000000000000000000000000000000 DUP2 MSTORE PUSH1 0x4 ADD PUSH2 0x499 SWAP1 PUSH2 0xD6D JUMP JUMPDEST PUSH1 0x40 MLOAD DUP1 SWAP2 SUB SWAP1 REVERT JUMPDEST DUP1 PUSH1 0x2 PUSH1 0x0 DUP6 PUSH20 0xFFFFFFFFFFFFFFFFFFFFFFFFFFFFFFFFFFFFFFFF AND PUSH20 0xFFFFFFFFFFFFFFFFFFFFFFFFFFFFFFFFFFFFFFFF AND DUP2 MSTORE PUSH1 0x20 ADD SWAP1 DUP2 MSTORE PUSH1 0x20 ADD PUSH1 0x0 KECCAK256 PUSH1 0x0 DUP3 DUP3 SLOAD PUSH2 0x4F1 SWAP2 SWAP1 PUSH2 0xD8D JUMP JUMPDEST SWAP3 POP POP DUP2 SWAP1 SSTORE POP DUP1 PUSH1 0x2 PUSH1 0x0 DUP5 PUSH20 0xFFFFFFFFFFFFFFFFFFFFFFFFFFFFFFFFFFFFFFFF AND PUSH20 0xFFFFFFFFFFFFFFFFFFFFFFFFFFFFFFFFFFFFFFFF AND DUP2 MSTORE PUSH1 0x20 ADD SWAP1 DUP2 MSTORE PUSH1 0x20 ADD PUSH1 0x0 KECCAK256 PUSH1 0x0 DUP3 DUP3 SLOAD PUSH2 0x547 SWAP2 SWAP1 PUSH2 0xC5F JUMP JUMPDEST SWAP3 POP POP DUP2 SWAP1 SSTORE POP DUP1 PUSH1 0x3 PUSH1 0x0 DUP6 PUSH20 0xFFFFFFFFFFFFFFFFFFFFFFFFFFFFFFFFFFFFFFFF AND PUSH20 0xFFFFFFFFFFFFFFFFFFFFFFFFFFFFFFFFFFFFFFFF AND DUP2 MSTORE PUSH1 0x20 ADD SWAP1 DUP2 MSTORE PUSH1 0x20 ADD PUSH1 0x0 KECCAK256 PUSH1 0x0 CALLER PUSH20 0xFFFFFFFFFFFFFFFFFFFFFFFFFFFFFFFFFFFFFFFF AND PUSH20 0xFFFFFFFFFFFFFFFFFFFFFFFFFFFFFFFFFFFFFFFF AND DUP2 MSTORE PUSH1 0x20 ADD SWAP1 DUP2 MSTORE PUSH1 0x20 ADD PUSH1 0x0 KECCAK256 PUSH1 0x0 DUP3 DUP3 SLOAD PUSH2 0x5DA SWAP2 SWAP1 PUSH2 0xD8D JUMP JUMPDEST SWAP3 POP POP DUP2 SWAP1 SSTORE POP POP POP POP JUMP JUMPDEST PUSH1 0x2 PUSH1 0x20 MSTORE DUP1 PUSH1 0x0 MSTORE PUSH1 0x40 PUSH1 0x0 KECCAK256 PUSH1 0x0 SWAP2 POP SWAP1 POP SLOAD DUP2 JUMP JUMPDEST PUSH1 0x0 PUSH1 0x12 SWAP1 POP SWAP1 JUMP JUMPDEST DUP1 PUSH1 0x2 PUSH1 0x0 DUP5 PUSH20 0xFFFFFFFFFFFFFFFFFFFFFFFFFFFFFFFFFFFFFFFF AND PUSH20 0xFFFFFFFFFFFFFFFFFFFFFFFFFFFFFFFFFFFFFFFF AND DUP2 MSTORE PUSH1 0x20 ADD SWAP1 DUP2 MSTORE PUSH1 0x20 ADD PUSH1 0x0 KECCAK256 PUSH1 0x0 DUP3 DUP3 SLOAD PUSH2 0x656 SWAP2 SWAP1 PUSH2 0xC5F JUMP JUMPDEST SWAP3 POP POP DUP2 SWAP1 SSTORE POP POP POP JUMP JUMPDEST PUSH1 0x3 PUSH1 0x20 MSTORE DUP2 PUSH1 0x0 MSTORE PUSH1 0x40 PUSH1 0x0 KECCAK256 PUSH1 0x20 MSTORE DUP1 PUSH1 0x0 MSTORE PUSH1 0x40 PUSH1 0x0 KECCAK256 PUSH1 0x0 SWAP2 POP SWAP2 POP POP SLOAD DUP2 JUMP JUMPDEST PUSH1 0x0 PUSH1 0x2 PUSH1 0x0 DUP4 PUSH20 0xFFFFFFFFFFFFFFFFFFFFFFFFFFFFFFFFFFFFFFFF AND PUSH20 0xFFFFFFFFFFFFFFFFFFFFFFFFFFFFFFFFFFFFFFFF AND DUP2 MSTORE PUSH1 0x20 ADD SWAP1 DUP2 MSTORE PUSH1 0x20 ADD PUSH1 0x0 KECCAK256 SLOAD SWAP1 POP SWAP2 SWAP1 POP JUMP JUMPDEST PUSH1 0x0 PUSH1 0x3 PUSH1 0x0 DUP5 PUSH20 0xFFFFFFFFFFFFFFFFFFFFFFFFFFFFFFFFFFFFFFFF AND PUSH20 0xFFFFFFFFFFFFFFFFFFFFFFFFFFFFFFFFFFFFFFFF AND DUP2 MSTORE PUSH1 0x20 ADD SWAP1 DUP2 MSTORE PUSH1 0x20 ADD PUSH1 0x0 KECCAK256 PUSH1 0x0 DUP4 PUSH20 0xFFFFFFFFFFFFFFFFFFFFFFFFFFFFFFFFFFFFFFFF AND PUSH20 0xFFFFFFFFFFFFFFFFFFFFFFFFFFFFFFFFFFFFFFFF AND DUP2 MSTORE PUSH1 0x20 ADD SWAP1 DUP2 MSTORE PUSH1 0x20 ADD PUSH1 0x0 KECCAK256 SLOAD SWAP1 POP SWAP3 SWAP2 POP POP JUMP JUMPDEST PUSH1 0x60 PUSH1 0x1 DUP1 SLOAD PUSH2 0x765 SWAP1 PUSH2 0xBFE JUMP JUMPDEST DUP1 PUSH1 0x1F ADD PUSH1 0x20 DUP1 SWAP2 DIV MUL PUSH1 0x20 ADD PUSH1 0x40 MLOAD SWAP1 DUP2 ADD PUSH1 0x40 MSTORE DUP1 SWAP3 SWAP2 SWAP1 DUP2 DUP2 MSTORE PUSH1 0x20 ADD DUP3 DUP1 SLOAD PUSH2 0x791 SWAP1 PUSH2 0xBFE JUMP JUMPDEST DUP1 ISZERO PUSH2 0x7DE JUMPI DUP1 PUSH1 0x1F LT PUSH2 0x7B3 JUMPI PUSH2 0x100 DUP1 DUP4 SLOAD DIV MUL DUP4 MSTORE SWAP2 PUSH1 0x20 ADD SWAP2 PUSH2 0x7DE JUMP JUMPDEST DUP3 ADD SWAP2 SWAP1 PUSH1 0x0 MSTORE PUSH1 0x20 PUSH1 0x0 KECCAK256 SWAP1 JUMPDEST DUP2 SLOAD DUP2 MSTORE SWAP1 PUSH1 0x1 ADD SWAP1 PUSH1 0x20 ADD DUP1 DUP4 GT PUSH2 0x7C1 JUMPI DUP3 SWAP1 SUB PUSH1 0x1F AND DUP3 ADD SWAP2 JUMPDEST POP POP POP POP POP SWAP1 POP SWAP1 JUMP JUMPDEST DUP1 PUSH1 0x2 PUSH1 0x0 CALLER PUSH20 0xFFFFFFFFFFFFFFFFFFFFFFFFFFFFFFFFFFFFFFFF AND PUSH20 0xFFFFFFFFFFFFFFFFFFFFFFFFFFFFFFFFFFFFFFFF AND DUP2 MSTORE PUSH1 0x20 ADD SWAP1 DUP2 MSTORE PUSH1 0x20 ADD PUSH1 0x0 KECCAK256 SLOAD LT ISZERO PUSH2 0x86A JUMPI PUSH1 0x40 MLOAD PUSH32 0x8C379A000000000000000000000000000000000000000000000000000000000 DUP2 MSTORE PUSH1 0x4 ADD PUSH2 0x861 SWAP1 PUSH2 0xD6D JUMP JUMPDEST PUSH1 0x40 MLOAD DUP1 SWAP2 SUB SWAP1 REVERT JUMPDEST DUP1 PUSH1 0x2 PUSH1 0x0 CALLER PUSH20 0xFFFFFFFFFFFFFFFFFFFFFFFFFFFFFFFFFFFFFFFF AND PUSH20 0xFFFFFFFFFFFFFFFFFFFFFFFFFFFFFFFFFFFFFFFF AND DUP2 MSTORE PUSH1 0x20 ADD SWAP1 DUP2 MSTORE PUSH1 0x20 ADD PUSH1 0x0 KECCAK256 PUSH1 0x0 DUP3 DUP3 SLOAD PUSH2 0x8B9 SWAP2 SWAP1 PUSH2 0xD8D JUMP JUMPDEST SWAP3 POP POP DUP2 SWAP1 SSTORE POP DUP1 PUSH1 0x2 PUSH1 0x0 DUP5 PUSH20 0xFFFFFFFFFFFFFFFFFFFFFFFFFFFFFFFFFFFFFFFF AND PUSH20 0xFFFFFFFFFFFFFFFFFFFFFFFFFFFFFFFFFFFFFFFF AND DUP2 MSTORE PUSH1 0x20 ADD SWAP1 DUP2 MSTORE PUSH1 0x20 ADD PUSH1 0x0 KECCAK256 PUSH1 0x0 DUP3 DUP3 SLOAD PUSH2 0x90F SWAP2 SWAP1 PUSH2 0xC5F JUMP JUMPDEST SWAP3 POP POP DUP2 SWAP1 SSTORE POP POP POP JUMP JUMPDEST PUSH1 0x0 DUP2 MLOAD SWAP1 POP SWAP2 SWAP1 POP JUMP JUMPDEST PUSH1 0x0 DUP3 DUP3 MSTORE PUSH1 0x20 DUP3 ADD SWAP1 POP SWAP3 SWAP2 POP POP JUMP JUMPDEST PUSH1 0x0 JUMPDEST DUP4 DUP2 LT ISZERO PUSH2 0x954 JUMPI DUP1 DUP3 ADD MLOAD DUP2 DUP5 ADD MSTORE PUSH1 0x20 DUP2 ADD SWAP1 POP PUSH2 0x939 JUMP JUMPDEST DUP4 DUP2 GT ISZERO PUSH2 0x963 JUMPI PUSH1 0x0 DUP5 DUP5 ADD MSTORE JUMPDEST POP POP POP POP JUMP JUMPDEST PUSH1 0x0 PUSH1 0x1F NOT PUSH1 0x1F DUP4 ADD AND SWAP1 POP SWAP2 SWAP1 POP JUMP JUMPDEST PUSH1 0x0 PUSH2 0x985 DUP3 PUSH2 0x91A JUMP JUMPDEST PUSH2 0x98F DUP2 DUP6 PUSH2 0x925 JUMP JUMPDEST SWAP4 POP PUSH2 0x99F DUP2 DUP6 PUSH1 0x20 DUP7 ADD PUSH2 0x936 JUMP JUMPDEST PUSH2 0x9A8 DUP2 PUSH2 0x969 JUMP JUMPDEST DUP5 ADD SWAP2 POP POP SWAP3 SWAP2 POP POP JUMP JUMPDEST PUSH1 0x0 PUSH1 0x20 DUP3 ADD SWAP1 POP DUP2 DUP2 SUB PUSH1 0x0 DUP4 ADD MSTORE PUSH2 0x9CD DUP2 DUP5 PUSH2 0x97A JUMP JUMPDEST SWAP1 POP SWAP3 SWAP2 POP POP JUMP JUMPDEST PUSH1 0x0 DUP1 REVERT JUMPDEST PUSH1 0x0 PUSH20 0xFFFFFFFFFFFFFFFFFFFFFFFFFFFFFFFFFFFFFFFF DUP3 AND SWAP1 POP SWAP2 SWAP1 POP JUMP JUMPDEST PUSH1 0x0 PUSH2 0xA05 DUP3 PUSH2 0x9DA JUMP JUMPDEST SWAP1 POP SWAP2 SWAP1 POP JUMP JUMPDEST PUSH2 0xA15 DUP2 PUSH2 0x9FA JUMP JUMPDEST DUP2 EQ PUSH2 0xA20 JUMPI PUSH1 0x0 DUP1 REVERT JUMPDEST POP JUMP JUMPDEST PUSH1 0x0 DUP2 CALLDATALOAD SWAP1 POP PUSH2 0xA32 DUP2 PUSH2 0xA0C JUMP JUMPDEST SWAP3 SWAP2 POP POP JUMP JUMPDEST PUSH1 0x0 DUP2 SWAP1 POP SWAP2 SWAP1 POP JUMP JUMPDEST PUSH2 0xA4B DUP2 PUSH2 0xA38 JUMP JUMPDEST DUP2 EQ PUSH2 0xA56 JUMPI PUSH1 0x0 DUP1 REVERT JUMPDEST POP JUMP JUMPDEST PUSH1 0x0 DUP2 CALLDATALOAD SWAP1 POP PUSH2 0xA68 DUP2 PUSH2 0xA42 JUMP JUMPDEST SWAP3 SWAP2 POP POP JUMP JUMPDEST PUSH1 0x0 DUP1 PUSH1 0x40 DUP4 DUP6 SUB SLT ISZERO PUSH2 0xA85 JUMPI PUSH2 0xA84 PUSH2 0x9D5 JUMP JUMPDEST JUMPDEST PUSH1 0x0 PUSH2 0xA93 DUP6 DUP3 DUP7 ADD PUSH2 0xA23 JUMP JUMPDEST SWAP3 POP POP PUSH1 0x20 PUSH2 0xAA4 DUP6 DUP3 DUP7 ADD PUSH2 0xA59 JUMP JUMPDEST SWAP2 POP POP SWAP3 POP SWAP3 SWAP1 POP JUMP JUMPDEST PUSH1 0x0 DUP1 PUSH1 0x0 PUSH1 0x60 DUP5 DUP7 SUB SLT ISZERO PUSH2 0xAC7 JUMPI PUSH2 0xAC6 PUSH2 0x9D5 JUMP JUMPDEST JUMPDEST PUSH1 0x0 PUSH2 0xAD5 DUP7 DUP3 DUP8 ADD PUSH2 0xA23 JUMP JUMPDEST SWAP4 POP POP PUSH1 0x20 PUSH2 0xAE6 DUP7 DUP3 DUP8 ADD PUSH2 0xA23 JUMP JUMPDEST SWAP3 POP POP PUSH1 0x40 PUSH2 0xAF7 DUP7 DUP3 DUP8 ADD PUSH2 0xA59 JUMP JUMPDEST SWAP2 POP POP SWAP3 POP SWAP3 POP SWAP3 JUMP JUMPDEST PUSH1 0x0 PUSH1 0x20 DUP3 DUP5 SUB SLT ISZERO PUSH2 0xB17 JUMPI PUSH2 0xB16 PUSH2 0x9D5 JUMP JUMPDEST JUMPDEST PUSH1 0x0 PUSH2 0xB25 DUP5 DUP3 DUP6 ADD PUSH2 0xA23 JUMP JUMPDEST SWAP2 POP POP SWAP3 SWAP2 POP POP JUMP JUMPDEST PUSH2 0xB37 DUP2 PUSH2 0xA38 JUMP JUMPDEST DUP3 MSTORE POP POP JUMP JUMPDEST PUSH1 0x0 PUSH1 0x20 DUP3 ADD SWAP1 POP PUSH2 0xB52 PUSH1 0x0 DUP4 ADD DUP5 PUSH2 0xB2E JUMP JUMPDEST SWAP3 SWAP2 POP POP JUMP JUMPDEST PUSH1 0x0 PUSH1 0xFF DUP3 AND SWAP1 POP SWAP2 SWAP1 POP JUMP JUMPDEST PUSH2 0xB6E DUP2 PUSH2 0xB58 JUMP JUMPDEST DUP3 MSTORE POP POP JUMP JUMPDEST PUSH1 0x0 PUSH1 0x20 DUP3 ADD SWAP1 POP PUSH2 0xB89 PUSH1 0x0 DUP4 ADD DUP5 PUSH2 0xB65 JUMP JUMPDEST SWAP3 SWAP2 POP POP JUMP JUMPDEST PUSH1 0x0 DUP1 PUSH1 0x40 DUP4 DUP6 SUB SLT ISZERO PUSH2 0xBA6 JUMPI PUSH2 0xBA5 PUSH2 0x9D5 JUMP JUMPDEST JUMPDEST PUSH1 0x0 PUSH2 0xBB4 DUP6 DUP3 DUP7 ADD PUSH2 0xA23 JUMP JUMPDEST SWAP3 POP POP PUSH1 0x20 PUSH2 0xBC5 DUP6 DUP3 DUP7 ADD PUSH2 0xA23 JUMP JUMPDEST SWAP2 POP POP SWAP3 POP SWAP3 SWAP1 POP JUMP JUMPDEST PUSH32 0x4E487B7100000000000000000000000000000000000000000000000000000000 PUSH1 0x0 MSTORE PUSH1 0x22 PUSH1 0x4 MSTORE PUSH1 0x24 PUSH1 0x0 REVERT JUMPDEST PUSH1 0x0 PUSH1 0x2 DUP3 DIV SWAP1 POP PUSH1 0x1 DUP3 AND DUP1 PUSH2 0xC16 JUMPI PUSH1 0x7F DUP3 AND SWAP2 POP JUMPDEST PUSH1 0x20 DUP3 LT DUP2 EQ ISZERO PUSH2 0xC2A JUMPI PUSH2 0xC29 PUSH2 0xBCF JUMP JUMPDEST JUMPDEST POP SWAP2 SWAP1 POP JUMP JUMPDEST PUSH32 0x4E487B7100000000000000000000000000000000000000000000000000000000 PUSH1 0x0 MSTORE PUSH1 0x11 PUSH1 0x4 MSTORE PUSH1 0x24 PUSH1 0x0 REVERT JUMPDEST PUSH1 0x0 PUSH2 0xC6A DUP3 PUSH2 0xA38 JUMP JUMPDEST SWAP2 POP PUSH2 0xC75 DUP4 PUSH2 0xA38 JUMP JUMPDEST SWAP3 POP DUP3 PUSH32 0xFFFFFFFFFFFFFFFFFFFFFFFFFFFFFFFFFFFFFFFFFFFFFFFFFFFFFFFFFFFFFFFF SUB DUP3 GT ISZERO PUSH2 0xCAA JUMPI PUSH2 0xCA9 PUSH2 0xC30 JUMP JUMPDEST JUMPDEST DUP3 DUP3 ADD SWAP1 POP SWAP3 SWAP2 POP POP JUMP JUMPDEST PUSH32 0x6E6F7420656E6F75676820616C6C6F77616E6365000000000000000000000000 PUSH1 0x0 DUP3 ADD MSTORE POP JUMP JUMPDEST PUSH1 0x0 PUSH2 0xCEB PUSH1 0x14 DUP4 PUSH2 0x925 JUMP JUMPDEST SWAP2 POP PUSH2 0xCF6 DUP3 PUSH2 0xCB5 JUMP JUMPDEST PUSH1 0x20 DUP3 ADD SWAP1 POP SWAP2 SWAP1 POP JUMP JUMPDEST PUSH1 0x0 PUSH1 0x20 DUP3 ADD SWAP1 POP DUP2 DUP2 SUB PUSH1 0x0 DUP4 ADD MSTORE PUSH2 0xD1A DUP2 PUSH2 0xCDE JUMP JUMPDEST SWAP1 POP SWAP2 SWAP1 POP JUMP JUMPDEST PUSH32 0x6E6F7420656E6F7567682062616C616E63650000000000000000000000000000 PUSH1 0x0 DUP3 ADD MSTORE POP JUMP JUMPDEST PUSH1 0x0 PUSH2 0xD57 PUSH1 0x12 DUP4 PUSH2 0x925 JUMP JUMPDEST SWAP2 POP PUSH2 0xD62 DUP3 PUSH2 0xD21 JUMP JUMPDEST PUSH1 0x20 DUP3 ADD SWAP1 POP SWAP2 SWAP1 POP JUMP JUMPDEST PUSH1 0x0 PUSH1 0x20 DUP3 ADD SWAP1 POP DUP2 DUP2 SUB PUSH1 0x0 DUP4 ADD MSTORE PUSH2 0xD86 DUP2 PUSH2 0xD4A JUMP JUMPDEST SWAP1 POP SWAP2 SWAP1 POP JUMP JUMPDEST PUSH1 0x0 PUSH2 0xD98 DUP3 PUSH2 0xA38 JUMP JUMPDEST SWAP2 POP PUSH2 0xDA3 DUP4 PUSH2 0xA38 JUMP JUMPDEST SWAP3 POP DUP3 DUP3 LT ISZERO PUSH2 0xDB6 JUMPI PUSH2 0xDB5 PUSH2 0xC30 JUMP JUMPDEST JUMPDEST DUP3 DUP3 SUB SWAP1 POP SWAP3 SWAP2 POP POP JUMP INVALID LOG2 PUSH5 0x6970667358 0x22 SLT KECCAK256 0x1F PC DUP14 BYTE 0xC4 SWAP6 0xB2 0x28 0xDF COINBASE 0xB1 0x49 0xBB STOP 0xE3 0xE9 0x4D 0xD3 CODESIZE 0x1E 0xF SAR LOG2 0xEC 0xCB 0xF7 0xDA PUSH19 0x209B2B5B64736F6C634300080C003300000000 "
				},
				"gasEstimates": {
					"creation": {
						"codeDepositCost": "715000",
						"executionCost": "infinite",
						"totalCost": "infinite"
					},
					"external": {
						"allowances(address,address)": "infinite",
						"approve(address,uint256)": "infinite",
						"balances(address)": "2881",
						"checkAllowance(address,address)": "infinite",
						"checkBalance(address)": "2885",
						"decimals()": "432",
						"mint(address,uint256)": "infinite",
						"name()": "infinite",
						"symbol()": "infinite",
						"transfer(address,uint256)": "infinite",
						"transferFrom(address,address,uint256)": "infinite"
					}
				},
				"methodIdentifiers": {
					"allowances(address,address)": "55b6ed5c",
					"approve(address,uint256)": "095ea7b3",
					"balances(address)": "27e235e3",
					"checkAllowance(address,address)": "8b099b23",
					"checkBalance(address)": "5f515226",
					"decimals()": "313ce567",
					"mint(address,uint256)": "40c10f19",
					"name()": "06fdde03",
					"symbol()": "95d89b41",
					"transfer(address,uint256)": "a9059cbb",
					"transferFrom(address,address,uint256)": "23b872dd"
				}
			},
			"storageLayout": {
				"storage": [
					{
						"astId": 3,
						"contract": "contracts/FirstContract.sol:SmartContract",
						"label": "_name",
						"offset": 0,
						"slot": "0",
						"type": "t_string_storage"
					},
					{
						"astId": 5,
						"contract": "contracts/FirstContract.sol:SmartContract",
						"label": "_symbol",
						"offset": 0,
						"slot": "1",
						"type": "t_string_storage"
					},
					{
						"astId": 9,
						"contract": "contracts/FirstContract.sol:SmartContract",
						"label": "balances",
						"offset": 0,
						"slot": "2",
						"type": "t_mapping(t_address,t_uint256)"
					},
					{
						"astId": 100,
						"contract": "contracts/FirstContract.sol:SmartContract",
						"label": "allowances",
						"offset": 0,
						"slot": "3",
						"type": "t_mapping(t_address,t_mapping(t_address,t_uint256))"
					}
				],
				"types": {
					"t_address": {
						"encoding": "inplace",
						"label": "address",
						"numberOfBytes": "20"
					},
					"t_mapping(t_address,t_mapping(t_address,t_uint256))": {
						"encoding": "mapping",
						"key": "t_address",
						"label": "mapping(address => mapping(address => uint256))",
						"numberOfBytes": "32",
						"value": "t_mapping(t_address,t_uint256)"
					},
					"t_mapping(t_address,t_uint256)": {
						"encoding": "mapping",
						"key": "t_address",
						"label": "mapping(address => uint256)",
						"numberOfBytes": "32",
						"value": "t_uint256"
					},
					"t_string_storage": {
						"encoding": "bytes",
						"label": "string",
						"numberOfBytes": "32"
					},
					"t_uint256": {
						"encoding": "inplace",
						"label": "uint256",
						"numberOfBytes": "32"
					}
				}
			},
			"userdoc": {
				"kind": "user",
				"methods": {},
				"version": 1
			}
		}
	}
}