{
	"contracts/ERC-721.sol": {
		"ERC_721": {
			"abi": [
				{
					"inputs": [
						{
							"internalType": "string",
							"name": "name_",
							"type": "string"
						},
						{
							"internalType": "string",
							"name": "symbol_",
							"type": "string"
						}
					],
					"stateMutability": "nonpayable",
					"type": "constructor"
				},
				{
					"inputs": [
						{
							"internalType": "address",
							"name": "",
							"type": "address"
						},
						{
							"internalType": "address",
							"name": "",
							"type": "address"
						}
					],
					"name": "allowances",
					"outputs": [
						{
							"internalType": "uint256",
							"name": "",
							"type": "uint256"
						}
					],
					"stateMutability": "view",
					"type": "function"
				},
				{
					"inputs": [
						{
							"internalType": "address",
							"name": "to",
							"type": "address"
						},
						{
							"internalType": "uint256",
							"name": "id",
							"type": "uint256"
						}
					],
					"name": "approve",
					"outputs": [],
					"stateMutability": "nonpayable",
					"type": "function"
				},
				{
					"inputs": [
						{
							"internalType": "address",
							"name": "_owner",
							"type": "address"
						}
					],
					"name": "balanceOf",
					"outputs": [
						{
							"internalType": "uint256",
							"name": "",
							"type": "uint256"
						}
					],
					"stateMutability": "view",
					"type": "function"
				},
				{
					"inputs": [
						{
							"internalType": "address",
							"name": "",
							"type": "address"
						}
					],
					"name": "balances",
					"outputs": [
						{
							"internalType": "uint256",
							"name": "",
							"type": "uint256"
						}
					],
					"stateMutability": "view",
					"type": "function"
				},
				{
					"inputs": [
						{
							"internalType": "address",
							"name": "to",
							"type": "address"
						},
						{
							"internalType": "uint256",
							"name": "id",
							"type": "uint256"
						}
					],
					"name": "mint",
					"outputs": [],
					"stateMutability": "nonpayable",
					"type": "function"
				},
				{
					"inputs": [],
					"name": "name",
					"outputs": [
						{
							"internalType": "string",
							"name": "",
							"type": "string"
						}
					],
					"stateMutability": "view",
					"type": "function"
				},
				{
					"inputs": [
						{
							"internalType": "uint256",
							"name": "id",
							"type": "uint256"
						}
					],
					"name": "ownerOf",
					"outputs": [
						{
							"internalType": "address",
							"name": "",
							"type": "address"
						}
					],
					"stateMutability": "view",
					"type": "function"
				},
				{
					"inputs": [
						{
							"internalType": "uint256",
							"name": "",
							"type": "uint256"
						}
					],
					"name": "owners",
					"outputs": [
						{
							"internalType": "address",
							"name": "",
							"type": "address"
						}
					],
					"stateMutability": "view",
					"type": "function"
				},
				{
					"inputs": [],
					"name": "symbol",
					"outputs": [
						{
							"internalType": "string",
							"name": "",
							"type": "string"
						}
					],
					"stateMutability": "view",
					"type": "function"
				},
				{
					"inputs": [
						{
							"internalType": "address",
							"name": "to",
							"type": "address"
						},
						{
							"internalType": "uint256",
							"name": "id",
							"type": "uint256"
						}
					],
					"name": "transfer",
					"outputs": [],
					"stateMutability": "nonpayable",
					"type": "function"
				},
				{
					"inputs": [
						{
							"internalType": "address",
							"name": "from",
							"type": "address"
						},
						{
							"internalType": "address",
							"name": "to",
							"type": "address"
						},
						{
							"internalType": "uint256",
							"name": "id",
							"type": "uint256"
						}
					],
					"name": "transferFrom",
					"outputs": [],
					"stateMutability": "nonpayable",
					"type": "function"
				}
			],
			"devdoc": {
				"kind": "dev",
				"methods": {},
				"version": 1
			},
			"evm": {
				"assembly": "    /* \"contracts/ERC-721.sol\":71:1615  contract ERC_721 {\r... */\n  mstore(0x40, 0x80)\n    /* \"contracts/ERC-721.sol\":137:253  constructor(string memory name_, string memory symbol_) {\r... */\n  callvalue\n  dup1\n  iszero\n  tag_1\n  jumpi\n  0x00\n  dup1\n  revert\ntag_1:\n  pop\n  mload(0x40)\n  sub(codesize, bytecodeSize)\n  dup1\n  bytecodeSize\n  dup4\n  codecopy\n  dup2\n  dup2\n  add\n  0x40\n  mstore\n  dup2\n  add\n  swap1\n  tag_2\n  swap2\n  swap1\n  tag_3\n  jump\t// in\ntag_2:\n    /* \"contracts/ERC-721.sol\":212:217  name_ */\n  dup2\n    /* \"contracts/ERC-721.sol\":204:209  _name */\n  0x00\n    /* \"contracts/ERC-721.sol\":204:217  _name = name_ */\n  swap1\n  dup1\n  mload\n  swap1\n  0x20\n  add\n  swap1\n  tag_6\n  swap3\n  swap2\n  swap1\n  tag_7\n  jump\t// in\ntag_6:\n  pop\n    /* \"contracts/ERC-721.sol\":238:245  symbol_ */\n  dup1\n    /* \"contracts/ERC-721.sol\":228:235  _symbol */\n  0x01\n    /* \"contracts/ERC-721.sol\":228:245  _symbol = symbol_ */\n  swap1\n  dup1\n  mload\n  swap1\n  0x20\n  add\n  swap1\n  tag_8\n  swap3\n  swap2\n  swap1\n  tag_7\n  jump\t// in\ntag_8:\n  pop\n    /* \"contracts/ERC-721.sol\":137:253  constructor(string memory name_, string memory symbol_) {\r... */\n  pop\n  pop\n    /* \"contracts/ERC-721.sol\":71:1615  contract ERC_721 {\r... */\n  jump(tag_9)\ntag_7:\n  dup3\n  dup1\n  sload\n  tag_10\n  swap1\n  tag_11\n  jump\t// in\ntag_10:\n  swap1\n  0x00\n  mstore\n  keccak256(0x00, 0x20)\n  swap1\n  0x1f\n  add\n  0x20\n  swap1\n  div\n  dup2\n  add\n  swap3\n  dup3\n  tag_13\n  jumpi\n  0x00\n  dup6\n  sstore\n  jump(tag_12)\ntag_13:\n  dup3\n  0x1f\n  lt\n  tag_14\n  jumpi\n  dup1\n  mload\n  not(0xff)\n  and\n  dup4\n  dup1\n  add\n  or\n  dup6\n  sstore\n  jump(tag_12)\ntag_14:\n  dup3\n  dup1\n  add\n  0x01\n  add\n  dup6\n  sstore\n  dup3\n  iszero\n  tag_12\n  jumpi\n  swap2\n  dup3\n  add\ntag_15:\n  dup3\n  dup2\n  gt\n  iszero\n  tag_16\n  jumpi\n  dup3\n  mload\n  dup3\n  sstore\n  swap2\n  0x20\n  add\n  swap2\n  swap1\n  0x01\n  add\n  swap1\n  jump(tag_15)\ntag_16:\ntag_12:\n  pop\n  swap1\n  pop\n  tag_17\n  swap2\n  swap1\n  tag_18\n  jump\t// in\ntag_17:\n  pop\n  swap1\n  jump\t// out\ntag_18:\ntag_19:\n  dup1\n  dup3\n  gt\n  iszero\n  tag_20\n  jumpi\n  0x00\n  dup2\n  0x00\n  swap1\n  sstore\n  pop\n  0x01\n  add\n  jump(tag_19)\ntag_20:\n  pop\n  swap1\n  jump\t// out\n    /* \"#utility.yul\":7:428   */\ntag_22:\n    /* \"#utility.yul\":96:101   */\n  0x00\n    /* \"#utility.yul\":121:187   */\n  tag_24\n    /* \"#utility.yul\":137:186   */\n  tag_25\n    /* \"#utility.yul\":179:185   */\n  dup5\n    /* \"#utility.yul\":137:186   */\n  tag_26\n  jump\t// in\ntag_25:\n    /* \"#utility.yul\":121:187   */\n  tag_27\n  jump\t// in\ntag_24:\n    /* \"#utility.yul\":112:187   */\n  swap1\n  pop\n    /* \"#utility.yul\":210:216   */\n  dup3\n    /* \"#utility.yul\":203:208   */\n  dup2\n    /* \"#utility.yul\":196:217   */\n  mstore\n    /* \"#utility.yul\":248:252   */\n  0x20\n    /* \"#utility.yul\":241:246   */\n  dup2\n    /* \"#utility.yul\":237:253   */\n  add\n    /* \"#utility.yul\":286:289   */\n  dup5\n    /* \"#utility.yul\":277:283   */\n  dup5\n    /* \"#utility.yul\":272:275   */\n  dup5\n    /* \"#utility.yul\":268:284   */\n  add\n    /* \"#utility.yul\":265:290   */\n  gt\n    /* \"#utility.yul\":262:374   */\n  iszero\n  tag_28\n  jumpi\n    /* \"#utility.yul\":293:372   */\n  tag_29\n  tag_30\n  jump\t// in\ntag_29:\n    /* \"#utility.yul\":262:374   */\ntag_28:\n    /* \"#utility.yul\":383:422   */\n  tag_31\n    /* \"#utility.yul\":415:421   */\n  dup5\n    /* \"#utility.yul\":410:413   */\n  dup3\n    /* \"#utility.yul\":405:408   */\n  dup6\n    /* \"#utility.yul\":383:422   */\n  tag_32\n  jump\t// in\ntag_31:\n    /* \"#utility.yul\":102:428   */\n  pop\n    /* \"#utility.yul\":7:428   */\n  swap4\n  swap3\n  pop\n  pop\n  pop\n  jump\t// out\n    /* \"#utility.yul\":448:803   */\ntag_33:\n    /* \"#utility.yul\":515:520   */\n  0x00\n    /* \"#utility.yul\":564:567   */\n  dup3\n    /* \"#utility.yul\":557:561   */\n  0x1f\n    /* \"#utility.yul\":549:555   */\n  dup4\n    /* \"#utility.yul\":545:562   */\n  add\n    /* \"#utility.yul\":541:568   */\n  slt\n    /* \"#utility.yul\":531:653   */\n  tag_35\n  jumpi\n    /* \"#utility.yul\":572:651   */\n  tag_36\n  tag_37\n  jump\t// in\ntag_36:\n    /* \"#utility.yul\":531:653   */\ntag_35:\n    /* \"#utility.yul\":682:688   */\n  dup2\n    /* \"#utility.yul\":676:689   */\n  mload\n    /* \"#utility.yul\":707:797   */\n  tag_38\n    /* \"#utility.yul\":793:796   */\n  dup5\n    /* \"#utility.yul\":785:791   */\n  dup3\n    /* \"#utility.yul\":778:782   */\n  0x20\n    /* \"#utility.yul\":770:776   */\n  dup7\n    /* \"#utility.yul\":766:783   */\n  add\n    /* \"#utility.yul\":707:797   */\n  tag_22\n  jump\t// in\ntag_38:\n    /* \"#utility.yul\":698:797   */\n  swap2\n  pop\n    /* \"#utility.yul\":521:803   */\n  pop\n    /* \"#utility.yul\":448:803   */\n  swap3\n  swap2\n  pop\n  pop\n  jump\t// out\n    /* \"#utility.yul\":809:1662   */\ntag_3:\n    /* \"#utility.yul\":908:914   */\n  0x00\n    /* \"#utility.yul\":916:922   */\n  dup1\n    /* \"#utility.yul\":965:967   */\n  0x40\n    /* \"#utility.yul\":953:962   */\n  dup4\n    /* \"#utility.yul\":944:951   */\n  dup6\n    /* \"#utility.yul\":940:963   */\n  sub\n    /* \"#utility.yul\":936:968   */\n  slt\n    /* \"#utility.yul\":933:1052   */\n  iszero\n  tag_40\n  jumpi\n    /* \"#utility.yul\":971:1050   */\n  tag_41\n  tag_42\n  jump\t// in\ntag_41:\n    /* \"#utility.yul\":933:1052   */\ntag_40:\n    /* \"#utility.yul\":1112:1113   */\n  0x00\n    /* \"#utility.yul\":1101:1110   */\n  dup4\n    /* \"#utility.yul\":1097:1114   */\n  add\n    /* \"#utility.yul\":1091:1115   */\n  mload\n    /* \"#utility.yul\":1142:1160   */\n  0xffffffffffffffff\n    /* \"#utility.yul\":1134:1140   */\n  dup2\n    /* \"#utility.yul\":1131:1161   */\n  gt\n    /* \"#utility.yul\":1128:1245   */\n  iszero\n  tag_43\n  jumpi\n    /* \"#utility.yul\":1164:1243   */\n  tag_44\n  tag_45\n  jump\t// in\ntag_44:\n    /* \"#utility.yul\":1128:1245   */\ntag_43:\n    /* \"#utility.yul\":1269:1343   */\n  tag_46\n    /* \"#utility.yul\":1335:1342   */\n  dup6\n    /* \"#utility.yul\":1326:1332   */\n  dup3\n    /* \"#utility.yul\":1315:1324   */\n  dup7\n    /* \"#utility.yul\":1311:1333   */\n  add\n    /* \"#utility.yul\":1269:1343   */\n  tag_33\n  jump\t// in\ntag_46:\n    /* \"#utility.yul\":1259:1343   */\n  swap3\n  pop\n    /* \"#utility.yul\":1062:1353   */\n  pop\n    /* \"#utility.yul\":1413:1415   */\n  0x20\n    /* \"#utility.yul\":1402:1411   */\n  dup4\n    /* \"#utility.yul\":1398:1416   */\n  add\n    /* \"#utility.yul\":1392:1417   */\n  mload\n    /* \"#utility.yul\":1444:1462   */\n  0xffffffffffffffff\n    /* \"#utility.yul\":1436:1442   */\n  dup2\n    /* \"#utility.yul\":1433:1463   */\n  gt\n    /* \"#utility.yul\":1430:1547   */\n  iszero\n  tag_47\n  jumpi\n    /* \"#utility.yul\":1466:1545   */\n  tag_48\n  tag_45\n  jump\t// in\ntag_48:\n    /* \"#utility.yul\":1430:1547   */\ntag_47:\n    /* \"#utility.yul\":1571:1645   */\n  tag_49\n    /* \"#utility.yul\":1637:1644   */\n  dup6\n    /* \"#utility.yul\":1628:1634   */\n  dup3\n    /* \"#utility.yul\":1617:1626   */\n  dup7\n    /* \"#utility.yul\":1613:1635   */\n  add\n    /* \"#utility.yul\":1571:1645   */\n  tag_33\n  jump\t// in\ntag_49:\n    /* \"#utility.yul\":1561:1645   */\n  swap2\n  pop\n    /* \"#utility.yul\":1363:1655   */\n  pop\n    /* \"#utility.yul\":809:1662   */\n  swap3\n  pop\n  swap3\n  swap1\n  pop\n  jump\t// out\n    /* \"#utility.yul\":1668:1797   */\ntag_27:\n    /* \"#utility.yul\":1702:1708   */\n  0x00\n    /* \"#utility.yul\":1729:1749   */\n  tag_51\n  tag_52\n  jump\t// in\ntag_51:\n    /* \"#utility.yul\":1719:1749   */\n  swap1\n  pop\n    /* \"#utility.yul\":1758:1791   */\n  tag_53\n    /* \"#utility.yul\":1786:1790   */\n  dup3\n    /* \"#utility.yul\":1778:1784   */\n  dup3\n    /* \"#utility.yul\":1758:1791   */\n  tag_54\n  jump\t// in\ntag_53:\n    /* \"#utility.yul\":1668:1797   */\n  swap2\n  swap1\n  pop\n  jump\t// out\n    /* \"#utility.yul\":1803:1878   */\ntag_52:\n    /* \"#utility.yul\":1836:1842   */\n  0x00\n    /* \"#utility.yul\":1869:1871   */\n  0x40\n    /* \"#utility.yul\":1863:1872   */\n  mload\n    /* \"#utility.yul\":1853:1872   */\n  swap1\n  pop\n    /* \"#utility.yul\":1803:1878   */\n  swap1\n  jump\t// out\n    /* \"#utility.yul\":1884:2192   */\ntag_26:\n    /* \"#utility.yul\":1946:1950   */\n  0x00\n    /* \"#utility.yul\":2036:2054   */\n  0xffffffffffffffff\n    /* \"#utility.yul\":2028:2034   */\n  dup3\n    /* \"#utility.yul\":2025:2055   */\n  gt\n    /* \"#utility.yul\":2022:2078   */\n  iszero\n  tag_57\n  jumpi\n    /* \"#utility.yul\":2058:2076   */\n  tag_58\n  tag_59\n  jump\t// in\ntag_58:\n    /* \"#utility.yul\":2022:2078   */\ntag_57:\n    /* \"#utility.yul\":2096:2125   */\n  tag_60\n    /* \"#utility.yul\":2118:2124   */\n  dup3\n    /* \"#utility.yul\":2096:2125   */\n  tag_61\n  jump\t// in\ntag_60:\n    /* \"#utility.yul\":2088:2125   */\n  swap1\n  pop\n    /* \"#utility.yul\":2180:2184   */\n  0x20\n    /* \"#utility.yul\":2174:2178   */\n  dup2\n    /* \"#utility.yul\":2170:2185   */\n  add\n    /* \"#utility.yul\":2162:2185   */\n  swap1\n  pop\n    /* \"#utility.yul\":1884:2192   */\n  swap2\n  swap1\n  pop\n  jump\t// out\n    /* \"#utility.yul\":2198:2505   */\ntag_32:\n    /* \"#utility.yul\":2266:2267   */\n  0x00\n    /* \"#utility.yul\":2276:2389   */\ntag_63:\n    /* \"#utility.yul\":2290:2296   */\n  dup4\n    /* \"#utility.yul\":2287:2288   */\n  dup2\n    /* \"#utility.yul\":2284:2297   */\n  lt\n    /* \"#utility.yul\":2276:2389   */\n  iszero\n  tag_65\n  jumpi\n    /* \"#utility.yul\":2375:2376   */\n  dup1\n    /* \"#utility.yul\":2370:2373   */\n  dup3\n    /* \"#utility.yul\":2366:2377   */\n  add\n    /* \"#utility.yul\":2360:2378   */\n  mload\n    /* \"#utility.yul\":2356:2357   */\n  dup2\n    /* \"#utility.yul\":2351:2354   */\n  dup5\n    /* \"#utility.yul\":2347:2358   */\n  add\n    /* \"#utility.yul\":2340:2379   */\n  mstore\n    /* \"#utility.yul\":2312:2314   */\n  0x20\n    /* \"#utility.yul\":2309:2310   */\n  dup2\n    /* \"#utility.yul\":2305:2315   */\n  add\n    /* \"#utility.yul\":2300:2315   */\n  swap1\n  pop\n    /* \"#utility.yul\":2276:2389   */\n  jump(tag_63)\ntag_65:\n    /* \"#utility.yul\":2407:2413   */\n  dup4\n    /* \"#utility.yul\":2404:2405   */\n  dup2\n    /* \"#utility.yul\":2401:2414   */\n  gt\n    /* \"#utility.yul\":2398:2499   */\n  iszero\n  tag_66\n  jumpi\n    /* \"#utility.yul\":2487:2488   */\n  0x00\n    /* \"#utility.yul\":2478:2484   */\n  dup5\n    /* \"#utility.yul\":2473:2476   */\n  dup5\n    /* \"#utility.yul\":2469:2485   */\n  add\n    /* \"#utility.yul\":2462:2489   */\n  mstore\n    /* \"#utility.yul\":2398:2499   */\ntag_66:\n    /* \"#utility.yul\":2247:2505   */\n  pop\n    /* \"#utility.yul\":2198:2505   */\n  pop\n  pop\n  pop\n  jump\t// out\n    /* \"#utility.yul\":2511:2831   */\ntag_11:\n    /* \"#utility.yul\":2555:2561   */\n  0x00\n    /* \"#utility.yul\":2592:2593   */\n  0x02\n    /* \"#utility.yul\":2586:2590   */\n  dup3\n    /* \"#utility.yul\":2582:2594   */\n  div\n    /* \"#utility.yul\":2572:2594   */\n  swap1\n  pop\n    /* \"#utility.yul\":2639:2640   */\n  0x01\n    /* \"#utility.yul\":2633:2637   */\n  dup3\n    /* \"#utility.yul\":2629:2641   */\n  and\n    /* \"#utility.yul\":2660:2678   */\n  dup1\n    /* \"#utility.yul\":2650:2731   */\n  tag_68\n  jumpi\n    /* \"#utility.yul\":2716:2720   */\n  0x7f\n    /* \"#utility.yul\":2708:2714   */\n  dup3\n    /* \"#utility.yul\":2704:2721   */\n  and\n    /* \"#utility.yul\":2694:2721   */\n  swap2\n  pop\n    /* \"#utility.yul\":2650:2731   */\ntag_68:\n    /* \"#utility.yul\":2778:2780   */\n  0x20\n    /* \"#utility.yul\":2770:2776   */\n  dup3\n    /* \"#utility.yul\":2767:2781   */\n  lt\n    /* \"#utility.yul\":2747:2765   */\n  dup2\n    /* \"#utility.yul\":2744:2782   */\n  eq\n    /* \"#utility.yul\":2741:2825   */\n  iszero\n  tag_69\n  jumpi\n    /* \"#utility.yul\":2797:2815   */\n  tag_70\n  tag_71\n  jump\t// in\ntag_70:\n    /* \"#utility.yul\":2741:2825   */\ntag_69:\n    /* \"#utility.yul\":2562:2831   */\n  pop\n    /* \"#utility.yul\":2511:2831   */\n  swap2\n  swap1\n  pop\n  jump\t// out\n    /* \"#utility.yul\":2837:3118   */\ntag_54:\n    /* \"#utility.yul\":2920:2947   */\n  tag_73\n    /* \"#utility.yul\":2942:2946   */\n  dup3\n    /* \"#utility.yul\":2920:2947   */\n  tag_61\n  jump\t// in\ntag_73:\n    /* \"#utility.yul\":2912:2918   */\n  dup2\n    /* \"#utility.yul\":2908:2948   */\n  add\n    /* \"#utility.yul\":3050:3056   */\n  dup2\n    /* \"#utility.yul\":3038:3048   */\n  dup2\n    /* \"#utility.yul\":3035:3057   */\n  lt\n    /* \"#utility.yul\":3014:3032   */\n  0xffffffffffffffff\n    /* \"#utility.yul\":3002:3012   */\n  dup3\n    /* \"#utility.yul\":2999:3033   */\n  gt\n    /* \"#utility.yul\":2996:3058   */\n  or\n    /* \"#utility.yul\":2993:3081   */\n  iszero\n  tag_74\n  jumpi\n    /* \"#utility.yul\":3061:3079   */\n  tag_75\n  tag_59\n  jump\t// in\ntag_75:\n    /* \"#utility.yul\":2993:3081   */\ntag_74:\n    /* \"#utility.yul\":3101:3111   */\n  dup1\n    /* \"#utility.yul\":3097:3099   */\n  0x40\n    /* \"#utility.yul\":3090:3112   */\n  mstore\n    /* \"#utility.yul\":2880:3118   */\n  pop\n    /* \"#utility.yul\":2837:3118   */\n  pop\n  pop\n  jump\t// out\n    /* \"#utility.yul\":3124:3304   */\ntag_71:\n    /* \"#utility.yul\":3172:3249   */\n  0x4e487b7100000000000000000000000000000000000000000000000000000000\n    /* \"#utility.yul\":3169:3170   */\n  0x00\n    /* \"#utility.yul\":3162:3250   */\n  mstore\n    /* \"#utility.yul\":3269:3273   */\n  0x22\n    /* \"#utility.yul\":3266:3267   */\n  0x04\n    /* \"#utility.yul\":3259:3274   */\n  mstore\n    /* \"#utility.yul\":3293:3297   */\n  0x24\n    /* \"#utility.yul\":3290:3291   */\n  0x00\n    /* \"#utility.yul\":3283:3298   */\n  revert\n    /* \"#utility.yul\":3310:3490   */\ntag_59:\n    /* \"#utility.yul\":3358:3435   */\n  0x4e487b7100000000000000000000000000000000000000000000000000000000\n    /* \"#utility.yul\":3355:3356   */\n  0x00\n    /* \"#utility.yul\":3348:3436   */\n  mstore\n    /* \"#utility.yul\":3455:3459   */\n  0x41\n    /* \"#utility.yul\":3452:3453   */\n  0x04\n    /* \"#utility.yul\":3445:3460   */\n  mstore\n    /* \"#utility.yul\":3479:3483   */\n  0x24\n    /* \"#utility.yul\":3476:3477   */\n  0x00\n    /* \"#utility.yul\":3469:3484   */\n  revert\n    /* \"#utility.yul\":3496:3613   */\ntag_37:\n    /* \"#utility.yul\":3605:3606   */\n  0x00\n    /* \"#utility.yul\":3602:3603   */\n  dup1\n    /* \"#utility.yul\":3595:3607   */\n  revert\n    /* \"#utility.yul\":3619:3736   */\ntag_30:\n    /* \"#utility.yul\":3728:3729   */\n  0x00\n    /* \"#utility.yul\":3725:3726   */\n  dup1\n    /* \"#utility.yul\":3718:3730   */\n  revert\n    /* \"#utility.yul\":3742:3859   */\ntag_45:\n    /* \"#utility.yul\":3851:3852   */\n  0x00\n    /* \"#utility.yul\":3848:3849   */\n  dup1\n    /* \"#utility.yul\":3841:3853   */\n  revert\n    /* \"#utility.yul\":3865:3982   */\ntag_42:\n    /* \"#utility.yul\":3974:3975   */\n  0x00\n    /* \"#utility.yul\":3971:3972   */\n  dup1\n    /* \"#utility.yul\":3964:3976   */\n  revert\n    /* \"#utility.yul\":3988:4090   */\ntag_61:\n    /* \"#utility.yul\":4029:4035   */\n  0x00\n    /* \"#utility.yul\":4080:4082   */\n  0x1f\n    /* \"#utility.yul\":4076:4083   */\n  not\n    /* \"#utility.yul\":4071:4073   */\n  0x1f\n    /* \"#utility.yul\":4064:4069   */\n  dup4\n    /* \"#utility.yul\":4060:4074   */\n  add\n    /* \"#utility.yul\":4056:4084   */\n  and\n    /* \"#utility.yul\":4046:4084   */\n  swap1\n  pop\n    /* \"#utility.yul\":3988:4090   */\n  swap2\n  swap1\n  pop\n  jump\t// out\n    /* \"contracts/ERC-721.sol\":71:1615  contract ERC_721 {\r... */\ntag_9:\n  dataSize(sub_0)\n  dup1\n  dataOffset(sub_0)\n  0x00\n  codecopy\n  0x00\n  return\nstop\n\nsub_0: assembly {\n        /* \"contracts/ERC-721.sol\":71:1615  contract ERC_721 {\r... */\n      mstore(0x40, 0x80)\n      callvalue\n      dup1\n      iszero\n      tag_1\n      jumpi\n      0x00\n      dup1\n      revert\n    tag_1:\n      pop\n      jumpi(tag_2, lt(calldatasize, 0x04))\n      shr(0xe0, calldataload(0x00))\n      dup1\n      0x40c10f19\n      gt\n      tag_14\n      jumpi\n      dup1\n      0x40c10f19\n      eq\n      tag_8\n      jumpi\n      dup1\n      0x55b6ed5c\n      eq\n      tag_9\n      jumpi\n      dup1\n      0x6352211e\n      eq\n      tag_10\n      jumpi\n      dup1\n      0x70a08231\n      eq\n      tag_11\n      jumpi\n      dup1\n      0x95d89b41\n      eq\n      tag_12\n      jumpi\n      dup1\n      0xa9059cbb\n      eq\n      tag_13\n      jumpi\n      jump(tag_2)\n    tag_14:\n      dup1\n      0x025e7c27\n      eq\n      tag_3\n      jumpi\n      dup1\n      0x06fdde03\n      eq\n      tag_4\n      jumpi\n      dup1\n      0x095ea7b3\n      eq\n      tag_5\n      jumpi\n      dup1\n      0x23b872dd\n      eq\n      tag_6\n      jumpi\n      dup1\n      0x27e235e3\n      eq\n      tag_7\n      jumpi\n    tag_2:\n      0x00\n      dup1\n      revert\n        /* \"contracts/ERC-721.sol\":494:532  mapping(uint => address) public owners */\n    tag_3:\n      tag_15\n      0x04\n      dup1\n      calldatasize\n      sub\n      dup2\n      add\n      swap1\n      tag_16\n      swap2\n      swap1\n      tag_17\n      jump\t// in\n    tag_16:\n      tag_18\n      jump\t// in\n    tag_15:\n      mload(0x40)\n      tag_19\n      swap2\n      swap1\n      tag_20\n      jump\t// in\n    tag_19:\n      mload(0x40)\n      dup1\n      swap2\n      sub\n      swap1\n      return\n        /* \"contracts/ERC-721.sol\":261:344  function name() public view returns (string memory) {\r... */\n    tag_4:\n      tag_21\n      tag_22\n      jump\t// in\n    tag_21:\n      mload(0x40)\n      tag_23\n      swap2\n      swap1\n      tag_24\n      jump\t// in\n    tag_23:\n      mload(0x40)\n      dup1\n      swap2\n      sub\n      swap1\n      return\n        /* \"contracts/ERC-721.sol\":1157:1347  function approve(address to, uint id) public {\r... */\n    tag_5:\n      tag_25\n      0x04\n      dup1\n      calldatasize\n      sub\n      dup2\n      add\n      swap1\n      tag_26\n      swap2\n      swap1\n      tag_27\n      jump\t// in\n    tag_26:\n      tag_28\n      jump\t// in\n    tag_25:\n      stop\n        /* \"contracts/ERC-721.sol\":1355:1612  function transferFrom(address from, address to, uint id) public {\r... */\n    tag_6:\n      tag_29\n      0x04\n      dup1\n      calldatasize\n      sub\n      dup2\n      add\n      swap1\n      tag_30\n      swap2\n      swap1\n      tag_31\n      jump\t// in\n    tag_30:\n      tag_32\n      jump\t// in\n    tag_29:\n      stop\n        /* \"contracts/ERC-721.sol\":447:487  mapping(address => uint) public balances */\n    tag_7:\n      tag_33\n      0x04\n      dup1\n      calldatasize\n      sub\n      dup2\n      add\n      swap1\n      tag_34\n      swap2\n      swap1\n      tag_35\n      jump\t// in\n    tag_34:\n      tag_36\n      jump\t// in\n    tag_33:\n      mload(0x40)\n      tag_37\n      swap2\n      swap1\n      tag_38\n      jump\t// in\n    tag_37:\n      mload(0x40)\n      dup1\n      swap2\n      sub\n      swap1\n      return\n        /* \"contracts/ERC-721.sol\":541:643  function mint(address to, uint id) public {\r... */\n    tag_8:\n      tag_39\n      0x04\n      dup1\n      calldatasize\n      sub\n      dup2\n      add\n      swap1\n      tag_40\n      swap2\n      swap1\n      tag_27\n      jump\t// in\n    tag_40:\n      tag_41\n      jump\t// in\n    tag_39:\n      stop\n        /* \"contracts/ERC-721.sol\":1085:1148  mapping (address => mapping(address => uint)) public allowances */\n    tag_9:\n      tag_42\n      0x04\n      dup1\n      calldatasize\n      sub\n      dup2\n      add\n      swap1\n      tag_43\n      swap2\n      swap1\n      tag_44\n      jump\t// in\n    tag_43:\n      tag_45\n      jump\t// in\n    tag_42:\n      mload(0x40)\n      tag_46\n      swap2\n      swap1\n      tag_38\n      jump\t// in\n    tag_46:\n      mload(0x40)\n      dup1\n      swap2\n      sub\n      swap1\n      return\n        /* \"contracts/ERC-721.sol\":764:856  function ownerOf(uint id) public view returns (address) {\r... */\n    tag_10:\n      tag_47\n      0x04\n      dup1\n      calldatasize\n      sub\n      dup2\n      add\n      swap1\n      tag_48\n      swap2\n      swap1\n      tag_17\n      jump\t// in\n    tag_48:\n      tag_49\n      jump\t// in\n    tag_47:\n      mload(0x40)\n      tag_50\n      swap2\n      swap1\n      tag_20\n      jump\t// in\n    tag_50:\n      mload(0x40)\n      dup1\n      swap2\n      sub\n      swap1\n      return\n        /* \"contracts/ERC-721.sol\":651:756  function balanceOf(address _owner) public view returns (uint) {\r... */\n    tag_11:\n      tag_51\n      0x04\n      dup1\n      calldatasize\n      sub\n      dup2\n      add\n      swap1\n      tag_52\n      swap2\n      swap1\n      tag_35\n      jump\t// in\n    tag_52:\n      tag_53\n      jump\t// in\n    tag_51:\n      mload(0x40)\n      tag_54\n      swap2\n      swap1\n      tag_38\n      jump\t// in\n    tag_54:\n      mload(0x40)\n      dup1\n      swap2\n      sub\n      swap1\n      return\n        /* \"contracts/ERC-721.sol\":352:439  function symbol() public view returns (string memory) {\r... */\n    tag_12:\n      tag_55\n      tag_56\n      jump\t// in\n    tag_55:\n      mload(0x40)\n      tag_57\n      swap2\n      swap1\n      tag_24\n      jump\t// in\n    tag_57:\n      mload(0x40)\n      dup1\n      swap2\n      sub\n      swap1\n      return\n        /* \"contracts/ERC-721.sol\":864:1077  function transfer(address to, uint id) public {\r... */\n    tag_13:\n      tag_58\n      0x04\n      dup1\n      calldatasize\n      sub\n      dup2\n      add\n      swap1\n      tag_59\n      swap2\n      swap1\n      tag_27\n      jump\t// in\n    tag_59:\n      tag_60\n      jump\t// in\n    tag_58:\n      stop\n        /* \"contracts/ERC-721.sol\":494:532  mapping(uint => address) public owners */\n    tag_18:\n      mstore(0x20, 0x03)\n      dup1\n      0x00\n      mstore\n      keccak256(0x00, 0x40)\n      0x00\n      swap2\n      pop\n      sload\n      swap1\n      0x0100\n      exp\n      swap1\n      div\n      0xffffffffffffffffffffffffffffffffffffffff\n      and\n      dup2\n      jump\t// out\n        /* \"contracts/ERC-721.sol\":261:344  function name() public view returns (string memory) {\r... */\n    tag_22:\n        /* \"contracts/ERC-721.sol\":298:311  string memory */\n      0x60\n        /* \"contracts/ERC-721.sol\":331:336  _name */\n      0x00\n        /* \"contracts/ERC-721.sol\":324:336  return _name */\n      dup1\n      sload\n      tag_62\n      swap1\n      tag_63\n      jump\t// in\n    tag_62:\n      dup1\n      0x1f\n      add\n      0x20\n      dup1\n      swap2\n      div\n      mul\n      0x20\n      add\n      mload(0x40)\n      swap1\n      dup2\n      add\n      0x40\n      mstore\n      dup1\n      swap3\n      swap2\n      swap1\n      dup2\n      dup2\n      mstore\n      0x20\n      add\n      dup3\n      dup1\n      sload\n      tag_64\n      swap1\n      tag_63\n      jump\t// in\n    tag_64:\n      dup1\n      iszero\n      tag_65\n      jumpi\n      dup1\n      0x1f\n      lt\n      tag_66\n      jumpi\n      0x0100\n      dup1\n      dup4\n      sload\n      div\n      mul\n      dup4\n      mstore\n      swap2\n      0x20\n      add\n      swap2\n      jump(tag_65)\n    tag_66:\n      dup3\n      add\n      swap2\n      swap1\n      0x00\n      mstore\n      keccak256(0x00, 0x20)\n      swap1\n    tag_67:\n      dup2\n      sload\n      dup2\n      mstore\n      swap1\n      0x01\n      add\n      swap1\n      0x20\n      add\n      dup1\n      dup4\n      gt\n      tag_67\n      jumpi\n      dup3\n      swap1\n      sub\n      0x1f\n      and\n      dup3\n      add\n      swap2\n    tag_65:\n      pop\n      pop\n      pop\n      pop\n      pop\n      swap1\n      pop\n        /* \"contracts/ERC-721.sol\":261:344  function name() public view returns (string memory) {\r... */\n      swap1\n      jump\t// out\n        /* \"contracts/ERC-721.sol\":1157:1347  function approve(address to, uint id) public {\r... */\n    tag_28:\n        /* \"contracts/ERC-721.sol\":1236:1246  msg.sender */\n      caller\n        /* \"contracts/ERC-721.sol\":1221:1246  ownerOf(id) == msg.sender */\n      0xffffffffffffffffffffffffffffffffffffffff\n      and\n        /* \"contracts/ERC-721.sol\":1221:1232  ownerOf(id) */\n      tag_69\n        /* \"contracts/ERC-721.sol\":1229:1231  id */\n      dup3\n        /* \"contracts/ERC-721.sol\":1221:1228  ownerOf */\n      tag_49\n        /* \"contracts/ERC-721.sol\":1221:1232  ownerOf(id) */\n      jump\t// in\n    tag_69:\n        /* \"contracts/ERC-721.sol\":1221:1246  ownerOf(id) == msg.sender */\n      0xffffffffffffffffffffffffffffffffffffffff\n      and\n      eq\n        /* \"contracts/ERC-721.sol\":1213:1270  require(ownerOf(id) == msg.sender, \"Not the owner of ID\") */\n      tag_70\n      jumpi\n      mload(0x40)\n      0x08c379a000000000000000000000000000000000000000000000000000000000\n      dup2\n      mstore\n      0x04\n      add\n      tag_71\n      swap1\n      tag_72\n      jump\t// in\n    tag_71:\n      mload(0x40)\n      dup1\n      swap2\n      sub\n      swap1\n      revert\n    tag_70:\n        /* \"contracts/ERC-721.sol\":1311:1313  id */\n      dup1\n        /* \"contracts/ERC-721.sol\":1281:1291  allowances */\n      0x04\n        /* \"contracts/ERC-721.sol\":1281:1304  allowances[ownerOf(id)] */\n      0x00\n        /* \"contracts/ERC-721.sol\":1292:1303  ownerOf(id) */\n      tag_73\n        /* \"contracts/ERC-721.sol\":1300:1302  id */\n      dup5\n        /* \"contracts/ERC-721.sol\":1292:1299  ownerOf */\n      tag_49\n        /* \"contracts/ERC-721.sol\":1292:1303  ownerOf(id) */\n      jump\t// in\n    tag_73:\n        /* \"contracts/ERC-721.sol\":1281:1304  allowances[ownerOf(id)] */\n      0xffffffffffffffffffffffffffffffffffffffff\n      and\n      0xffffffffffffffffffffffffffffffffffffffff\n      and\n      dup2\n      mstore\n      0x20\n      add\n      swap1\n      dup2\n      mstore\n      0x20\n      add\n      0x00\n      keccak256\n        /* \"contracts/ERC-721.sol\":1281:1308  allowances[ownerOf(id)][to] */\n      0x00\n        /* \"contracts/ERC-721.sol\":1305:1307  to */\n      dup5\n        /* \"contracts/ERC-721.sol\":1281:1308  allowances[ownerOf(id)][to] */\n      0xffffffffffffffffffffffffffffffffffffffff\n      and\n      0xffffffffffffffffffffffffffffffffffffffff\n      and\n      dup2\n      mstore\n      0x20\n      add\n      swap1\n      dup2\n      mstore\n      0x20\n      add\n      0x00\n      keccak256\n        /* \"contracts/ERC-721.sol\":1281:1313  allowances[ownerOf(id)][to] = id */\n      dup2\n      swap1\n      sstore\n      pop\n        /* \"contracts/ERC-721.sol\":1337:1339  to */\n      dup2\n        /* \"contracts/ERC-721.sol\":1324:1330  owners */\n      0x03\n        /* \"contracts/ERC-721.sol\":1324:1334  owners[id] */\n      0x00\n        /* \"contracts/ERC-721.sol\":1331:1333  id */\n      dup4\n        /* \"contracts/ERC-721.sol\":1324:1334  owners[id] */\n      dup2\n      mstore\n      0x20\n      add\n      swap1\n      dup2\n      mstore\n      0x20\n      add\n      0x00\n      keccak256\n      0x00\n        /* \"contracts/ERC-721.sol\":1324:1339  owners[id] = to */\n      0x0100\n      exp\n      dup2\n      sload\n      dup2\n      0xffffffffffffffffffffffffffffffffffffffff\n      mul\n      not\n      and\n      swap1\n      dup4\n      0xffffffffffffffffffffffffffffffffffffffff\n      and\n      mul\n      or\n      swap1\n      sstore\n      pop\n        /* \"contracts/ERC-721.sol\":1157:1347  function approve(address to, uint id) public {\r... */\n      pop\n      pop\n      jump\t// out\n        /* \"contracts/ERC-721.sol\":1355:1612  function transferFrom(address from, address to, uint id) public {\r... */\n    tag_32:\n        /* \"contracts/ERC-721.sol\":1453:1457  from */\n      dup3\n        /* \"contracts/ERC-721.sol\":1438:1457  ownerOf(id) == from */\n      0xffffffffffffffffffffffffffffffffffffffff\n      and\n        /* \"contracts/ERC-721.sol\":1438:1449  ownerOf(id) */\n      tag_75\n        /* \"contracts/ERC-721.sol\":1446:1448  id */\n      dup3\n        /* \"contracts/ERC-721.sol\":1438:1445  ownerOf */\n      tag_49\n        /* \"contracts/ERC-721.sol\":1438:1449  ownerOf(id) */\n      jump\t// in\n    tag_75:\n        /* \"contracts/ERC-721.sol\":1438:1457  ownerOf(id) == from */\n      0xffffffffffffffffffffffffffffffffffffffff\n      and\n      eq\n        /* \"contracts/ERC-721.sol\":1430:1475  require(ownerOf(id) == from, \"Not the owner\") */\n      tag_76\n      jumpi\n      mload(0x40)\n      0x08c379a000000000000000000000000000000000000000000000000000000000\n      dup2\n      mstore\n      0x04\n      add\n      tag_77\n      swap1\n      tag_78\n      jump\t// in\n    tag_77:\n      mload(0x40)\n      dup1\n      swap2\n      sub\n      swap1\n      revert\n    tag_76:\n        /* \"contracts/ERC-721.sol\":1504:1505  1 */\n      0x01\n        /* \"contracts/ERC-721.sol\":1486:1494  balances */\n      0x02\n        /* \"contracts/ERC-721.sol\":1486:1500  balances[from] */\n      0x00\n        /* \"contracts/ERC-721.sol\":1495:1499  from */\n      dup6\n        /* \"contracts/ERC-721.sol\":1486:1500  balances[from] */\n      0xffffffffffffffffffffffffffffffffffffffff\n      and\n      0xffffffffffffffffffffffffffffffffffffffff\n      and\n      dup2\n      mstore\n      0x20\n      add\n      swap1\n      dup2\n      mstore\n      0x20\n      add\n      0x00\n      keccak256\n      0x00\n        /* \"contracts/ERC-721.sol\":1486:1505  balances[from] -= 1 */\n      dup3\n      dup3\n      sload\n      tag_79\n      swap2\n      swap1\n      tag_80\n      jump\t// in\n    tag_79:\n      swap3\n      pop\n      pop\n      dup2\n      swap1\n      sstore\n      pop\n        /* \"contracts/ERC-721.sol\":1532:1533  1 */\n      0x01\n        /* \"contracts/ERC-721.sol\":1516:1524  balances */\n      0x02\n        /* \"contracts/ERC-721.sol\":1516:1528  balances[to] */\n      0x00\n        /* \"contracts/ERC-721.sol\":1525:1527  to */\n      dup5\n        /* \"contracts/ERC-721.sol\":1516:1528  balances[to] */\n      0xffffffffffffffffffffffffffffffffffffffff\n      and\n      0xffffffffffffffffffffffffffffffffffffffff\n      and\n      dup2\n      mstore\n      0x20\n      add\n      swap1\n      dup2\n      mstore\n      0x20\n      add\n      0x00\n      keccak256\n      0x00\n        /* \"contracts/ERC-721.sol\":1516:1533  balances[to] += 1 */\n      dup3\n      dup3\n      sload\n      tag_81\n      swap2\n      swap1\n      tag_82\n      jump\t// in\n    tag_81:\n      swap3\n      pop\n      pop\n      dup2\n      swap1\n      sstore\n      pop\n        /* \"contracts/ERC-721.sol\":1577:1578  1 */\n      0x01\n        /* \"contracts/ERC-721.sol\":1544:1554  allowances */\n      0x04\n        /* \"contracts/ERC-721.sol\":1544:1560  allowances[from] */\n      0x00\n        /* \"contracts/ERC-721.sol\":1555:1559  from */\n      dup6\n        /* \"contracts/ERC-721.sol\":1544:1560  allowances[from] */\n      0xffffffffffffffffffffffffffffffffffffffff\n      and\n      0xffffffffffffffffffffffffffffffffffffffff\n      and\n      dup2\n      mstore\n      0x20\n      add\n      swap1\n      dup2\n      mstore\n      0x20\n      add\n      0x00\n      keccak256\n        /* \"contracts/ERC-721.sol\":1544:1573  allowances[from][ownerOf(id)] */\n      0x00\n        /* \"contracts/ERC-721.sol\":1561:1572  ownerOf(id) */\n      tag_83\n        /* \"contracts/ERC-721.sol\":1569:1571  id */\n      dup5\n        /* \"contracts/ERC-721.sol\":1561:1568  ownerOf */\n      tag_49\n        /* \"contracts/ERC-721.sol\":1561:1572  ownerOf(id) */\n      jump\t// in\n    tag_83:\n        /* \"contracts/ERC-721.sol\":1544:1573  allowances[from][ownerOf(id)] */\n      0xffffffffffffffffffffffffffffffffffffffff\n      and\n      0xffffffffffffffffffffffffffffffffffffffff\n      and\n      dup2\n      mstore\n      0x20\n      add\n      swap1\n      dup2\n      mstore\n      0x20\n      add\n      0x00\n      keccak256\n      0x00\n        /* \"contracts/ERC-721.sol\":1544:1578  allowances[from][ownerOf(id)] -= 1 */\n      dup3\n      dup3\n      sload\n      tag_84\n      swap2\n      swap1\n      tag_80\n      jump\t// in\n    tag_84:\n      swap3\n      pop\n      pop\n      dup2\n      swap1\n      sstore\n      pop\n        /* \"contracts/ERC-721.sol\":1602:1604  to */\n      dup2\n        /* \"contracts/ERC-721.sol\":1589:1595  owners */\n      0x03\n        /* \"contracts/ERC-721.sol\":1589:1599  owners[id] */\n      0x00\n        /* \"contracts/ERC-721.sol\":1596:1598  id */\n      dup4\n        /* \"contracts/ERC-721.sol\":1589:1599  owners[id] */\n      dup2\n      mstore\n      0x20\n      add\n      swap1\n      dup2\n      mstore\n      0x20\n      add\n      0x00\n      keccak256\n      0x00\n        /* \"contracts/ERC-721.sol\":1589:1604  owners[id] = to */\n      0x0100\n      exp\n      dup2\n      sload\n      dup2\n      0xffffffffffffffffffffffffffffffffffffffff\n      mul\n      not\n      and\n      swap1\n      dup4\n      0xffffffffffffffffffffffffffffffffffffffff\n      and\n      mul\n      or\n      swap1\n      sstore\n      pop\n        /* \"contracts/ERC-721.sol\":1355:1612  function transferFrom(address from, address to, uint id) public {\r... */\n      pop\n      pop\n      pop\n      jump\t// out\n        /* \"contracts/ERC-721.sol\":447:487  mapping(address => uint) public balances */\n    tag_36:\n      mstore(0x20, 0x02)\n      dup1\n      0x00\n      mstore\n      keccak256(0x00, 0x40)\n      0x00\n      swap2\n      pop\n      swap1\n      pop\n      sload\n      dup2\n      jump\t// out\n        /* \"contracts/ERC-721.sol\":541:643  function mint(address to, uint id) public {\r... */\n    tag_41:\n        /* \"contracts/ERC-721.sol\":609:610  1 */\n      0x01\n        /* \"contracts/ERC-721.sol\":593:601  balances */\n      0x02\n        /* \"contracts/ERC-721.sol\":593:605  balances[to] */\n      0x00\n        /* \"contracts/ERC-721.sol\":602:604  to */\n      dup5\n        /* \"contracts/ERC-721.sol\":593:605  balances[to] */\n      0xffffffffffffffffffffffffffffffffffffffff\n      and\n      0xffffffffffffffffffffffffffffffffffffffff\n      and\n      dup2\n      mstore\n      0x20\n      add\n      swap1\n      dup2\n      mstore\n      0x20\n      add\n      0x00\n      keccak256\n      0x00\n        /* \"contracts/ERC-721.sol\":593:610  balances[to] += 1 */\n      dup3\n      dup3\n      sload\n      tag_86\n      swap2\n      swap1\n      tag_82\n      jump\t// in\n    tag_86:\n      swap3\n      pop\n      pop\n      dup2\n      swap1\n      sstore\n      pop\n        /* \"contracts/ERC-721.sol\":633:635  to */\n      dup2\n        /* \"contracts/ERC-721.sol\":620:626  owners */\n      0x03\n        /* \"contracts/ERC-721.sol\":620:630  owners[id] */\n      0x00\n        /* \"contracts/ERC-721.sol\":627:629  id */\n      dup4\n        /* \"contracts/ERC-721.sol\":620:630  owners[id] */\n      dup2\n      mstore\n      0x20\n      add\n      swap1\n      dup2\n      mstore\n      0x20\n      add\n      0x00\n      keccak256\n      0x00\n        /* \"contracts/ERC-721.sol\":620:635  owners[id] = to */\n      0x0100\n      exp\n      dup2\n      sload\n      dup2\n      0xffffffffffffffffffffffffffffffffffffffff\n      mul\n      not\n      and\n      swap1\n      dup4\n      0xffffffffffffffffffffffffffffffffffffffff\n      and\n      mul\n      or\n      swap1\n      sstore\n      pop\n        /* \"contracts/ERC-721.sol\":541:643  function mint(address to, uint id) public {\r... */\n      pop\n      pop\n      jump\t// out\n        /* \"contracts/ERC-721.sol\":1085:1148  mapping (address => mapping(address => uint)) public allowances */\n    tag_45:\n      mstore(0x20, 0x04)\n      dup2\n      0x00\n      mstore\n      mstore(0x20, keccak256(0x00, 0x40))\n      dup1\n      0x00\n      mstore\n      keccak256(0x00, 0x40)\n      0x00\n      swap2\n      pop\n      swap2\n      pop\n      pop\n      sload\n      dup2\n      jump\t// out\n        /* \"contracts/ERC-721.sol\":764:856  function ownerOf(uint id) public view returns (address) {\r... */\n    tag_49:\n        /* \"contracts/ERC-721.sol\":811:818  address */\n      0x00\n        /* \"contracts/ERC-721.sol\":838:844  owners */\n      0x03\n        /* \"contracts/ERC-721.sol\":838:848  owners[id] */\n      0x00\n        /* \"contracts/ERC-721.sol\":845:847  id */\n      dup4\n        /* \"contracts/ERC-721.sol\":838:848  owners[id] */\n      dup2\n      mstore\n      0x20\n      add\n      swap1\n      dup2\n      mstore\n      0x20\n      add\n      0x00\n      keccak256\n      0x00\n      swap1\n      sload\n      swap1\n      0x0100\n      exp\n      swap1\n      div\n      0xffffffffffffffffffffffffffffffffffffffff\n      and\n        /* \"contracts/ERC-721.sol\":831:848  return owners[id] */\n      swap1\n      pop\n        /* \"contracts/ERC-721.sol\":764:856  function ownerOf(uint id) public view returns (address) {\r... */\n      swap2\n      swap1\n      pop\n      jump\t// out\n        /* \"contracts/ERC-721.sol\":651:756  function balanceOf(address _owner) public view returns (uint) {\r... */\n    tag_53:\n        /* \"contracts/ERC-721.sol\":707:711  uint */\n      0x00\n        /* \"contracts/ERC-721.sol\":731:739  balances */\n      0x02\n        /* \"contracts/ERC-721.sol\":731:747  balances[_owner] */\n      0x00\n        /* \"contracts/ERC-721.sol\":740:746  _owner */\n      dup4\n        /* \"contracts/ERC-721.sol\":731:747  balances[_owner] */\n      0xffffffffffffffffffffffffffffffffffffffff\n      and\n      0xffffffffffffffffffffffffffffffffffffffff\n      and\n      dup2\n      mstore\n      0x20\n      add\n      swap1\n      dup2\n      mstore\n      0x20\n      add\n      0x00\n      keccak256\n      sload\n        /* \"contracts/ERC-721.sol\":724:747  return balances[_owner] */\n      swap1\n      pop\n        /* \"contracts/ERC-721.sol\":651:756  function balanceOf(address _owner) public view returns (uint) {\r... */\n      swap2\n      swap1\n      pop\n      jump\t// out\n        /* \"contracts/ERC-721.sol\":352:439  function symbol() public view returns (string memory) {\r... */\n    tag_56:\n        /* \"contracts/ERC-721.sol\":391:404  string memory */\n      0x60\n        /* \"contracts/ERC-721.sol\":424:431  _symbol */\n      0x01\n        /* \"contracts/ERC-721.sol\":417:431  return _symbol */\n      dup1\n      sload\n      tag_90\n      swap1\n      tag_63\n      jump\t// in\n    tag_90:\n      dup1\n      0x1f\n      add\n      0x20\n      dup1\n      swap2\n      div\n      mul\n      0x20\n      add\n      mload(0x40)\n      swap1\n      dup2\n      add\n      0x40\n      mstore\n      dup1\n      swap3\n      swap2\n      swap1\n      dup2\n      dup2\n      mstore\n      0x20\n      add\n      dup3\n      dup1\n      sload\n      tag_91\n      swap1\n      tag_63\n      jump\t// in\n    tag_91:\n      dup1\n      iszero\n      tag_92\n      jumpi\n      dup1\n      0x1f\n      lt\n      tag_93\n      jumpi\n      0x0100\n      dup1\n      dup4\n      sload\n      div\n      mul\n      dup4\n      mstore\n      swap2\n      0x20\n      add\n      swap2\n      jump(tag_92)\n    tag_93:\n      dup3\n      add\n      swap2\n      swap1\n      0x00\n      mstore\n      keccak256(0x00, 0x20)\n      swap1\n    tag_94:\n      dup2\n      sload\n      dup2\n      mstore\n      swap1\n      0x01\n      add\n      swap1\n      0x20\n      add\n      dup1\n      dup4\n      gt\n      tag_94\n      jumpi\n      dup3\n      swap1\n      sub\n      0x1f\n      and\n      dup3\n      add\n      swap2\n    tag_92:\n      pop\n      pop\n      pop\n      pop\n      pop\n      swap1\n      pop\n        /* \"contracts/ERC-721.sol\":352:439  function symbol() public view returns (string memory) {\r... */\n      swap1\n      jump\t// out\n        /* \"contracts/ERC-721.sol\":864:1077  function transfer(address to, uint id) public {\r... */\n    tag_60:\n        /* \"contracts/ERC-721.sol\":944:954  msg.sender */\n      caller\n        /* \"contracts/ERC-721.sol\":929:954  ownerOf(id) == msg.sender */\n      0xffffffffffffffffffffffffffffffffffffffff\n      and\n        /* \"contracts/ERC-721.sol\":929:940  ownerOf(id) */\n      tag_96\n        /* \"contracts/ERC-721.sol\":937:939  id */\n      dup3\n        /* \"contracts/ERC-721.sol\":929:936  ownerOf */\n      tag_49\n        /* \"contracts/ERC-721.sol\":929:940  ownerOf(id) */\n      jump\t// in\n    tag_96:\n        /* \"contracts/ERC-721.sol\":929:954  ownerOf(id) == msg.sender */\n      0xffffffffffffffffffffffffffffffffffffffff\n      and\n      eq\n        /* \"contracts/ERC-721.sol\":921:978  require(ownerOf(id) == msg.sender, \"Not the owner of ID\") */\n      tag_97\n      jumpi\n      mload(0x40)\n      0x08c379a000000000000000000000000000000000000000000000000000000000\n      dup2\n      mstore\n      0x04\n      add\n      tag_98\n      swap1\n      tag_72\n      jump\t// in\n    tag_98:\n      mload(0x40)\n      dup1\n      swap2\n      sub\n      swap1\n      revert\n    tag_97:\n        /* \"contracts/ERC-721.sol\":1014:1015  1 */\n      0x01\n        /* \"contracts/ERC-721.sol\":989:997  balances */\n      0x02\n        /* \"contracts/ERC-721.sol\":989:1010  balances[ownerOf(id)] */\n      0x00\n        /* \"contracts/ERC-721.sol\":998:1009  ownerOf(id) */\n      tag_99\n        /* \"contracts/ERC-721.sol\":1006:1008  id */\n      dup5\n        /* \"contracts/ERC-721.sol\":998:1005  ownerOf */\n      tag_49\n        /* \"contracts/ERC-721.sol\":998:1009  ownerOf(id) */\n      jump\t// in\n    tag_99:\n        /* \"contracts/ERC-721.sol\":989:1010  balances[ownerOf(id)] */\n      0xffffffffffffffffffffffffffffffffffffffff\n      and\n      0xffffffffffffffffffffffffffffffffffffffff\n      and\n      dup2\n      mstore\n      0x20\n      add\n      swap1\n      dup2\n      mstore\n      0x20\n      add\n      0x00\n      keccak256\n      0x00\n        /* \"contracts/ERC-721.sol\":989:1015  balances[ownerOf(id)] -= 1 */\n      dup3\n      dup3\n      sload\n      tag_100\n      swap2\n      swap1\n      tag_80\n      jump\t// in\n    tag_100:\n      swap3\n      pop\n      pop\n      dup2\n      swap1\n      sstore\n      pop\n        /* \"contracts/ERC-721.sol\":1042:1043  1 */\n      0x01\n        /* \"contracts/ERC-721.sol\":1026:1034  balances */\n      0x02\n        /* \"contracts/ERC-721.sol\":1026:1038  balances[to] */\n      0x00\n        /* \"contracts/ERC-721.sol\":1035:1037  to */\n      dup5\n        /* \"contracts/ERC-721.sol\":1026:1038  balances[to] */\n      0xffffffffffffffffffffffffffffffffffffffff\n      and\n      0xffffffffffffffffffffffffffffffffffffffff\n      and\n      dup2\n      mstore\n      0x20\n      add\n      swap1\n      dup2\n      mstore\n      0x20\n      add\n      0x00\n      keccak256\n      0x00\n        /* \"contracts/ERC-721.sol\":1026:1043  balances[to] += 1 */\n      dup3\n      dup3\n      sload\n      tag_101\n      swap2\n      swap1\n      tag_82\n      jump\t// in\n    tag_101:\n      swap3\n      pop\n      pop\n      dup2\n      swap1\n      sstore\n      pop\n        /* \"contracts/ERC-721.sol\":1067:1069  to */\n      dup2\n        /* \"contracts/ERC-721.sol\":1054:1060  owners */\n      0x03\n        /* \"contracts/ERC-721.sol\":1054:1064  owners[id] */\n      0x00\n        /* \"contracts/ERC-721.sol\":1061:1063  id */\n      dup4\n        /* \"contracts/ERC-721.sol\":1054:1064  owners[id] */\n      dup2\n      mstore\n      0x20\n      add\n      swap1\n      dup2\n      mstore\n      0x20\n      add\n      0x00\n      keccak256\n      0x00\n        /* \"contracts/ERC-721.sol\":1054:1069  owners[id] = to */\n      0x0100\n      exp\n      dup2\n      sload\n      dup2\n      0xffffffffffffffffffffffffffffffffffffffff\n      mul\n      not\n      and\n      swap1\n      dup4\n      0xffffffffffffffffffffffffffffffffffffffff\n      and\n      mul\n      or\n      swap1\n      sstore\n      pop\n        /* \"contracts/ERC-721.sol\":864:1077  function transfer(address to, uint id) public {\r... */\n      pop\n      pop\n      jump\t// out\n        /* \"#utility.yul\":7:146   */\n    tag_103:\n        /* \"#utility.yul\":53:58   */\n      0x00\n        /* \"#utility.yul\":91:97   */\n      dup2\n        /* \"#utility.yul\":78:98   */\n      calldataload\n        /* \"#utility.yul\":69:98   */\n      swap1\n      pop\n        /* \"#utility.yul\":107:140   */\n      tag_105\n        /* \"#utility.yul\":134:139   */\n      dup2\n        /* \"#utility.yul\":107:140   */\n      tag_106\n      jump\t// in\n    tag_105:\n        /* \"#utility.yul\":7:146   */\n      swap3\n      swap2\n      pop\n      pop\n      jump\t// out\n        /* \"#utility.yul\":152:291   */\n    tag_107:\n        /* \"#utility.yul\":198:203   */\n      0x00\n        /* \"#utility.yul\":236:242   */\n      dup2\n        /* \"#utility.yul\":223:243   */\n      calldataload\n        /* \"#utility.yul\":214:243   */\n      swap1\n      pop\n        /* \"#utility.yul\":252:285   */\n      tag_109\n        /* \"#utility.yul\":279:284   */\n      dup2\n        /* \"#utility.yul\":252:285   */\n      tag_110\n      jump\t// in\n    tag_109:\n        /* \"#utility.yul\":152:291   */\n      swap3\n      swap2\n      pop\n      pop\n      jump\t// out\n        /* \"#utility.yul\":297:626   */\n    tag_35:\n        /* \"#utility.yul\":356:362   */\n      0x00\n        /* \"#utility.yul\":405:407   */\n      0x20\n        /* \"#utility.yul\":393:402   */\n      dup3\n        /* \"#utility.yul\":384:391   */\n      dup5\n        /* \"#utility.yul\":380:403   */\n      sub\n        /* \"#utility.yul\":376:408   */\n      slt\n        /* \"#utility.yul\":373:492   */\n      iszero\n      tag_112\n      jumpi\n        /* \"#utility.yul\":411:490   */\n      tag_113\n      tag_114\n      jump\t// in\n    tag_113:\n        /* \"#utility.yul\":373:492   */\n    tag_112:\n        /* \"#utility.yul\":531:532   */\n      0x00\n        /* \"#utility.yul\":556:609   */\n      tag_115\n        /* \"#utility.yul\":601:608   */\n      dup5\n        /* \"#utility.yul\":592:598   */\n      dup3\n        /* \"#utility.yul\":581:590   */\n      dup6\n        /* \"#utility.yul\":577:599   */\n      add\n        /* \"#utility.yul\":556:609   */\n      tag_103\n      jump\t// in\n    tag_115:\n        /* \"#utility.yul\":546:609   */\n      swap2\n      pop\n        /* \"#utility.yul\":502:619   */\n      pop\n        /* \"#utility.yul\":297:626   */\n      swap3\n      swap2\n      pop\n      pop\n      jump\t// out\n        /* \"#utility.yul\":632:1106   */\n    tag_44:\n        /* \"#utility.yul\":700:706   */\n      0x00\n        /* \"#utility.yul\":708:714   */\n      dup1\n        /* \"#utility.yul\":757:759   */\n      0x40\n        /* \"#utility.yul\":745:754   */\n      dup4\n        /* \"#utility.yul\":736:743   */\n      dup6\n        /* \"#utility.yul\":732:755   */\n      sub\n        /* \"#utility.yul\":728:760   */\n      slt\n        /* \"#utility.yul\":725:844   */\n      iszero\n      tag_117\n      jumpi\n        /* \"#utility.yul\":763:842   */\n      tag_118\n      tag_114\n      jump\t// in\n    tag_118:\n        /* \"#utility.yul\":725:844   */\n    tag_117:\n        /* \"#utility.yul\":883:884   */\n      0x00\n        /* \"#utility.yul\":908:961   */\n      tag_119\n        /* \"#utility.yul\":953:960   */\n      dup6\n        /* \"#utility.yul\":944:950   */\n      dup3\n        /* \"#utility.yul\":933:942   */\n      dup7\n        /* \"#utility.yul\":929:951   */\n      add\n        /* \"#utility.yul\":908:961   */\n      tag_103\n      jump\t// in\n    tag_119:\n        /* \"#utility.yul\":898:961   */\n      swap3\n      pop\n        /* \"#utility.yul\":854:971   */\n      pop\n        /* \"#utility.yul\":1010:1012   */\n      0x20\n        /* \"#utility.yul\":1036:1089   */\n      tag_120\n        /* \"#utility.yul\":1081:1088   */\n      dup6\n        /* \"#utility.yul\":1072:1078   */\n      dup3\n        /* \"#utility.yul\":1061:1070   */\n      dup7\n        /* \"#utility.yul\":1057:1079   */\n      add\n        /* \"#utility.yul\":1036:1089   */\n      tag_103\n      jump\t// in\n    tag_120:\n        /* \"#utility.yul\":1026:1089   */\n      swap2\n      pop\n        /* \"#utility.yul\":981:1099   */\n      pop\n        /* \"#utility.yul\":632:1106   */\n      swap3\n      pop\n      swap3\n      swap1\n      pop\n      jump\t// out\n        /* \"#utility.yul\":1112:1731   */\n    tag_31:\n        /* \"#utility.yul\":1189:1195   */\n      0x00\n        /* \"#utility.yul\":1197:1203   */\n      dup1\n        /* \"#utility.yul\":1205:1211   */\n      0x00\n        /* \"#utility.yul\":1254:1256   */\n      0x60\n        /* \"#utility.yul\":1242:1251   */\n      dup5\n        /* \"#utility.yul\":1233:1240   */\n      dup7\n        /* \"#utility.yul\":1229:1252   */\n      sub\n        /* \"#utility.yul\":1225:1257   */\n      slt\n        /* \"#utility.yul\":1222:1341   */\n      iszero\n      tag_122\n      jumpi\n        /* \"#utility.yul\":1260:1339   */\n      tag_123\n      tag_114\n      jump\t// in\n    tag_123:\n        /* \"#utility.yul\":1222:1341   */\n    tag_122:\n        /* \"#utility.yul\":1380:1381   */\n      0x00\n        /* \"#utility.yul\":1405:1458   */\n      tag_124\n        /* \"#utility.yul\":1450:1457   */\n      dup7\n        /* \"#utility.yul\":1441:1447   */\n      dup3\n        /* \"#utility.yul\":1430:1439   */\n      dup8\n        /* \"#utility.yul\":1426:1448   */\n      add\n        /* \"#utility.yul\":1405:1458   */\n      tag_103\n      jump\t// in\n    tag_124:\n        /* \"#utility.yul\":1395:1458   */\n      swap4\n      pop\n        /* \"#utility.yul\":1351:1468   */\n      pop\n        /* \"#utility.yul\":1507:1509   */\n      0x20\n        /* \"#utility.yul\":1533:1586   */\n      tag_125\n        /* \"#utility.yul\":1578:1585   */\n      dup7\n        /* \"#utility.yul\":1569:1575   */\n      dup3\n        /* \"#utility.yul\":1558:1567   */\n      dup8\n        /* \"#utility.yul\":1554:1576   */\n      add\n        /* \"#utility.yul\":1533:1586   */\n      tag_103\n      jump\t// in\n    tag_125:\n        /* \"#utility.yul\":1523:1586   */\n      swap3\n      pop\n        /* \"#utility.yul\":1478:1596   */\n      pop\n        /* \"#utility.yul\":1635:1637   */\n      0x40\n        /* \"#utility.yul\":1661:1714   */\n      tag_126\n        /* \"#utility.yul\":1706:1713   */\n      dup7\n        /* \"#utility.yul\":1697:1703   */\n      dup3\n        /* \"#utility.yul\":1686:1695   */\n      dup8\n        /* \"#utility.yul\":1682:1704   */\n      add\n        /* \"#utility.yul\":1661:1714   */\n      tag_107\n      jump\t// in\n    tag_126:\n        /* \"#utility.yul\":1651:1714   */\n      swap2\n      pop\n        /* \"#utility.yul\":1606:1724   */\n      pop\n        /* \"#utility.yul\":1112:1731   */\n      swap3\n      pop\n      swap3\n      pop\n      swap3\n      jump\t// out\n        /* \"#utility.yul\":1737:2211   */\n    tag_27:\n        /* \"#utility.yul\":1805:1811   */\n      0x00\n        /* \"#utility.yul\":1813:1819   */\n      dup1\n        /* \"#utility.yul\":1862:1864   */\n      0x40\n        /* \"#utility.yul\":1850:1859   */\n      dup4\n        /* \"#utility.yul\":1841:1848   */\n      dup6\n        /* \"#utility.yul\":1837:1860   */\n      sub\n        /* \"#utility.yul\":1833:1865   */\n      slt\n        /* \"#utility.yul\":1830:1949   */\n      iszero\n      tag_128\n      jumpi\n        /* \"#utility.yul\":1868:1947   */\n      tag_129\n      tag_114\n      jump\t// in\n    tag_129:\n        /* \"#utility.yul\":1830:1949   */\n    tag_128:\n        /* \"#utility.yul\":1988:1989   */\n      0x00\n        /* \"#utility.yul\":2013:2066   */\n      tag_130\n        /* \"#utility.yul\":2058:2065   */\n      dup6\n        /* \"#utility.yul\":2049:2055   */\n      dup3\n        /* \"#utility.yul\":2038:2047   */\n      dup7\n        /* \"#utility.yul\":2034:2056   */\n      add\n        /* \"#utility.yul\":2013:2066   */\n      tag_103\n      jump\t// in\n    tag_130:\n        /* \"#utility.yul\":2003:2066   */\n      swap3\n      pop\n        /* \"#utility.yul\":1959:2076   */\n      pop\n        /* \"#utility.yul\":2115:2117   */\n      0x20\n        /* \"#utility.yul\":2141:2194   */\n      tag_131\n        /* \"#utility.yul\":2186:2193   */\n      dup6\n        /* \"#utility.yul\":2177:2183   */\n      dup3\n        /* \"#utility.yul\":2166:2175   */\n      dup7\n        /* \"#utility.yul\":2162:2184   */\n      add\n        /* \"#utility.yul\":2141:2194   */\n      tag_107\n      jump\t// in\n    tag_131:\n        /* \"#utility.yul\":2131:2194   */\n      swap2\n      pop\n        /* \"#utility.yul\":2086:2204   */\n      pop\n        /* \"#utility.yul\":1737:2211   */\n      swap3\n      pop\n      swap3\n      swap1\n      pop\n      jump\t// out\n        /* \"#utility.yul\":2217:2546   */\n    tag_17:\n        /* \"#utility.yul\":2276:2282   */\n      0x00\n        /* \"#utility.yul\":2325:2327   */\n      0x20\n        /* \"#utility.yul\":2313:2322   */\n      dup3\n        /* \"#utility.yul\":2304:2311   */\n      dup5\n        /* \"#utility.yul\":2300:2323   */\n      sub\n        /* \"#utility.yul\":2296:2328   */\n      slt\n        /* \"#utility.yul\":2293:2412   */\n      iszero\n      tag_133\n      jumpi\n        /* \"#utility.yul\":2331:2410   */\n      tag_134\n      tag_114\n      jump\t// in\n    tag_134:\n        /* \"#utility.yul\":2293:2412   */\n    tag_133:\n        /* \"#utility.yul\":2451:2452   */\n      0x00\n        /* \"#utility.yul\":2476:2529   */\n      tag_135\n        /* \"#utility.yul\":2521:2528   */\n      dup5\n        /* \"#utility.yul\":2512:2518   */\n      dup3\n        /* \"#utility.yul\":2501:2510   */\n      dup6\n        /* \"#utility.yul\":2497:2519   */\n      add\n        /* \"#utility.yul\":2476:2529   */\n      tag_107\n      jump\t// in\n    tag_135:\n        /* \"#utility.yul\":2466:2529   */\n      swap2\n      pop\n        /* \"#utility.yul\":2422:2539   */\n      pop\n        /* \"#utility.yul\":2217:2546   */\n      swap3\n      swap2\n      pop\n      pop\n      jump\t// out\n        /* \"#utility.yul\":2552:2670   */\n    tag_136:\n        /* \"#utility.yul\":2639:2663   */\n      tag_138\n        /* \"#utility.yul\":2657:2662   */\n      dup2\n        /* \"#utility.yul\":2639:2663   */\n      tag_139\n      jump\t// in\n    tag_138:\n        /* \"#utility.yul\":2634:2637   */\n      dup3\n        /* \"#utility.yul\":2627:2664   */\n      mstore\n        /* \"#utility.yul\":2552:2670   */\n      pop\n      pop\n      jump\t// out\n        /* \"#utility.yul\":2676:3040   */\n    tag_140:\n        /* \"#utility.yul\":2764:2767   */\n      0x00\n        /* \"#utility.yul\":2792:2831   */\n      tag_142\n        /* \"#utility.yul\":2825:2830   */\n      dup3\n        /* \"#utility.yul\":2792:2831   */\n      tag_143\n      jump\t// in\n    tag_142:\n        /* \"#utility.yul\":2847:2918   */\n      tag_144\n        /* \"#utility.yul\":2911:2917   */\n      dup2\n        /* \"#utility.yul\":2906:2909   */\n      dup6\n        /* \"#utility.yul\":2847:2918   */\n      tag_145\n      jump\t// in\n    tag_144:\n        /* \"#utility.yul\":2840:2918   */\n      swap4\n      pop\n        /* \"#utility.yul\":2927:2979   */\n      tag_146\n        /* \"#utility.yul\":2972:2978   */\n      dup2\n        /* \"#utility.yul\":2967:2970   */\n      dup6\n        /* \"#utility.yul\":2960:2964   */\n      0x20\n        /* \"#utility.yul\":2953:2958   */\n      dup7\n        /* \"#utility.yul\":2949:2965   */\n      add\n        /* \"#utility.yul\":2927:2979   */\n      tag_147\n      jump\t// in\n    tag_146:\n        /* \"#utility.yul\":3004:3033   */\n      tag_148\n        /* \"#utility.yul\":3026:3032   */\n      dup2\n        /* \"#utility.yul\":3004:3033   */\n      tag_149\n      jump\t// in\n    tag_148:\n        /* \"#utility.yul\":2999:3002   */\n      dup5\n        /* \"#utility.yul\":2995:3034   */\n      add\n        /* \"#utility.yul\":2988:3034   */\n      swap2\n      pop\n        /* \"#utility.yul\":2768:3040   */\n      pop\n        /* \"#utility.yul\":2676:3040   */\n      swap3\n      swap2\n      pop\n      pop\n      jump\t// out\n        /* \"#utility.yul\":3046:3412   */\n    tag_150:\n        /* \"#utility.yul\":3188:3191   */\n      0x00\n        /* \"#utility.yul\":3209:3276   */\n      tag_152\n        /* \"#utility.yul\":3273:3275   */\n      0x0d\n        /* \"#utility.yul\":3268:3271   */\n      dup4\n        /* \"#utility.yul\":3209:3276   */\n      tag_145\n      jump\t// in\n    tag_152:\n        /* \"#utility.yul\":3202:3276   */\n      swap2\n      pop\n        /* \"#utility.yul\":3285:3378   */\n      tag_153\n        /* \"#utility.yul\":3374:3377   */\n      dup3\n        /* \"#utility.yul\":3285:3378   */\n      tag_154\n      jump\t// in\n    tag_153:\n        /* \"#utility.yul\":3403:3405   */\n      0x20\n        /* \"#utility.yul\":3398:3401   */\n      dup3\n        /* \"#utility.yul\":3394:3406   */\n      add\n        /* \"#utility.yul\":3387:3406   */\n      swap1\n      pop\n        /* \"#utility.yul\":3046:3412   */\n      swap2\n      swap1\n      pop\n      jump\t// out\n        /* \"#utility.yul\":3418:3784   */\n    tag_155:\n        /* \"#utility.yul\":3560:3563   */\n      0x00\n        /* \"#utility.yul\":3581:3648   */\n      tag_157\n        /* \"#utility.yul\":3645:3647   */\n      0x13\n        /* \"#utility.yul\":3640:3643   */\n      dup4\n        /* \"#utility.yul\":3581:3648   */\n      tag_145\n      jump\t// in\n    tag_157:\n        /* \"#utility.yul\":3574:3648   */\n      swap2\n      pop\n        /* \"#utility.yul\":3657:3750   */\n      tag_158\n        /* \"#utility.yul\":3746:3749   */\n      dup3\n        /* \"#utility.yul\":3657:3750   */\n      tag_159\n      jump\t// in\n    tag_158:\n        /* \"#utility.yul\":3775:3777   */\n      0x20\n        /* \"#utility.yul\":3770:3773   */\n      dup3\n        /* \"#utility.yul\":3766:3778   */\n      add\n        /* \"#utility.yul\":3759:3778   */\n      swap1\n      pop\n        /* \"#utility.yul\":3418:3784   */\n      swap2\n      swap1\n      pop\n      jump\t// out\n        /* \"#utility.yul\":3790:3908   */\n    tag_160:\n        /* \"#utility.yul\":3877:3901   */\n      tag_162\n        /* \"#utility.yul\":3895:3900   */\n      dup2\n        /* \"#utility.yul\":3877:3901   */\n      tag_163\n      jump\t// in\n    tag_162:\n        /* \"#utility.yul\":3872:3875   */\n      dup3\n        /* \"#utility.yul\":3865:3902   */\n      mstore\n        /* \"#utility.yul\":3790:3908   */\n      pop\n      pop\n      jump\t// out\n        /* \"#utility.yul\":3914:4136   */\n    tag_20:\n        /* \"#utility.yul\":4007:4011   */\n      0x00\n        /* \"#utility.yul\":4045:4047   */\n      0x20\n        /* \"#utility.yul\":4034:4043   */\n      dup3\n        /* \"#utility.yul\":4030:4048   */\n      add\n        /* \"#utility.yul\":4022:4048   */\n      swap1\n      pop\n        /* \"#utility.yul\":4058:4129   */\n      tag_165\n        /* \"#utility.yul\":4126:4127   */\n      0x00\n        /* \"#utility.yul\":4115:4124   */\n      dup4\n        /* \"#utility.yul\":4111:4128   */\n      add\n        /* \"#utility.yul\":4102:4108   */\n      dup5\n        /* \"#utility.yul\":4058:4129   */\n      tag_136\n      jump\t// in\n    tag_165:\n        /* \"#utility.yul\":3914:4136   */\n      swap3\n      swap2\n      pop\n      pop\n      jump\t// out\n        /* \"#utility.yul\":4142:4455   */\n    tag_24:\n        /* \"#utility.yul\":4255:4259   */\n      0x00\n        /* \"#utility.yul\":4293:4295   */\n      0x20\n        /* \"#utility.yul\":4282:4291   */\n      dup3\n        /* \"#utility.yul\":4278:4296   */\n      add\n        /* \"#utility.yul\":4270:4296   */\n      swap1\n      pop\n        /* \"#utility.yul\":4342:4351   */\n      dup2\n        /* \"#utility.yul\":4336:4340   */\n      dup2\n        /* \"#utility.yul\":4332:4352   */\n      sub\n        /* \"#utility.yul\":4328:4329   */\n      0x00\n        /* \"#utility.yul\":4317:4326   */\n      dup4\n        /* \"#utility.yul\":4313:4330   */\n      add\n        /* \"#utility.yul\":4306:4353   */\n      mstore\n        /* \"#utility.yul\":4370:4448   */\n      tag_167\n        /* \"#utility.yul\":4443:4447   */\n      dup2\n        /* \"#utility.yul\":4434:4440   */\n      dup5\n        /* \"#utility.yul\":4370:4448   */\n      tag_140\n      jump\t// in\n    tag_167:\n        /* \"#utility.yul\":4362:4448   */\n      swap1\n      pop\n        /* \"#utility.yul\":4142:4455   */\n      swap3\n      swap2\n      pop\n      pop\n      jump\t// out\n        /* \"#utility.yul\":4461:4880   */\n    tag_78:\n        /* \"#utility.yul\":4627:4631   */\n      0x00\n        /* \"#utility.yul\":4665:4667   */\n      0x20\n        /* \"#utility.yul\":4654:4663   */\n      dup3\n        /* \"#utility.yul\":4650:4668   */\n      add\n        /* \"#utility.yul\":4642:4668   */\n      swap1\n      pop\n        /* \"#utility.yul\":4714:4723   */\n      dup2\n        /* \"#utility.yul\":4708:4712   */\n      dup2\n        /* \"#utility.yul\":4704:4724   */\n      sub\n        /* \"#utility.yul\":4700:4701   */\n      0x00\n        /* \"#utility.yul\":4689:4698   */\n      dup4\n        /* \"#utility.yul\":4685:4702   */\n      add\n        /* \"#utility.yul\":4678:4725   */\n      mstore\n        /* \"#utility.yul\":4742:4873   */\n      tag_169\n        /* \"#utility.yul\":4868:4872   */\n      dup2\n        /* \"#utility.yul\":4742:4873   */\n      tag_150\n      jump\t// in\n    tag_169:\n        /* \"#utility.yul\":4734:4873   */\n      swap1\n      pop\n        /* \"#utility.yul\":4461:4880   */\n      swap2\n      swap1\n      pop\n      jump\t// out\n        /* \"#utility.yul\":4886:5305   */\n    tag_72:\n        /* \"#utility.yul\":5052:5056   */\n      0x00\n        /* \"#utility.yul\":5090:5092   */\n      0x20\n        /* \"#utility.yul\":5079:5088   */\n      dup3\n        /* \"#utility.yul\":5075:5093   */\n      add\n        /* \"#utility.yul\":5067:5093   */\n      swap1\n      pop\n        /* \"#utility.yul\":5139:5148   */\n      dup2\n        /* \"#utility.yul\":5133:5137   */\n      dup2\n        /* \"#utility.yul\":5129:5149   */\n      sub\n        /* \"#utility.yul\":5125:5126   */\n      0x00\n        /* \"#utility.yul\":5114:5123   */\n      dup4\n        /* \"#utility.yul\":5110:5127   */\n      add\n        /* \"#utility.yul\":5103:5150   */\n      mstore\n        /* \"#utility.yul\":5167:5298   */\n      tag_171\n        /* \"#utility.yul\":5293:5297   */\n      dup2\n        /* \"#utility.yul\":5167:5298   */\n      tag_155\n      jump\t// in\n    tag_171:\n        /* \"#utility.yul\":5159:5298   */\n      swap1\n      pop\n        /* \"#utility.yul\":4886:5305   */\n      swap2\n      swap1\n      pop\n      jump\t// out\n        /* \"#utility.yul\":5311:5533   */\n    tag_38:\n        /* \"#utility.yul\":5404:5408   */\n      0x00\n        /* \"#utility.yul\":5442:5444   */\n      0x20\n        /* \"#utility.yul\":5431:5440   */\n      dup3\n        /* \"#utility.yul\":5427:5445   */\n      add\n        /* \"#utility.yul\":5419:5445   */\n      swap1\n      pop\n        /* \"#utility.yul\":5455:5526   */\n      tag_173\n        /* \"#utility.yul\":5523:5524   */\n      0x00\n        /* \"#utility.yul\":5512:5521   */\n      dup4\n        /* \"#utility.yul\":5508:5525   */\n      add\n        /* \"#utility.yul\":5499:5505   */\n      dup5\n        /* \"#utility.yul\":5455:5526   */\n      tag_160\n      jump\t// in\n    tag_173:\n        /* \"#utility.yul\":5311:5533   */\n      swap3\n      swap2\n      pop\n      pop\n      jump\t// out\n        /* \"#utility.yul\":5620:5719   */\n    tag_143:\n        /* \"#utility.yul\":5672:5678   */\n      0x00\n        /* \"#utility.yul\":5706:5711   */\n      dup2\n        /* \"#utility.yul\":5700:5712   */\n      mload\n        /* \"#utility.yul\":5690:5712   */\n      swap1\n      pop\n        /* \"#utility.yul\":5620:5719   */\n      swap2\n      swap1\n      pop\n      jump\t// out\n        /* \"#utility.yul\":5725:5894   */\n    tag_145:\n        /* \"#utility.yul\":5809:5820   */\n      0x00\n        /* \"#utility.yul\":5843:5849   */\n      dup3\n        /* \"#utility.yul\":5838:5841   */\n      dup3\n        /* \"#utility.yul\":5831:5850   */\n      mstore\n        /* \"#utility.yul\":5883:5887   */\n      0x20\n        /* \"#utility.yul\":5878:5881   */\n      dup3\n        /* \"#utility.yul\":5874:5888   */\n      add\n        /* \"#utility.yul\":5859:5888   */\n      swap1\n      pop\n        /* \"#utility.yul\":5725:5894   */\n      swap3\n      swap2\n      pop\n      pop\n      jump\t// out\n        /* \"#utility.yul\":5900:6205   */\n    tag_82:\n        /* \"#utility.yul\":5940:5943   */\n      0x00\n        /* \"#utility.yul\":5959:5979   */\n      tag_179\n        /* \"#utility.yul\":5977:5978   */\n      dup3\n        /* \"#utility.yul\":5959:5979   */\n      tag_163\n      jump\t// in\n    tag_179:\n        /* \"#utility.yul\":5954:5979   */\n      swap2\n      pop\n        /* \"#utility.yul\":5993:6013   */\n      tag_180\n        /* \"#utility.yul\":6011:6012   */\n      dup4\n        /* \"#utility.yul\":5993:6013   */\n      tag_163\n      jump\t// in\n    tag_180:\n        /* \"#utility.yul\":5988:6013   */\n      swap3\n      pop\n        /* \"#utility.yul\":6147:6148   */\n      dup3\n        /* \"#utility.yul\":6079:6145   */\n      0xffffffffffffffffffffffffffffffffffffffffffffffffffffffffffffffff\n        /* \"#utility.yul\":6075:6149   */\n      sub\n        /* \"#utility.yul\":6072:6073   */\n      dup3\n        /* \"#utility.yul\":6069:6150   */\n      gt\n        /* \"#utility.yul\":6066:6173   */\n      iszero\n      tag_181\n      jumpi\n        /* \"#utility.yul\":6153:6171   */\n      tag_182\n      tag_183\n      jump\t// in\n    tag_182:\n        /* \"#utility.yul\":6066:6173   */\n    tag_181:\n        /* \"#utility.yul\":6197:6198   */\n      dup3\n        /* \"#utility.yul\":6194:6195   */\n      dup3\n        /* \"#utility.yul\":6190:6199   */\n      add\n        /* \"#utility.yul\":6183:6199   */\n      swap1\n      pop\n        /* \"#utility.yul\":5900:6205   */\n      swap3\n      swap2\n      pop\n      pop\n      jump\t// out\n        /* \"#utility.yul\":6211:6402   */\n    tag_80:\n        /* \"#utility.yul\":6251:6255   */\n      0x00\n        /* \"#utility.yul\":6271:6291   */\n      tag_185\n        /* \"#utility.yul\":6289:6290   */\n      dup3\n        /* \"#utility.yul\":6271:6291   */\n      tag_163\n      jump\t// in\n    tag_185:\n        /* \"#utility.yul\":6266:6291   */\n      swap2\n      pop\n        /* \"#utility.yul\":6305:6325   */\n      tag_186\n        /* \"#utility.yul\":6323:6324   */\n      dup4\n        /* \"#utility.yul\":6305:6325   */\n      tag_163\n      jump\t// in\n    tag_186:\n        /* \"#utility.yul\":6300:6325   */\n      swap3\n      pop\n        /* \"#utility.yul\":6344:6345   */\n      dup3\n        /* \"#utility.yul\":6341:6342   */\n      dup3\n        /* \"#utility.yul\":6338:6346   */\n      lt\n        /* \"#utility.yul\":6335:6369   */\n      iszero\n      tag_187\n      jumpi\n        /* \"#utility.yul\":6349:6367   */\n      tag_188\n      tag_183\n      jump\t// in\n    tag_188:\n        /* \"#utility.yul\":6335:6369   */\n    tag_187:\n        /* \"#utility.yul\":6394:6395   */\n      dup3\n        /* \"#utility.yul\":6391:6392   */\n      dup3\n        /* \"#utility.yul\":6387:6396   */\n      sub\n        /* \"#utility.yul\":6379:6396   */\n      swap1\n      pop\n        /* \"#utility.yul\":6211:6402   */\n      swap3\n      swap2\n      pop\n      pop\n      jump\t// out\n        /* \"#utility.yul\":6408:6504   */\n    tag_139:\n        /* \"#utility.yul\":6445:6452   */\n      0x00\n        /* \"#utility.yul\":6474:6498   */\n      tag_190\n        /* \"#utility.yul\":6492:6497   */\n      dup3\n        /* \"#utility.yul\":6474:6498   */\n      tag_191\n      jump\t// in\n    tag_190:\n        /* \"#utility.yul\":6463:6498   */\n      swap1\n      pop\n        /* \"#utility.yul\":6408:6504   */\n      swap2\n      swap1\n      pop\n      jump\t// out\n        /* \"#utility.yul\":6510:6636   */\n    tag_191:\n        /* \"#utility.yul\":6547:6554   */\n      0x00\n        /* \"#utility.yul\":6587:6629   */\n      0xffffffffffffffffffffffffffffffffffffffff\n        /* \"#utility.yul\":6580:6585   */\n      dup3\n        /* \"#utility.yul\":6576:6630   */\n      and\n        /* \"#utility.yul\":6565:6630   */\n      swap1\n      pop\n        /* \"#utility.yul\":6510:6636   */\n      swap2\n      swap1\n      pop\n      jump\t// out\n        /* \"#utility.yul\":6642:6719   */\n    tag_163:\n        /* \"#utility.yul\":6679:6686   */\n      0x00\n        /* \"#utility.yul\":6708:6713   */\n      dup2\n        /* \"#utility.yul\":6697:6713   */\n      swap1\n      pop\n        /* \"#utility.yul\":6642:6719   */\n      swap2\n      swap1\n      pop\n      jump\t// out\n        /* \"#utility.yul\":6725:7032   */\n    tag_147:\n        /* \"#utility.yul\":6793:6794   */\n      0x00\n        /* \"#utility.yul\":6803:6916   */\n    tag_195:\n        /* \"#utility.yul\":6817:6823   */\n      dup4\n        /* \"#utility.yul\":6814:6815   */\n      dup2\n        /* \"#utility.yul\":6811:6824   */\n      lt\n        /* \"#utility.yul\":6803:6916   */\n      iszero\n      tag_197\n      jumpi\n        /* \"#utility.yul\":6902:6903   */\n      dup1\n        /* \"#utility.yul\":6897:6900   */\n      dup3\n        /* \"#utility.yul\":6893:6904   */\n      add\n        /* \"#utility.yul\":6887:6905   */\n      mload\n        /* \"#utility.yul\":6883:6884   */\n      dup2\n        /* \"#utility.yul\":6878:6881   */\n      dup5\n        /* \"#utility.yul\":6874:6885   */\n      add\n        /* \"#utility.yul\":6867:6906   */\n      mstore\n        /* \"#utility.yul\":6839:6841   */\n      0x20\n        /* \"#utility.yul\":6836:6837   */\n      dup2\n        /* \"#utility.yul\":6832:6842   */\n      add\n        /* \"#utility.yul\":6827:6842   */\n      swap1\n      pop\n        /* \"#utility.yul\":6803:6916   */\n      jump(tag_195)\n    tag_197:\n        /* \"#utility.yul\":6934:6940   */\n      dup4\n        /* \"#utility.yul\":6931:6932   */\n      dup2\n        /* \"#utility.yul\":6928:6941   */\n      gt\n        /* \"#utility.yul\":6925:7026   */\n      iszero\n      tag_198\n      jumpi\n        /* \"#utility.yul\":7014:7015   */\n      0x00\n        /* \"#utility.yul\":7005:7011   */\n      dup5\n        /* \"#utility.yul\":7000:7003   */\n      dup5\n        /* \"#utility.yul\":6996:7012   */\n      add\n        /* \"#utility.yul\":6989:7016   */\n      mstore\n        /* \"#utility.yul\":6925:7026   */\n    tag_198:\n        /* \"#utility.yul\":6774:7032   */\n      pop\n        /* \"#utility.yul\":6725:7032   */\n      pop\n      pop\n      pop\n      jump\t// out\n        /* \"#utility.yul\":7038:7358   */\n    tag_63:\n        /* \"#utility.yul\":7082:7088   */\n      0x00\n        /* \"#utility.yul\":7119:7120   */\n      0x02\n        /* \"#utility.yul\":7113:7117   */\n      dup3\n        /* \"#utility.yul\":7109:7121   */\n      div\n        /* \"#utility.yul\":7099:7121   */\n      swap1\n      pop\n        /* \"#utility.yul\":7166:7167   */\n      0x01\n        /* \"#utility.yul\":7160:7164   */\n      dup3\n        /* \"#utility.yul\":7156:7168   */\n      and\n        /* \"#utility.yul\":7187:7205   */\n      dup1\n        /* \"#utility.yul\":7177:7258   */\n      tag_200\n      jumpi\n        /* \"#utility.yul\":7243:7247   */\n      0x7f\n        /* \"#utility.yul\":7235:7241   */\n      dup3\n        /* \"#utility.yul\":7231:7248   */\n      and\n        /* \"#utility.yul\":7221:7248   */\n      swap2\n      pop\n        /* \"#utility.yul\":7177:7258   */\n    tag_200:\n        /* \"#utility.yul\":7305:7307   */\n      0x20\n        /* \"#utility.yul\":7297:7303   */\n      dup3\n        /* \"#utility.yul\":7294:7308   */\n      lt\n        /* \"#utility.yul\":7274:7292   */\n      dup2\n        /* \"#utility.yul\":7271:7309   */\n      eq\n        /* \"#utility.yul\":7268:7352   */\n      iszero\n      tag_201\n      jumpi\n        /* \"#utility.yul\":7324:7342   */\n      tag_202\n      tag_203\n      jump\t// in\n    tag_202:\n        /* \"#utility.yul\":7268:7352   */\n    tag_201:\n        /* \"#utility.yul\":7089:7358   */\n      pop\n        /* \"#utility.yul\":7038:7358   */\n      swap2\n      swap1\n      pop\n      jump\t// out\n        /* \"#utility.yul\":7364:7544   */\n    tag_183:\n        /* \"#utility.yul\":7412:7489   */\n      0x4e487b7100000000000000000000000000000000000000000000000000000000\n        /* \"#utility.yul\":7409:7410   */\n      0x00\n        /* \"#utility.yul\":7402:7490   */\n      mstore\n        /* \"#utility.yul\":7509:7513   */\n      0x11\n        /* \"#utility.yul\":7506:7507   */\n      0x04\n        /* \"#utility.yul\":7499:7514   */\n      mstore\n        /* \"#utility.yul\":7533:7537   */\n      0x24\n        /* \"#utility.yul\":7530:7531   */\n      0x00\n        /* \"#utility.yul\":7523:7538   */\n      revert\n        /* \"#utility.yul\":7550:7730   */\n    tag_203:\n        /* \"#utility.yul\":7598:7675   */\n      0x4e487b7100000000000000000000000000000000000000000000000000000000\n        /* \"#utility.yul\":7595:7596   */\n      0x00\n        /* \"#utility.yul\":7588:7676   */\n      mstore\n        /* \"#utility.yul\":7695:7699   */\n      0x22\n        /* \"#utility.yul\":7692:7693   */\n      0x04\n        /* \"#utility.yul\":7685:7700   */\n      mstore\n        /* \"#utility.yul\":7719:7723   */\n      0x24\n        /* \"#utility.yul\":7716:7717   */\n      0x00\n        /* \"#utility.yul\":7709:7724   */\n      revert\n        /* \"#utility.yul\":7859:7976   */\n    tag_114:\n        /* \"#utility.yul\":7968:7969   */\n      0x00\n        /* \"#utility.yul\":7965:7966   */\n      dup1\n        /* \"#utility.yul\":7958:7970   */\n      revert\n        /* \"#utility.yul\":7982:8084   */\n    tag_149:\n        /* \"#utility.yul\":8023:8029   */\n      0x00\n        /* \"#utility.yul\":8074:8076   */\n      0x1f\n        /* \"#utility.yul\":8070:8077   */\n      not\n        /* \"#utility.yul\":8065:8067   */\n      0x1f\n        /* \"#utility.yul\":8058:8063   */\n      dup4\n        /* \"#utility.yul\":8054:8068   */\n      add\n        /* \"#utility.yul\":8050:8078   */\n      and\n        /* \"#utility.yul\":8040:8078   */\n      swap1\n      pop\n        /* \"#utility.yul\":7982:8084   */\n      swap2\n      swap1\n      pop\n      jump\t// out\n        /* \"#utility.yul\":8090:8253   */\n    tag_154:\n        /* \"#utility.yul\":8230:8245   */\n      0x4e6f7420746865206f776e657200000000000000000000000000000000000000\n        /* \"#utility.yul\":8226:8227   */\n      0x00\n        /* \"#utility.yul\":8218:8224   */\n      dup3\n        /* \"#utility.yul\":8214:8228   */\n      add\n        /* \"#utility.yul\":8207:8246   */\n      mstore\n        /* \"#utility.yul\":8090:8253   */\n      pop\n      jump\t// out\n        /* \"#utility.yul\":8259:8428   */\n    tag_159:\n        /* \"#utility.yul\":8399:8420   */\n      0x4e6f7420746865206f776e6572206f6620494400000000000000000000000000\n        /* \"#utility.yul\":8395:8396   */\n      0x00\n        /* \"#utility.yul\":8387:8393   */\n      dup3\n        /* \"#utility.yul\":8383:8397   */\n      add\n        /* \"#utility.yul\":8376:8421   */\n      mstore\n        /* \"#utility.yul\":8259:8428   */\n      pop\n      jump\t// out\n        /* \"#utility.yul\":8434:8556   */\n    tag_106:\n        /* \"#utility.yul\":8507:8531   */\n      tag_213\n        /* \"#utility.yul\":8525:8530   */\n      dup2\n        /* \"#utility.yul\":8507:8531   */\n      tag_139\n      jump\t// in\n    tag_213:\n        /* \"#utility.yul\":8500:8505   */\n      dup2\n        /* \"#utility.yul\":8497:8532   */\n      eq\n        /* \"#utility.yul\":8487:8550   */\n      tag_214\n      jumpi\n        /* \"#utility.yul\":8546:8547   */\n      0x00\n        /* \"#utility.yul\":8543:8544   */\n      dup1\n        /* \"#utility.yul\":8536:8548   */\n      revert\n        /* \"#utility.yul\":8487:8550   */\n    tag_214:\n        /* \"#utility.yul\":8434:8556   */\n      pop\n      jump\t// out\n        /* \"#utility.yul\":8562:8684   */\n    tag_110:\n        /* \"#utility.yul\":8635:8659   */\n      tag_216\n        /* \"#utility.yul\":8653:8658   */\n      dup2\n        /* \"#utility.yul\":8635:8659   */\n      tag_163\n      jump\t// in\n    tag_216:\n        /* \"#utility.yul\":8628:8633   */\n      dup2\n        /* \"#utility.yul\":8625:8660   */\n      eq\n        /* \"#utility.yul\":8615:8678   */\n      tag_217\n      jumpi\n        /* \"#utility.yul\":8674:8675   */\n      0x00\n        /* \"#utility.yul\":8671:8672   */\n      dup1\n        /* \"#utility.yul\":8664:8676   */\n      revert\n        /* \"#utility.yul\":8615:8678   */\n    tag_217:\n        /* \"#utility.yul\":8562:8684   */\n      pop\n      jump\t// out\n\n    auxdata: 0xa2646970667358221220dd9615b732cfb2dfc3dfe2a9ce9752e779989f001a53d896cc63d3d34bbd544564736f6c63430008070033\n}\n",
				"bytecode": {
					"linkReferences": {},
					"object": "60806040523480156200001157600080fd5b50604051620012b4380380620012b483398181016040528101906200003791906200019f565b81600090805190602001906200004f92919062000071565b5080600190805190602001906200006892919062000071565b505050620003a8565b8280546200007f90620002b9565b90600052602060002090601f016020900481019282620000a35760008555620000ef565b82601f10620000be57805160ff1916838001178555620000ef565b82800160010185558215620000ef579182015b82811115620000ee578251825591602001919060010190620000d1565b5b509050620000fe919062000102565b5090565b5b808211156200011d57600081600090555060010162000103565b5090565b60006200013862000132846200024d565b62000224565b90508281526020810184848401111562000157576200015662000388565b5b6200016484828562000283565b509392505050565b600082601f83011262000184576200018362000383565b5b81516200019684826020860162000121565b91505092915050565b60008060408385031215620001b957620001b862000392565b5b600083015167ffffffffffffffff811115620001da57620001d96200038d565b5b620001e8858286016200016c565b925050602083015167ffffffffffffffff8111156200020c576200020b6200038d565b5b6200021a858286016200016c565b9150509250929050565b60006200023062000243565b90506200023e8282620002ef565b919050565b6000604051905090565b600067ffffffffffffffff8211156200026b576200026a62000354565b5b620002768262000397565b9050602081019050919050565b60005b83811015620002a357808201518184015260208101905062000286565b83811115620002b3576000848401525b50505050565b60006002820490506001821680620002d257607f821691505b60208210811415620002e957620002e862000325565b5b50919050565b620002fa8262000397565b810181811067ffffffffffffffff821117156200031c576200031b62000354565b5b80604052505050565b7f4e487b7100000000000000000000000000000000000000000000000000000000600052602260045260246000fd5b7f4e487b7100000000000000000000000000000000000000000000000000000000600052604160045260246000fd5b600080fd5b600080fd5b600080fd5b600080fd5b6000601f19601f8301169050919050565b610efc80620003b86000396000f3fe608060405234801561001057600080fd5b50600436106100a95760003560e01c806340c10f191161007157806340c10f191461016457806355b6ed5c146101805780636352211e146101b057806370a08231146101e057806395d89b4114610210578063a9059cbb1461022e576100a9565b8063025e7c27146100ae57806306fdde03146100de578063095ea7b3146100fc57806323b872dd1461011857806327e235e314610134575b600080fd5b6100c860048036038101906100c39190610b29565b61024a565b6040516100d59190610bf3565b60405180910390f35b6100e661027d565b6040516100f39190610c0e565b60405180910390f35b61011660048036038101906101119190610ae9565b61030f565b005b610132600480360381019061012d9190610a96565b610464565b005b61014e60048036038101906101499190610a29565b61067b565b60405161015b9190610c70565b60405180910390f35b61017e60048036038101906101799190610ae9565b610693565b005b61019a60048036038101906101959190610a56565b610740565b6040516101a79190610c70565b60405180910390f35b6101ca60048036038101906101c59190610b29565b610765565b6040516101d79190610bf3565b60405180910390f35b6101fa60048036038101906101f59190610a29565b6107a2565b6040516102079190610c70565b60405180910390f35b6102186107eb565b6040516102259190610c0e565b60405180910390f35b61024860048036038101906102439190610ae9565b61087d565b005b60036020528060005260406000206000915054906101000a900473ffffffffffffffffffffffffffffffffffffffff1681565b60606000805461028c90610da0565b80601f01602080910402602001604051908101604052809291908181526020018280546102b890610da0565b80156103055780601f106102da57610100808354040283529160200191610305565b820191906000526020600020905b8154815290600101906020018083116102e857829003601f168201915b5050505050905090565b3373ffffffffffffffffffffffffffffffffffffffff1661032f82610765565b73ffffffffffffffffffffffffffffffffffffffff1614610385576040517f08c379a000000000000000000000000000000000000000000000000000000000815260040161037c90610c50565b60405180910390fd5b806004600061039384610765565b73ffffffffffffffffffffffffffffffffffffffff1673ffffffffffffffffffffffffffffffffffffffff16815260200190815260200160002060008473ffffffffffffffffffffffffffffffffffffffff1673ffffffffffffffffffffffffffffffffffffffff16815260200190815260200160002081905550816003600083815260200190815260200160002060006101000a81548173ffffffffffffffffffffffffffffffffffffffff021916908373ffffffffffffffffffffffffffffffffffffffff1602179055505050565b8273ffffffffffffffffffffffffffffffffffffffff1661048482610765565b73ffffffffffffffffffffffffffffffffffffffff16146104da576040517f08c379a00000000000000000000000000000000000000000000000000000000081526004016104d190610c30565b60405180910390fd5b6001600260008573ffffffffffffffffffffffffffffffffffffffff1673ffffffffffffffffffffffffffffffffffffffff168152602001908152602001600020600082825461052a9190610cfd565b925050819055506001600260008473ffffffffffffffffffffffffffffffffffffffff1673ffffffffffffffffffffffffffffffffffffffff16815260200190815260200160002060008282546105819190610ca7565b925050819055506001600460008573ffffffffffffffffffffffffffffffffffffffff1673ffffffffffffffffffffffffffffffffffffffff16815260200190815260200160002060006105d484610765565b73ffffffffffffffffffffffffffffffffffffffff1673ffffffffffffffffffffffffffffffffffffffff168152602001908152602001600020600082825461061d9190610cfd565b92505081905550816003600083815260200190815260200160002060006101000a81548173ffffffffffffffffffffffffffffffffffffffff021916908373ffffffffffffffffffffffffffffffffffffffff160217905550505050565b60026020528060005260406000206000915090505481565b6001600260008473ffffffffffffffffffffffffffffffffffffffff1673ffffffffffffffffffffffffffffffffffffffff16815260200190815260200160002060008282546106e39190610ca7565b92505081905550816003600083815260200190815260200160002060006101000a81548173ffffffffffffffffffffffffffffffffffffffff021916908373ffffffffffffffffffffffffffffffffffffffff1602179055505050565b6004602052816000526040600020602052806000526040600020600091509150505481565b60006003600083815260200190815260200160002060009054906101000a900473ffffffffffffffffffffffffffffffffffffffff169050919050565b6000600260008373ffffffffffffffffffffffffffffffffffffffff1673ffffffffffffffffffffffffffffffffffffffff168152602001908152602001600020549050919050565b6060600180546107fa90610da0565b80601f016020809104026020016040519081016040528092919081815260200182805461082690610da0565b80156108735780601f1061084857610100808354040283529160200191610873565b820191906000526020600020905b81548152906001019060200180831161085657829003601f168201915b5050505050905090565b3373ffffffffffffffffffffffffffffffffffffffff1661089d82610765565b73ffffffffffffffffffffffffffffffffffffffff16146108f3576040517f08c379a00000000000000000000000000000000000000000000000000000000081526004016108ea90610c50565b60405180910390fd5b60016002600061090284610765565b73ffffffffffffffffffffffffffffffffffffffff1673ffffffffffffffffffffffffffffffffffffffff168152602001908152602001600020600082825461094b9190610cfd565b925050819055506001600260008473ffffffffffffffffffffffffffffffffffffffff1673ffffffffffffffffffffffffffffffffffffffff16815260200190815260200160002060008282546109a29190610ca7565b92505081905550816003600083815260200190815260200160002060006101000a81548173ffffffffffffffffffffffffffffffffffffffff021916908373ffffffffffffffffffffffffffffffffffffffff1602179055505050565b600081359050610a0e81610e98565b92915050565b600081359050610a2381610eaf565b92915050565b600060208284031215610a3f57610a3e610e30565b5b6000610a4d848285016109ff565b91505092915050565b60008060408385031215610a6d57610a6c610e30565b5b6000610a7b858286016109ff565b9250506020610a8c858286016109ff565b9150509250929050565b600080600060608486031215610aaf57610aae610e30565b5b6000610abd868287016109ff565b9350506020610ace868287016109ff565b9250506040610adf86828701610a14565b9150509250925092565b60008060408385031215610b0057610aff610e30565b5b6000610b0e858286016109ff565b9250506020610b1f85828601610a14565b9150509250929050565b600060208284031215610b3f57610b3e610e30565b5b6000610b4d84828501610a14565b91505092915050565b610b5f81610d31565b82525050565b6000610b7082610c8b565b610b7a8185610c96565b9350610b8a818560208601610d6d565b610b9381610e35565b840191505092915050565b6000610bab600d83610c96565b9150610bb682610e46565b602082019050919050565b6000610bce601383610c96565b9150610bd982610e6f565b602082019050919050565b610bed81610d63565b82525050565b6000602082019050610c086000830184610b56565b92915050565b60006020820190508181036000830152610c288184610b65565b905092915050565b60006020820190508181036000830152610c4981610b9e565b9050919050565b60006020820190508181036000830152610c6981610bc1565b9050919050565b6000602082019050610c856000830184610be4565b92915050565b600081519050919050565b600082825260208201905092915050565b6000610cb282610d63565b9150610cbd83610d63565b9250827fffffffffffffffffffffffffffffffffffffffffffffffffffffffffffffffff03821115610cf257610cf1610dd2565b5b828201905092915050565b6000610d0882610d63565b9150610d1383610d63565b925082821015610d2657610d25610dd2565b5b828203905092915050565b6000610d3c82610d43565b9050919050565b600073ffffffffffffffffffffffffffffffffffffffff82169050919050565b6000819050919050565b60005b83811015610d8b578082015181840152602081019050610d70565b83811115610d9a576000848401525b50505050565b60006002820490506001821680610db857607f821691505b60208210811415610dcc57610dcb610e01565b5b50919050565b7f4e487b7100000000000000000000000000000000000000000000000000000000600052601160045260246000fd5b7f4e487b7100000000000000000000000000000000000000000000000000000000600052602260045260246000fd5b600080fd5b6000601f19601f8301169050919050565b7f4e6f7420746865206f776e657200000000000000000000000000000000000000600082015250565b7f4e6f7420746865206f776e6572206f6620494400000000000000000000000000600082015250565b610ea181610d31565b8114610eac57600080fd5b50565b610eb881610d63565b8114610ec357600080fd5b5056fea2646970667358221220dd9615b732cfb2dfc3dfe2a9ce9752e779989f001a53d896cc63d3d34bbd544564736f6c63430008070033",
					"opcodes": "PUSH1 0x80 PUSH1 0x40 MSTORE CALLVALUE DUP1 ISZERO PUSH3 0x11 JUMPI PUSH1 0x0 DUP1 REVERT JUMPDEST POP PUSH1 0x40 MLOAD PUSH3 0x12B4 CODESIZE SUB DUP1 PUSH3 0x12B4 DUP4 CODECOPY DUP2 DUP2 ADD PUSH1 0x40 MSTORE DUP2 ADD SWAP1 PUSH3 0x37 SWAP2 SWAP1 PUSH3 0x19F JUMP JUMPDEST DUP2 PUSH1 0x0 SWAP1 DUP1 MLOAD SWAP1 PUSH1 0x20 ADD SWAP1 PUSH3 0x4F SWAP3 SWAP2 SWAP1 PUSH3 0x71 JUMP JUMPDEST POP DUP1 PUSH1 0x1 SWAP1 DUP1 MLOAD SWAP1 PUSH1 0x20 ADD SWAP1 PUSH3 0x68 SWAP3 SWAP2 SWAP1 PUSH3 0x71 JUMP JUMPDEST POP POP POP PUSH3 0x3A8 JUMP JUMPDEST DUP3 DUP1 SLOAD PUSH3 0x7F SWAP1 PUSH3 0x2B9 JUMP JUMPDEST SWAP1 PUSH1 0x0 MSTORE PUSH1 0x20 PUSH1 0x0 KECCAK256 SWAP1 PUSH1 0x1F ADD PUSH1 0x20 SWAP1 DIV DUP2 ADD SWAP3 DUP3 PUSH3 0xA3 JUMPI PUSH1 0x0 DUP6 SSTORE PUSH3 0xEF JUMP JUMPDEST DUP3 PUSH1 0x1F LT PUSH3 0xBE JUMPI DUP1 MLOAD PUSH1 0xFF NOT AND DUP4 DUP1 ADD OR DUP6 SSTORE PUSH3 0xEF JUMP JUMPDEST DUP3 DUP1 ADD PUSH1 0x1 ADD DUP6 SSTORE DUP3 ISZERO PUSH3 0xEF JUMPI SWAP2 DUP3 ADD JUMPDEST DUP3 DUP2 GT ISZERO PUSH3 0xEE JUMPI DUP3 MLOAD DUP3 SSTORE SWAP2 PUSH1 0x20 ADD SWAP2 SWAP1 PUSH1 0x1 ADD SWAP1 PUSH3 0xD1 JUMP JUMPDEST JUMPDEST POP SWAP1 POP PUSH3 0xFE SWAP2 SWAP1 PUSH3 0x102 JUMP JUMPDEST POP SWAP1 JUMP JUMPDEST JUMPDEST DUP1 DUP3 GT ISZERO PUSH3 0x11D JUMPI PUSH1 0x0 DUP2 PUSH1 0x0 SWAP1 SSTORE POP PUSH1 0x1 ADD PUSH3 0x103 JUMP JUMPDEST POP SWAP1 JUMP JUMPDEST PUSH1 0x0 PUSH3 0x138 PUSH3 0x132 DUP5 PUSH3 0x24D JUMP JUMPDEST PUSH3 0x224 JUMP JUMPDEST SWAP1 POP DUP3 DUP2 MSTORE PUSH1 0x20 DUP2 ADD DUP5 DUP5 DUP5 ADD GT ISZERO PUSH3 0x157 JUMPI PUSH3 0x156 PUSH3 0x388 JUMP JUMPDEST JUMPDEST PUSH3 0x164 DUP5 DUP3 DUP6 PUSH3 0x283 JUMP JUMPDEST POP SWAP4 SWAP3 POP POP POP JUMP JUMPDEST PUSH1 0x0 DUP3 PUSH1 0x1F DUP4 ADD SLT PUSH3 0x184 JUMPI PUSH3 0x183 PUSH3 0x383 JUMP JUMPDEST JUMPDEST DUP2 MLOAD PUSH3 0x196 DUP5 DUP3 PUSH1 0x20 DUP7 ADD PUSH3 0x121 JUMP JUMPDEST SWAP2 POP POP SWAP3 SWAP2 POP POP JUMP JUMPDEST PUSH1 0x0 DUP1 PUSH1 0x40 DUP4 DUP6 SUB SLT ISZERO PUSH3 0x1B9 JUMPI PUSH3 0x1B8 PUSH3 0x392 JUMP JUMPDEST JUMPDEST PUSH1 0x0 DUP4 ADD MLOAD PUSH8 0xFFFFFFFFFFFFFFFF DUP2 GT ISZERO PUSH3 0x1DA JUMPI PUSH3 0x1D9 PUSH3 0x38D JUMP JUMPDEST JUMPDEST PUSH3 0x1E8 DUP6 DUP3 DUP7 ADD PUSH3 0x16C JUMP JUMPDEST SWAP3 POP POP PUSH1 0x20 DUP4 ADD MLOAD PUSH8 0xFFFFFFFFFFFFFFFF DUP2 GT ISZERO PUSH3 0x20C JUMPI PUSH3 0x20B PUSH3 0x38D JUMP JUMPDEST JUMPDEST PUSH3 0x21A DUP6 DUP3 DUP7 ADD PUSH3 0x16C JUMP JUMPDEST SWAP2 POP POP SWAP3 POP SWAP3 SWAP1 POP JUMP JUMPDEST PUSH1 0x0 PUSH3 0x230 PUSH3 0x243 JUMP JUMPDEST SWAP1 POP PUSH3 0x23E DUP3 DUP3 PUSH3 0x2EF JUMP JUMPDEST SWAP2 SWAP1 POP JUMP JUMPDEST PUSH1 0x0 PUSH1 0x40 MLOAD SWAP1 POP SWAP1 JUMP JUMPDEST PUSH1 0x0 PUSH8 0xFFFFFFFFFFFFFFFF DUP3 GT ISZERO PUSH3 0x26B JUMPI PUSH3 0x26A PUSH3 0x354 JUMP JUMPDEST JUMPDEST PUSH3 0x276 DUP3 PUSH3 0x397 JUMP JUMPDEST SWAP1 POP PUSH1 0x20 DUP2 ADD SWAP1 POP SWAP2 SWAP1 POP JUMP JUMPDEST PUSH1 0x0 JUMPDEST DUP4 DUP2 LT ISZERO PUSH3 0x2A3 JUMPI DUP1 DUP3 ADD MLOAD DUP2 DUP5 ADD MSTORE PUSH1 0x20 DUP2 ADD SWAP1 POP PUSH3 0x286 JUMP JUMPDEST DUP4 DUP2 GT ISZERO PUSH3 0x2B3 JUMPI PUSH1 0x0 DUP5 DUP5 ADD MSTORE JUMPDEST POP POP POP POP JUMP JUMPDEST PUSH1 0x0 PUSH1 0x2 DUP3 DIV SWAP1 POP PUSH1 0x1 DUP3 AND DUP1 PUSH3 0x2D2 JUMPI PUSH1 0x7F DUP3 AND SWAP2 POP JUMPDEST PUSH1 0x20 DUP3 LT DUP2 EQ ISZERO PUSH3 0x2E9 JUMPI PUSH3 0x2E8 PUSH3 0x325 JUMP JUMPDEST JUMPDEST POP SWAP2 SWAP1 POP JUMP JUMPDEST PUSH3 0x2FA DUP3 PUSH3 0x397 JUMP JUMPDEST DUP2 ADD DUP2 DUP2 LT PUSH8 0xFFFFFFFFFFFFFFFF DUP3 GT OR ISZERO PUSH3 0x31C JUMPI PUSH3 0x31B PUSH3 0x354 JUMP JUMPDEST JUMPDEST DUP1 PUSH1 0x40 MSTORE POP POP POP JUMP JUMPDEST PUSH32 0x4E487B7100000000000000000000000000000000000000000000000000000000 PUSH1 0x0 MSTORE PUSH1 0x22 PUSH1 0x4 MSTORE PUSH1 0x24 PUSH1 0x0 REVERT JUMPDEST PUSH32 0x4E487B7100000000000000000000000000000000000000000000000000000000 PUSH1 0x0 MSTORE PUSH1 0x41 PUSH1 0x4 MSTORE PUSH1 0x24 PUSH1 0x0 REVERT JUMPDEST PUSH1 0x0 DUP1 REVERT JUMPDEST PUSH1 0x0 DUP1 REVERT JUMPDEST PUSH1 0x0 DUP1 REVERT JUMPDEST PUSH1 0x0 DUP1 REVERT JUMPDEST PUSH1 0x0 PUSH1 0x1F NOT PUSH1 0x1F DUP4 ADD AND SWAP1 POP SWAP2 SWAP1 POP JUMP JUMPDEST PUSH2 0xEFC DUP1 PUSH3 0x3B8 PUSH1 0x0 CODECOPY PUSH1 0x0 RETURN INVALID PUSH1 0x80 PUSH1 0x40 MSTORE CALLVALUE DUP1 ISZERO PUSH2 0x10 JUMPI PUSH1 0x0 DUP1 REVERT JUMPDEST POP PUSH1 0x4 CALLDATASIZE LT PUSH2 0xA9 JUMPI PUSH1 0x0 CALLDATALOAD PUSH1 0xE0 SHR DUP1 PUSH4 0x40C10F19 GT PUSH2 0x71 JUMPI DUP1 PUSH4 0x40C10F19 EQ PUSH2 0x164 JUMPI DUP1 PUSH4 0x55B6ED5C EQ PUSH2 0x180 JUMPI DUP1 PUSH4 0x6352211E EQ PUSH2 0x1B0 JUMPI DUP1 PUSH4 0x70A08231 EQ PUSH2 0x1E0 JUMPI DUP1 PUSH4 0x95D89B41 EQ PUSH2 0x210 JUMPI DUP1 PUSH4 0xA9059CBB EQ PUSH2 0x22E JUMPI PUSH2 0xA9 JUMP JUMPDEST DUP1 PUSH4 0x25E7C27 EQ PUSH2 0xAE JUMPI DUP1 PUSH4 0x6FDDE03 EQ PUSH2 0xDE JUMPI DUP1 PUSH4 0x95EA7B3 EQ PUSH2 0xFC JUMPI DUP1 PUSH4 0x23B872DD EQ PUSH2 0x118 JUMPI DUP1 PUSH4 0x27E235E3 EQ PUSH2 0x134 JUMPI JUMPDEST PUSH1 0x0 DUP1 REVERT JUMPDEST PUSH2 0xC8 PUSH1 0x4 DUP1 CALLDATASIZE SUB DUP2 ADD SWAP1 PUSH2 0xC3 SWAP2 SWAP1 PUSH2 0xB29 JUMP JUMPDEST PUSH2 0x24A JUMP JUMPDEST PUSH1 0x40 MLOAD PUSH2 0xD5 SWAP2 SWAP1 PUSH2 0xBF3 JUMP JUMPDEST PUSH1 0x40 MLOAD DUP1 SWAP2 SUB SWAP1 RETURN JUMPDEST PUSH2 0xE6 PUSH2 0x27D JUMP JUMPDEST PUSH1 0x40 MLOAD PUSH2 0xF3 SWAP2 SWAP1 PUSH2 0xC0E JUMP JUMPDEST PUSH1 0x40 MLOAD DUP1 SWAP2 SUB SWAP1 RETURN JUMPDEST PUSH2 0x116 PUSH1 0x4 DUP1 CALLDATASIZE SUB DUP2 ADD SWAP1 PUSH2 0x111 SWAP2 SWAP1 PUSH2 0xAE9 JUMP JUMPDEST PUSH2 0x30F JUMP JUMPDEST STOP JUMPDEST PUSH2 0x132 PUSH1 0x4 DUP1 CALLDATASIZE SUB DUP2 ADD SWAP1 PUSH2 0x12D SWAP2 SWAP1 PUSH2 0xA96 JUMP JUMPDEST PUSH2 0x464 JUMP JUMPDEST STOP JUMPDEST PUSH2 0x14E PUSH1 0x4 DUP1 CALLDATASIZE SUB DUP2 ADD SWAP1 PUSH2 0x149 SWAP2 SWAP1 PUSH2 0xA29 JUMP JUMPDEST PUSH2 0x67B JUMP JUMPDEST PUSH1 0x40 MLOAD PUSH2 0x15B SWAP2 SWAP1 PUSH2 0xC70 JUMP JUMPDEST PUSH1 0x40 MLOAD DUP1 SWAP2 SUB SWAP1 RETURN JUMPDEST PUSH2 0x17E PUSH1 0x4 DUP1 CALLDATASIZE SUB DUP2 ADD SWAP1 PUSH2 0x179 SWAP2 SWAP1 PUSH2 0xAE9 JUMP JUMPDEST PUSH2 0x693 JUMP JUMPDEST STOP JUMPDEST PUSH2 0x19A PUSH1 0x4 DUP1 CALLDATASIZE SUB DUP2 ADD SWAP1 PUSH2 0x195 SWAP2 SWAP1 PUSH2 0xA56 JUMP JUMPDEST PUSH2 0x740 JUMP JUMPDEST PUSH1 0x40 MLOAD PUSH2 0x1A7 SWAP2 SWAP1 PUSH2 0xC70 JUMP JUMPDEST PUSH1 0x40 MLOAD DUP1 SWAP2 SUB SWAP1 RETURN JUMPDEST PUSH2 0x1CA PUSH1 0x4 DUP1 CALLDATASIZE SUB DUP2 ADD SWAP1 PUSH2 0x1C5 SWAP2 SWAP1 PUSH2 0xB29 JUMP JUMPDEST PUSH2 0x765 JUMP JUMPDEST PUSH1 0x40 MLOAD PUSH2 0x1D7 SWAP2 SWAP1 PUSH2 0xBF3 JUMP JUMPDEST PUSH1 0x40 MLOAD DUP1 SWAP2 SUB SWAP1 RETURN JUMPDEST PUSH2 0x1FA PUSH1 0x4 DUP1 CALLDATASIZE SUB DUP2 ADD SWAP1 PUSH2 0x1F5 SWAP2 SWAP1 PUSH2 0xA29 JUMP JUMPDEST PUSH2 0x7A2 JUMP JUMPDEST PUSH1 0x40 MLOAD PUSH2 0x207 SWAP2 SWAP1 PUSH2 0xC70 JUMP JUMPDEST PUSH1 0x40 MLOAD DUP1 SWAP2 SUB SWAP1 RETURN JUMPDEST PUSH2 0x218 PUSH2 0x7EB JUMP JUMPDEST PUSH1 0x40 MLOAD PUSH2 0x225 SWAP2 SWAP1 PUSH2 0xC0E JUMP JUMPDEST PUSH1 0x40 MLOAD DUP1 SWAP2 SUB SWAP1 RETURN JUMPDEST PUSH2 0x248 PUSH1 0x4 DUP1 CALLDATASIZE SUB DUP2 ADD SWAP1 PUSH2 0x243 SWAP2 SWAP1 PUSH2 0xAE9 JUMP JUMPDEST PUSH2 0x87D JUMP JUMPDEST STOP JUMPDEST PUSH1 0x3 PUSH1 0x20 MSTORE DUP1 PUSH1 0x0 MSTORE PUSH1 0x40 PUSH1 0x0 KECCAK256 PUSH1 0x0 SWAP2 POP SLOAD SWAP1 PUSH2 0x100 EXP SWAP1 DIV PUSH20 0xFFFFFFFFFFFFFFFFFFFFFFFFFFFFFFFFFFFFFFFF AND DUP2 JUMP JUMPDEST PUSH1 0x60 PUSH1 0x0 DUP1 SLOAD PUSH2 0x28C SWAP1 PUSH2 0xDA0 JUMP JUMPDEST DUP1 PUSH1 0x1F ADD PUSH1 0x20 DUP1 SWAP2 DIV MUL PUSH1 0x20 ADD PUSH1 0x40 MLOAD SWAP1 DUP2 ADD PUSH1 0x40 MSTORE DUP1 SWAP3 SWAP2 SWAP1 DUP2 DUP2 MSTORE PUSH1 0x20 ADD DUP3 DUP1 SLOAD PUSH2 0x2B8 SWAP1 PUSH2 0xDA0 JUMP JUMPDEST DUP1 ISZERO PUSH2 0x305 JUMPI DUP1 PUSH1 0x1F LT PUSH2 0x2DA JUMPI PUSH2 0x100 DUP1 DUP4 SLOAD DIV MUL DUP4 MSTORE SWAP2 PUSH1 0x20 ADD SWAP2 PUSH2 0x305 JUMP JUMPDEST DUP3 ADD SWAP2 SWAP1 PUSH1 0x0 MSTORE PUSH1 0x20 PUSH1 0x0 KECCAK256 SWAP1 JUMPDEST DUP2 SLOAD DUP2 MSTORE SWAP1 PUSH1 0x1 ADD SWAP1 PUSH1 0x20 ADD DUP1 DUP4 GT PUSH2 0x2E8 JUMPI DUP3 SWAP1 SUB PUSH1 0x1F AND DUP3 ADD SWAP2 JUMPDEST POP POP POP POP POP SWAP1 POP SWAP1 JUMP JUMPDEST CALLER PUSH20 0xFFFFFFFFFFFFFFFFFFFFFFFFFFFFFFFFFFFFFFFF AND PUSH2 0x32F DUP3 PUSH2 0x765 JUMP JUMPDEST PUSH20 0xFFFFFFFFFFFFFFFFFFFFFFFFFFFFFFFFFFFFFFFF AND EQ PUSH2 0x385 JUMPI PUSH1 0x40 MLOAD PUSH32 0x8C379A000000000000000000000000000000000000000000000000000000000 DUP2 MSTORE PUSH1 0x4 ADD PUSH2 0x37C SWAP1 PUSH2 0xC50 JUMP JUMPDEST PUSH1 0x40 MLOAD DUP1 SWAP2 SUB SWAP1 REVERT JUMPDEST DUP1 PUSH1 0x4 PUSH1 0x0 PUSH2 0x393 DUP5 PUSH2 0x765 JUMP JUMPDEST PUSH20 0xFFFFFFFFFFFFFFFFFFFFFFFFFFFFFFFFFFFFFFFF AND PUSH20 0xFFFFFFFFFFFFFFFFFFFFFFFFFFFFFFFFFFFFFFFF AND DUP2 MSTORE PUSH1 0x20 ADD SWAP1 DUP2 MSTORE PUSH1 0x20 ADD PUSH1 0x0 KECCAK256 PUSH1 0x0 DUP5 PUSH20 0xFFFFFFFFFFFFFFFFFFFFFFFFFFFFFFFFFFFFFFFF AND PUSH20 0xFFFFFFFFFFFFFFFFFFFFFFFFFFFFFFFFFFFFFFFF AND DUP2 MSTORE PUSH1 0x20 ADD SWAP1 DUP2 MSTORE PUSH1 0x20 ADD PUSH1 0x0 KECCAK256 DUP2 SWAP1 SSTORE POP DUP2 PUSH1 0x3 PUSH1 0x0 DUP4 DUP2 MSTORE PUSH1 0x20 ADD SWAP1 DUP2 MSTORE PUSH1 0x20 ADD PUSH1 0x0 KECCAK256 PUSH1 0x0 PUSH2 0x100 EXP DUP2 SLOAD DUP2 PUSH20 0xFFFFFFFFFFFFFFFFFFFFFFFFFFFFFFFFFFFFFFFF MUL NOT AND SWAP1 DUP4 PUSH20 0xFFFFFFFFFFFFFFFFFFFFFFFFFFFFFFFFFFFFFFFF AND MUL OR SWAP1 SSTORE POP POP POP JUMP JUMPDEST DUP3 PUSH20 0xFFFFFFFFFFFFFFFFFFFFFFFFFFFFFFFFFFFFFFFF AND PUSH2 0x484 DUP3 PUSH2 0x765 JUMP JUMPDEST PUSH20 0xFFFFFFFFFFFFFFFFFFFFFFFFFFFFFFFFFFFFFFFF AND EQ PUSH2 0x4DA JUMPI PUSH1 0x40 MLOAD PUSH32 0x8C379A000000000000000000000000000000000000000000000000000000000 DUP2 MSTORE PUSH1 0x4 ADD PUSH2 0x4D1 SWAP1 PUSH2 0xC30 JUMP JUMPDEST PUSH1 0x40 MLOAD DUP1 SWAP2 SUB SWAP1 REVERT JUMPDEST PUSH1 0x1 PUSH1 0x2 PUSH1 0x0 DUP6 PUSH20 0xFFFFFFFFFFFFFFFFFFFFFFFFFFFFFFFFFFFFFFFF AND PUSH20 0xFFFFFFFFFFFFFFFFFFFFFFFFFFFFFFFFFFFFFFFF AND DUP2 MSTORE PUSH1 0x20 ADD SWAP1 DUP2 MSTORE PUSH1 0x20 ADD PUSH1 0x0 KECCAK256 PUSH1 0x0 DUP3 DUP3 SLOAD PUSH2 0x52A SWAP2 SWAP1 PUSH2 0xCFD JUMP JUMPDEST SWAP3 POP POP DUP2 SWAP1 SSTORE POP PUSH1 0x1 PUSH1 0x2 PUSH1 0x0 DUP5 PUSH20 0xFFFFFFFFFFFFFFFFFFFFFFFFFFFFFFFFFFFFFFFF AND PUSH20 0xFFFFFFFFFFFFFFFFFFFFFFFFFFFFFFFFFFFFFFFF AND DUP2 MSTORE PUSH1 0x20 ADD SWAP1 DUP2 MSTORE PUSH1 0x20 ADD PUSH1 0x0 KECCAK256 PUSH1 0x0 DUP3 DUP3 SLOAD PUSH2 0x581 SWAP2 SWAP1 PUSH2 0xCA7 JUMP JUMPDEST SWAP3 POP POP DUP2 SWAP1 SSTORE POP PUSH1 0x1 PUSH1 0x4 PUSH1 0x0 DUP6 PUSH20 0xFFFFFFFFFFFFFFFFFFFFFFFFFFFFFFFFFFFFFFFF AND PUSH20 0xFFFFFFFFFFFFFFFFFFFFFFFFFFFFFFFFFFFFFFFF AND DUP2 MSTORE PUSH1 0x20 ADD SWAP1 DUP2 MSTORE PUSH1 0x20 ADD PUSH1 0x0 KECCAK256 PUSH1 0x0 PUSH2 0x5D4 DUP5 PUSH2 0x765 JUMP JUMPDEST PUSH20 0xFFFFFFFFFFFFFFFFFFFFFFFFFFFFFFFFFFFFFFFF AND PUSH20 0xFFFFFFFFFFFFFFFFFFFFFFFFFFFFFFFFFFFFFFFF AND DUP2 MSTORE PUSH1 0x20 ADD SWAP1 DUP2 MSTORE PUSH1 0x20 ADD PUSH1 0x0 KECCAK256 PUSH1 0x0 DUP3 DUP3 SLOAD PUSH2 0x61D SWAP2 SWAP1 PUSH2 0xCFD JUMP JUMPDEST SWAP3 POP POP DUP2 SWAP1 SSTORE POP DUP2 PUSH1 0x3 PUSH1 0x0 DUP4 DUP2 MSTORE PUSH1 0x20 ADD SWAP1 DUP2 MSTORE PUSH1 0x20 ADD PUSH1 0x0 KECCAK256 PUSH1 0x0 PUSH2 0x100 EXP DUP2 SLOAD DUP2 PUSH20 0xFFFFFFFFFFFFFFFFFFFFFFFFFFFFFFFFFFFFFFFF MUL NOT AND SWAP1 DUP4 PUSH20 0xFFFFFFFFFFFFFFFFFFFFFFFFFFFFFFFFFFFFFFFF AND MUL OR SWAP1 SSTORE POP POP POP POP JUMP JUMPDEST PUSH1 0x2 PUSH1 0x20 MSTORE DUP1 PUSH1 0x0 MSTORE PUSH1 0x40 PUSH1 0x0 KECCAK256 PUSH1 0x0 SWAP2 POP SWAP1 POP SLOAD DUP2 JUMP JUMPDEST PUSH1 0x1 PUSH1 0x2 PUSH1 0x0 DUP5 PUSH20 0xFFFFFFFFFFFFFFFFFFFFFFFFFFFFFFFFFFFFFFFF AND PUSH20 0xFFFFFFFFFFFFFFFFFFFFFFFFFFFFFFFFFFFFFFFF AND DUP2 MSTORE PUSH1 0x20 ADD SWAP1 DUP2 MSTORE PUSH1 0x20 ADD PUSH1 0x0 KECCAK256 PUSH1 0x0 DUP3 DUP3 SLOAD PUSH2 0x6E3 SWAP2 SWAP1 PUSH2 0xCA7 JUMP JUMPDEST SWAP3 POP POP DUP2 SWAP1 SSTORE POP DUP2 PUSH1 0x3 PUSH1 0x0 DUP4 DUP2 MSTORE PUSH1 0x20 ADD SWAP1 DUP2 MSTORE PUSH1 0x20 ADD PUSH1 0x0 KECCAK256 PUSH1 0x0 PUSH2 0x100 EXP DUP2 SLOAD DUP2 PUSH20 0xFFFFFFFFFFFFFFFFFFFFFFFFFFFFFFFFFFFFFFFF MUL NOT AND SWAP1 DUP4 PUSH20 0xFFFFFFFFFFFFFFFFFFFFFFFFFFFFFFFFFFFFFFFF AND MUL OR SWAP1 SSTORE POP POP POP JUMP JUMPDEST PUSH1 0x4 PUSH1 0x20 MSTORE DUP2 PUSH1 0x0 MSTORE PUSH1 0x40 PUSH1 0x0 KECCAK256 PUSH1 0x20 MSTORE DUP1 PUSH1 0x0 MSTORE PUSH1 0x40 PUSH1 0x0 KECCAK256 PUSH1 0x0 SWAP2 POP SWAP2 POP POP SLOAD DUP2 JUMP JUMPDEST PUSH1 0x0 PUSH1 0x3 PUSH1 0x0 DUP4 DUP2 MSTORE PUSH1 0x20 ADD SWAP1 DUP2 MSTORE PUSH1 0x20 ADD PUSH1 0x0 KECCAK256 PUSH1 0x0 SWAP1 SLOAD SWAP1 PUSH2 0x100 EXP SWAP1 DIV PUSH20 0xFFFFFFFFFFFFFFFFFFFFFFFFFFFFFFFFFFFFFFFF AND SWAP1 POP SWAP2 SWAP1 POP JUMP JUMPDEST PUSH1 0x0 PUSH1 0x2 PUSH1 0x0 DUP4 PUSH20 0xFFFFFFFFFFFFFFFFFFFFFFFFFFFFFFFFFFFFFFFF AND PUSH20 0xFFFFFFFFFFFFFFFFFFFFFFFFFFFFFFFFFFFFFFFF AND DUP2 MSTORE PUSH1 0x20 ADD SWAP1 DUP2 MSTORE PUSH1 0x20 ADD PUSH1 0x0 KECCAK256 SLOAD SWAP1 POP SWAP2 SWAP1 POP JUMP JUMPDEST PUSH1 0x60 PUSH1 0x1 DUP1 SLOAD PUSH2 0x7FA SWAP1 PUSH2 0xDA0 JUMP JUMPDEST DUP1 PUSH1 0x1F ADD PUSH1 0x20 DUP1 SWAP2 DIV MUL PUSH1 0x20 ADD PUSH1 0x40 MLOAD SWAP1 DUP2 ADD PUSH1 0x40 MSTORE DUP1 SWAP3 SWAP2 SWAP1 DUP2 DUP2 MSTORE PUSH1 0x20 ADD DUP3 DUP1 SLOAD PUSH2 0x826 SWAP1 PUSH2 0xDA0 JUMP JUMPDEST DUP1 ISZERO PUSH2 0x873 JUMPI DUP1 PUSH1 0x1F LT PUSH2 0x848 JUMPI PUSH2 0x100 DUP1 DUP4 SLOAD DIV MUL DUP4 MSTORE SWAP2 PUSH1 0x20 ADD SWAP2 PUSH2 0x873 JUMP JUMPDEST DUP3 ADD SWAP2 SWAP1 PUSH1 0x0 MSTORE PUSH1 0x20 PUSH1 0x0 KECCAK256 SWAP1 JUMPDEST DUP2 SLOAD DUP2 MSTORE SWAP1 PUSH1 0x1 ADD SWAP1 PUSH1 0x20 ADD DUP1 DUP4 GT PUSH2 0x856 JUMPI DUP3 SWAP1 SUB PUSH1 0x1F AND DUP3 ADD SWAP2 JUMPDEST POP POP POP POP POP SWAP1 POP SWAP1 JUMP JUMPDEST CALLER PUSH20 0xFFFFFFFFFFFFFFFFFFFFFFFFFFFFFFFFFFFFFFFF AND PUSH2 0x89D DUP3 PUSH2 0x765 JUMP JUMPDEST PUSH20 0xFFFFFFFFFFFFFFFFFFFFFFFFFFFFFFFFFFFFFFFF AND EQ PUSH2 0x8F3 JUMPI PUSH1 0x40 MLOAD PUSH32 0x8C379A000000000000000000000000000000000000000000000000000000000 DUP2 MSTORE PUSH1 0x4 ADD PUSH2 0x8EA SWAP1 PUSH2 0xC50 JUMP JUMPDEST PUSH1 0x40 MLOAD DUP1 SWAP2 SUB SWAP1 REVERT JUMPDEST PUSH1 0x1 PUSH1 0x2 PUSH1 0x0 PUSH2 0x902 DUP5 PUSH2 0x765 JUMP JUMPDEST PUSH20 0xFFFFFFFFFFFFFFFFFFFFFFFFFFFFFFFFFFFFFFFF AND PUSH20 0xFFFFFFFFFFFFFFFFFFFFFFFFFFFFFFFFFFFFFFFF AND DUP2 MSTORE PUSH1 0x20 ADD SWAP1 DUP2 MSTORE PUSH1 0x20 ADD PUSH1 0x0 KECCAK256 PUSH1 0x0 DUP3 DUP3 SLOAD PUSH2 0x94B SWAP2 SWAP1 PUSH2 0xCFD JUMP JUMPDEST SWAP3 POP POP DUP2 SWAP1 SSTORE POP PUSH1 0x1 PUSH1 0x2 PUSH1 0x0 DUP5 PUSH20 0xFFFFFFFFFFFFFFFFFFFFFFFFFFFFFFFFFFFFFFFF AND PUSH20 0xFFFFFFFFFFFFFFFFFFFFFFFFFFFFFFFFFFFFFFFF AND DUP2 MSTORE PUSH1 0x20 ADD SWAP1 DUP2 MSTORE PUSH1 0x20 ADD PUSH1 0x0 KECCAK256 PUSH1 0x0 DUP3 DUP3 SLOAD PUSH2 0x9A2 SWAP2 SWAP1 PUSH2 0xCA7 JUMP JUMPDEST SWAP3 POP POP DUP2 SWAP1 SSTORE POP DUP2 PUSH1 0x3 PUSH1 0x0 DUP4 DUP2 MSTORE PUSH1 0x20 ADD SWAP1 DUP2 MSTORE PUSH1 0x20 ADD PUSH1 0x0 KECCAK256 PUSH1 0x0 PUSH2 0x100 EXP DUP2 SLOAD DUP2 PUSH20 0xFFFFFFFFFFFFFFFFFFFFFFFFFFFFFFFFFFFFFFFF MUL NOT AND SWAP1 DUP4 PUSH20 0xFFFFFFFFFFFFFFFFFFFFFFFFFFFFFFFFFFFFFFFF AND MUL OR SWAP1 SSTORE POP POP POP JUMP JUMPDEST PUSH1 0x0 DUP2 CALLDATALOAD SWAP1 POP PUSH2 0xA0E DUP2 PUSH2 0xE98 JUMP JUMPDEST SWAP3 SWAP2 POP POP JUMP JUMPDEST PUSH1 0x0 DUP2 CALLDATALOAD SWAP1 POP PUSH2 0xA23 DUP2 PUSH2 0xEAF JUMP JUMPDEST SWAP3 SWAP2 POP POP JUMP JUMPDEST PUSH1 0x0 PUSH1 0x20 DUP3 DUP5 SUB SLT ISZERO PUSH2 0xA3F JUMPI PUSH2 0xA3E PUSH2 0xE30 JUMP JUMPDEST JUMPDEST PUSH1 0x0 PUSH2 0xA4D DUP5 DUP3 DUP6 ADD PUSH2 0x9FF JUMP JUMPDEST SWAP2 POP POP SWAP3 SWAP2 POP POP JUMP JUMPDEST PUSH1 0x0 DUP1 PUSH1 0x40 DUP4 DUP6 SUB SLT ISZERO PUSH2 0xA6D JUMPI PUSH2 0xA6C PUSH2 0xE30 JUMP JUMPDEST JUMPDEST PUSH1 0x0 PUSH2 0xA7B DUP6 DUP3 DUP7 ADD PUSH2 0x9FF JUMP JUMPDEST SWAP3 POP POP PUSH1 0x20 PUSH2 0xA8C DUP6 DUP3 DUP7 ADD PUSH2 0x9FF JUMP JUMPDEST SWAP2 POP POP SWAP3 POP SWAP3 SWAP1 POP JUMP JUMPDEST PUSH1 0x0 DUP1 PUSH1 0x0 PUSH1 0x60 DUP5 DUP7 SUB SLT ISZERO PUSH2 0xAAF JUMPI PUSH2 0xAAE PUSH2 0xE30 JUMP JUMPDEST JUMPDEST PUSH1 0x0 PUSH2 0xABD DUP7 DUP3 DUP8 ADD PUSH2 0x9FF JUMP JUMPDEST SWAP4 POP POP PUSH1 0x20 PUSH2 0xACE DUP7 DUP3 DUP8 ADD PUSH2 0x9FF JUMP JUMPDEST SWAP3 POP POP PUSH1 0x40 PUSH2 0xADF DUP7 DUP3 DUP8 ADD PUSH2 0xA14 JUMP JUMPDEST SWAP2 POP POP SWAP3 POP SWAP3 POP SWAP3 JUMP JUMPDEST PUSH1 0x0 DUP1 PUSH1 0x40 DUP4 DUP6 SUB SLT ISZERO PUSH2 0xB00 JUMPI PUSH2 0xAFF PUSH2 0xE30 JUMP JUMPDEST JUMPDEST PUSH1 0x0 PUSH2 0xB0E DUP6 DUP3 DUP7 ADD PUSH2 0x9FF JUMP JUMPDEST SWAP3 POP POP PUSH1 0x20 PUSH2 0xB1F DUP6 DUP3 DUP7 ADD PUSH2 0xA14 JUMP JUMPDEST SWAP2 POP POP SWAP3 POP SWAP3 SWAP1 POP JUMP JUMPDEST PUSH1 0x0 PUSH1 0x20 DUP3 DUP5 SUB SLT ISZERO PUSH2 0xB3F JUMPI PUSH2 0xB3E PUSH2 0xE30 JUMP JUMPDEST JUMPDEST PUSH1 0x0 PUSH2 0xB4D DUP5 DUP3 DUP6 ADD PUSH2 0xA14 JUMP JUMPDEST SWAP2 POP POP SWAP3 SWAP2 POP POP JUMP JUMPDEST PUSH2 0xB5F DUP2 PUSH2 0xD31 JUMP JUMPDEST DUP3 MSTORE POP POP JUMP JUMPDEST PUSH1 0x0 PUSH2 0xB70 DUP3 PUSH2 0xC8B JUMP JUMPDEST PUSH2 0xB7A DUP2 DUP6 PUSH2 0xC96 JUMP JUMPDEST SWAP4 POP PUSH2 0xB8A DUP2 DUP6 PUSH1 0x20 DUP7 ADD PUSH2 0xD6D JUMP JUMPDEST PUSH2 0xB93 DUP2 PUSH2 0xE35 JUMP JUMPDEST DUP5 ADD SWAP2 POP POP SWAP3 SWAP2 POP POP JUMP JUMPDEST PUSH1 0x0 PUSH2 0xBAB PUSH1 0xD DUP4 PUSH2 0xC96 JUMP JUMPDEST SWAP2 POP PUSH2 0xBB6 DUP3 PUSH2 0xE46 JUMP JUMPDEST PUSH1 0x20 DUP3 ADD SWAP1 POP SWAP2 SWAP1 POP JUMP JUMPDEST PUSH1 0x0 PUSH2 0xBCE PUSH1 0x13 DUP4 PUSH2 0xC96 JUMP JUMPDEST SWAP2 POP PUSH2 0xBD9 DUP3 PUSH2 0xE6F JUMP JUMPDEST PUSH1 0x20 DUP3 ADD SWAP1 POP SWAP2 SWAP1 POP JUMP JUMPDEST PUSH2 0xBED DUP2 PUSH2 0xD63 JUMP JUMPDEST DUP3 MSTORE POP POP JUMP JUMPDEST PUSH1 0x0 PUSH1 0x20 DUP3 ADD SWAP1 POP PUSH2 0xC08 PUSH1 0x0 DUP4 ADD DUP5 PUSH2 0xB56 JUMP JUMPDEST SWAP3 SWAP2 POP POP JUMP JUMPDEST PUSH1 0x0 PUSH1 0x20 DUP3 ADD SWAP1 POP DUP2 DUP2 SUB PUSH1 0x0 DUP4 ADD MSTORE PUSH2 0xC28 DUP2 DUP5 PUSH2 0xB65 JUMP JUMPDEST SWAP1 POP SWAP3 SWAP2 POP POP JUMP JUMPDEST PUSH1 0x0 PUSH1 0x20 DUP3 ADD SWAP1 POP DUP2 DUP2 SUB PUSH1 0x0 DUP4 ADD MSTORE PUSH2 0xC49 DUP2 PUSH2 0xB9E JUMP JUMPDEST SWAP1 POP SWAP2 SWAP1 POP JUMP JUMPDEST PUSH1 0x0 PUSH1 0x20 DUP3 ADD SWAP1 POP DUP2 DUP2 SUB PUSH1 0x0 DUP4 ADD MSTORE PUSH2 0xC69 DUP2 PUSH2 0xBC1 JUMP JUMPDEST SWAP1 POP SWAP2 SWAP1 POP JUMP JUMPDEST PUSH1 0x0 PUSH1 0x20 DUP3 ADD SWAP1 POP PUSH2 0xC85 PUSH1 0x0 DUP4 ADD DUP5 PUSH2 0xBE4 JUMP JUMPDEST SWAP3 SWAP2 POP POP JUMP JUMPDEST PUSH1 0x0 DUP2 MLOAD SWAP1 POP SWAP2 SWAP1 POP JUMP JUMPDEST PUSH1 0x0 DUP3 DUP3 MSTORE PUSH1 0x20 DUP3 ADD SWAP1 POP SWAP3 SWAP2 POP POP JUMP JUMPDEST PUSH1 0x0 PUSH2 0xCB2 DUP3 PUSH2 0xD63 JUMP JUMPDEST SWAP2 POP PUSH2 0xCBD DUP4 PUSH2 0xD63 JUMP JUMPDEST SWAP3 POP DUP3 PUSH32 0xFFFFFFFFFFFFFFFFFFFFFFFFFFFFFFFFFFFFFFFFFFFFFFFFFFFFFFFFFFFFFFFF SUB DUP3 GT ISZERO PUSH2 0xCF2 JUMPI PUSH2 0xCF1 PUSH2 0xDD2 JUMP JUMPDEST JUMPDEST DUP3 DUP3 ADD SWAP1 POP SWAP3 SWAP2 POP POP JUMP JUMPDEST PUSH1 0x0 PUSH2 0xD08 DUP3 PUSH2 0xD63 JUMP JUMPDEST SWAP2 POP PUSH2 0xD13 DUP4 PUSH2 0xD63 JUMP JUMPDEST SWAP3 POP DUP3 DUP3 LT ISZERO PUSH2 0xD26 JUMPI PUSH2 0xD25 PUSH2 0xDD2 JUMP JUMPDEST JUMPDEST DUP3 DUP3 SUB SWAP1 POP SWAP3 SWAP2 POP POP JUMP JUMPDEST PUSH1 0x0 PUSH2 0xD3C DUP3 PUSH2 0xD43 JUMP JUMPDEST SWAP1 POP SWAP2 SWAP1 POP JUMP JUMPDEST PUSH1 0x0 PUSH20 0xFFFFFFFFFFFFFFFFFFFFFFFFFFFFFFFFFFFFFFFF DUP3 AND SWAP1 POP SWAP2 SWAP1 POP JUMP JUMPDEST PUSH1 0x0 DUP2 SWAP1 POP SWAP2 SWAP1 POP JUMP JUMPDEST PUSH1 0x0 JUMPDEST DUP4 DUP2 LT ISZERO PUSH2 0xD8B JUMPI DUP1 DUP3 ADD MLOAD DUP2 DUP5 ADD MSTORE PUSH1 0x20 DUP2 ADD SWAP1 POP PUSH2 0xD70 JUMP JUMPDEST DUP4 DUP2 GT ISZERO PUSH2 0xD9A JUMPI PUSH1 0x0 DUP5 DUP5 ADD MSTORE JUMPDEST POP POP POP POP JUMP JUMPDEST PUSH1 0x0 PUSH1 0x2 DUP3 DIV SWAP1 POP PUSH1 0x1 DUP3 AND DUP1 PUSH2 0xDB8 JUMPI PUSH1 0x7F DUP3 AND SWAP2 POP JUMPDEST PUSH1 0x20 DUP3 LT DUP2 EQ ISZERO PUSH2 0xDCC JUMPI PUSH2 0xDCB PUSH2 0xE01 JUMP JUMPDEST JUMPDEST POP SWAP2 SWAP1 POP JUMP JUMPDEST PUSH32 0x4E487B7100000000000000000000000000000000000000000000000000000000 PUSH1 0x0 MSTORE PUSH1 0x11 PUSH1 0x4 MSTORE PUSH1 0x24 PUSH1 0x0 REVERT JUMPDEST PUSH32 0x4E487B7100000000000000000000000000000000000000000000000000000000 PUSH1 0x0 MSTORE PUSH1 0x22 PUSH1 0x4 MSTORE PUSH1 0x24 PUSH1 0x0 REVERT JUMPDEST PUSH1 0x0 DUP1 REVERT JUMPDEST PUSH1 0x0 PUSH1 0x1F NOT PUSH1 0x1F DUP4 ADD AND SWAP1 POP SWAP2 SWAP1 POP JUMP JUMPDEST PUSH32 0x4E6F7420746865206F776E657200000000000000000000000000000000000000 PUSH1 0x0 DUP3 ADD MSTORE POP JUMP JUMPDEST PUSH32 0x4E6F7420746865206F776E6572206F6620494400000000000000000000000000 PUSH1 0x0 DUP3 ADD MSTORE POP JUMP JUMPDEST PUSH2 0xEA1 DUP2 PUSH2 0xD31 JUMP JUMPDEST DUP2 EQ PUSH2 0xEAC JUMPI PUSH1 0x0 DUP1 REVERT JUMPDEST POP JUMP JUMPDEST PUSH2 0xEB8 DUP2 PUSH2 0xD63 JUMP JUMPDEST DUP2 EQ PUSH2 0xEC3 JUMPI PUSH1 0x0 DUP1 REVERT JUMPDEST POP JUMP INVALID LOG2 PUSH5 0x6970667358 0x22 SLT KECCAK256 0xDD SWAP7 ISZERO 0xB7 ORIGIN 0xCF 0xB2 0xDF 0xC3 0xDF 0xE2 0xA9 0xCE SWAP8 MSTORE 0xE7 PUSH26 0x989F001A53D896CC63D3D34BBD544564736F6C63430008070033 "
				},
				"gasEstimates": {
					"creation": {
						"codeDepositCost": "767200",
						"executionCost": "infinite",
						"totalCost": "infinite"
					},
					"external": {
						"allowances(address,address)": "infinite",
						"approve(address,uint256)": "infinite",
						"balanceOf(address)": "2907",
						"balances(address)": "2903",
						"mint(address,uint256)": "infinite",
						"name()": "infinite",
						"ownerOf(uint256)": "2909",
						"owners(uint256)": "2840",
						"symbol()": "infinite",
						"transfer(address,uint256)": "infinite",
						"transferFrom(address,address,uint256)": "infinite"
					}
				},
				"methodIdentifiers": {
					"allowances(address,address)": "55b6ed5c",
					"approve(address,uint256)": "095ea7b3",
					"balanceOf(address)": "70a08231",
					"balances(address)": "27e235e3",
					"mint(address,uint256)": "40c10f19",
					"name()": "06fdde03",
					"ownerOf(uint256)": "6352211e",
					"owners(uint256)": "025e7c27",
					"symbol()": "95d89b41",
					"transfer(address,uint256)": "a9059cbb",
					"transferFrom(address,address,uint256)": "23b872dd"
				}
			},
			"storageLayout": {
				"storage": [
					{
						"astId": 3,
						"contract": "contracts/ERC-721.sol:ERC_721",
						"label": "_name",
						"offset": 0,
						"slot": "0",
						"type": "t_string_storage"
					},
					{
						"astId": 5,
						"contract": "contracts/ERC-721.sol:ERC_721",
						"label": "_symbol",
						"offset": 0,
						"slot": "1",
						"type": "t_string_storage"
					},
					{
						"astId": 41,
						"contract": "contracts/ERC-721.sol:ERC_721",
						"label": "balances",
						"offset": 0,
						"slot": "2",
						"type": "t_mapping(t_address,t_uint256)"
					},
					{
						"astId": 45,
						"contract": "contracts/ERC-721.sol:ERC_721",
						"label": "owners",
						"offset": 0,
						"slot": "3",
						"type": "t_mapping(t_uint256,t_address)"
					},
					{
						"astId": 133,
						"contract": "contracts/ERC-721.sol:ERC_721",
						"label": "allowances",
						"offset": 0,
						"slot": "4",
						"type": "t_mapping(t_address,t_mapping(t_address,t_uint256))"
					}
				],
				"types": {
					"t_address": {
						"encoding": "inplace",
						"label": "address",
						"numberOfBytes": "20"
					},
					"t_mapping(t_address,t_mapping(t_address,t_uint256))": {
						"encoding": "mapping",
						"key": "t_address",
						"label": "mapping(address => mapping(address => uint256))",
						"numberOfBytes": "32",
						"value": "t_mapping(t_address,t_uint256)"
					},
					"t_mapping(t_address,t_uint256)": {
						"encoding": "mapping",
						"key": "t_address",
						"label": "mapping(address => uint256)",
						"numberOfBytes": "32",
						"value": "t_uint256"
					},
					"t_mapping(t_uint256,t_address)": {
						"encoding": "mapping",
						"key": "t_uint256",
						"label": "mapping(uint256 => address)",
						"numberOfBytes": "32",
						"value": "t_address"
					},
					"t_string_storage": {
						"encoding": "bytes",
						"label": "string",
						"numberOfBytes": "32"
					},
					"t_uint256": {
						"encoding": "inplace",
						"label": "uint256",
						"numberOfBytes": "32"
					}
				}
			},
			"userdoc": {
				"kind": "user",
				"methods": {},
				"version": 1
			}
		}
	}
}